:020000040800F2
:1000000088070020A50100081B260008FF1700082C
:1000100019260008DD030008812A000800000000FE
:10002000000000000000000000000000612900083E
:100030001B040008000000003502000865290008C4
:10004000BF010008BF010008BF010008BF01000890
:10005000BF010008BF010008BF010008BF01000880
:10006000BF010008BF010008BF010008BF01000870
:10007000BF010008BF010008BF010008E10300083C
:10008000BF010008BF010008BF010008BF01000850
:10009000BF010008BF010008BF010008BF01000840
:1000A000BF010008092A0008BF010008BF010008BD
:1000B000BF0100080000000000000000BF010008B0
:1000C000BF010008BF010008BF010008BF01000810
:1000D00099260008BF010008BF010008BF01000801
:1000E000BF010008BF010008000000000000000080
:1000F0000000000000000000000000000000000000
:1001000000000000BF01000800000000BF0100085F
:100110000000000000000000BF010008BF0100084F
:10012000BF010008BF010008BF010008BF010008AF
:10013000BF010008000000000000000000000000F7
:10014000BF010008BF010008BF0100080000000057
:10015000BF010008BF010008BF010008BF0100087F
:10016000BF010008BF010008BF0100080000000037
:10017000BF010008BF0100080000000000000000EF
:10018000BF010008BF010008BF010008DFF810D060
:1001900000F012F900480047552F0008AFF3008027
:1001A000880700200648804706480047FEE7FEE72C
:1001B000FEE7FEE7FEE7FEE7FEE7FEE7FEE7FEE717
:1001C000F92900088D01000872B6344834490268E4
:1001D00041EA0201016033484FF0010101603248F9
:1001E0004168016001688A884FF0100342EA030207
:1001F0008A80D1F800C00CF1240C0CF1040CBCE88E
:10020000FF008CF309884FF0020C8CF31488AE4683
:1002100062B63047EFF3108072B67047EFF310808C
:1002200062B6704780F31088704720484FF08051C5
:1002300001607047EFF3108C72B61D4A126822B14C
:100240002DE900509047BDE80050EFF309801EF003
:10025000100F08BF20ED108B40F804ED20E9F01FCF
:10026000114D4FF010082E683060B78827EA080754
:10027000B78068682860878847EA08078780016830
:1002800000F018B851F804EB1EF0100F08BF00F092
:1002900016B881F309888CF31088704720ED00E0D0
:1002A0000000FFFF5C0000206000002004ED00E083
:1002B0004400002030C9B1E8C01FFFF7E3BFB1EC34
:1002C000088BB1EC08CBFFF7E4BF2DE9F05F0546E2
:1002D000002092469B4688460646814640241BE005
:1002E000284641464746224600F056F853465A46AD
:1002F000C01A914110D311461846224600F03DF82D
:100300002D1A67EB01084F4622460120002100F01C
:1003100034F817EB00094E41201EA4F10104DFDC84
:10032000484631462A46434600F000B830BCBDE896
:10033000C09F40EA01039B0703D009E008C9121FD0
:1003400008C0042AFAD203E011F8013B00F8013B8F
:10035000521EF9D27047D2B201E000F8012B491EBB
:10036000FBD270470022F6E710B513460A46044652
:100370001946FFF7F0FF204610BD202A04DB203A83
:1003800000FA02F1002070479140C2F1200320FAE8
:1003900003F3194390407047202A04DB203A21FAE6
:1003A00002F00021704721FA02F3D040C2F120028E
:1003B0009140084319467047064C074D06E0E06837
:1003C00040F0010394E8070098471034AC42F6D39C
:1003D000FFF7E0FE0C4600082C460008FEE7000090
:1003E000014800F044B800005801002030B590F8F2
:1003F000444004F01C050124AC40056C6C600468AA
:1004000063608368102B036803D099600068C26042
:1004100030BD9A600068C16030BD704772B6FEE7BB
:1004200010B590F825100024022903D00421C163DF
:1004300001241AE001680A6822F00E020A600168CD
:100440000A6822F001020A6090F84410036C01F07F
:100450001C02012101FA02F25A6080F825100021E5
:1004600080F82410816B01B18847204610BDF0B49C
:10047000016C0C6801680D6890F8442002F01C06BD
:10048000042202FA06F3234211D06B070FD50B6842
:100490009B0603D40B6823F004030B6090F8441010
:1004A00001F01C018A40016C4A60016B1DE00223CF
:1004B00003FA06F727424FF0000C4FF0010218D064
:1004C000AF0716D50C68A40605D40C6824F00A04FE
:1004D0000C6080F8252090F8441001F01C018B403E
:1004E000016C4B6080F824C0C16A00291AD0F0BCAE
:1004F00008470823B340234214D02B0712D50B68BA
:1005000023F00E030B6090F84410036C01F01C0103
:1005100002FA01F15960C26380F8252080F824C0F6
:10052000416BE2E7F0BC704770B568B12B4C0368D3
:1005300014212B4AA34209D22A4C1C44B4FBF1F1EA
:100540008900C0E910210BE0012070BD234C6442FA
:100550001C44B4FBF1F1890041642049083901646D
:10056000022180F825101C6847F6F0718C43D0E911
:1005700002152943D0E904563543294385692943A7
:10058000C5692943056A2943214319608168B1F58A
:10059000804F19D0036C0F21934202D152F8A83F2B
:1005A00002E00E4AA032136890F8444004F01C04A4
:1005B000A1408B43136090F84430416803F01C0362
:1005C00099401368194311600021C163012280F82A
:1005D000252080F82410084670BD00000804024061
:1005E00000000240F8FFFDBF70B5044690F82400FB
:1005F000002501280CD0012084F8240094F82560FF
:100600000020012E06D084F824000225284670BD63
:10061000022070BD022684F82560E0632068066829
:1006200026F0010606602046FFF7E0FE206B00285A
:100630002068016802D041F00E0106E021F00401BB
:1006400001602068016841F00A01016020680168CA
:1006500041F001010160D9E72DE9F04FDFF8AC91DD
:1006600000230325A9F1040B85B04FF0010C0F27DF
:1006700009F1040AABF1040EBFE000BF0CFA03F667
:10068000324075D00C7904F00304012C01D0022C07
:100690001BD1846800945C0005FA04F80494009C63
:1006A00024EA08040094D1F80C80049C08FA04F8A9
:1006B000009C48EA0408C0F808804468B4430E79F6
:1006C000C6F300169E40264346600C79E443A40717
:1006D0000AD0C4684FEA430805FA08F6B4438E68A6
:1006E00006FA08F62643C6600C7904F00304022CCF
:1006F00010D1DC0800EB84040294246A5E074FEA00
:10070000D66807FA08F6B4430E6906FA08F62643D7
:10071000029C266204684FEA430805FA08F6B443CF
:100720000E7906F0030606FA08F6264306604C68C2
:1007300014F4403F60D0364C266E46F00106266623
:10074000246E23F0030604F001040094314C344479
:100750000294A4689E074FEA167807FA08F6B44395
:10076000B0F1904F05D02C4EB04204D1012612E0DA
:1007700042E000260FE0294EB04201D102260AE0F5
:10078000274EB04201D1032605E0264EB04201D1EA
:10079000042600E0072606FA08F62643029CA66017
:1007A000D9F800604C46D1F8048096435FEAC82827
:1007B00000D516432660DAF800405646D1F804808A
:1007C00094435FEA882800D514433460DBF8004086
:1007D0005E46D1F8048094435FEA883800D514431C
:1007E0003460DEF800407646D1F8048094435FEA36
:1007F000C83800D5144334605B1C0A6832FA03F42D
:100800007FF43CAF05B000F00FB8000008040140D1
:1008100000100240000001400004004800080048A9
:10082000000C00480010004830BCBDE8C08F426991
:1008300021EA02030A4043EA0241816170470AB19A
:10084000816170478162704701488068704700008D
:100850000C000020024881680278114481607047D2
:100860000C00002010B50024032000F089F80020BF
:1008700000F008F808B1012401E000F03DF820463E
:1008800010BD000000B5014687B00022192000F01D
:1008900057F8192000F046F81348016E41F4006142
:1008A0000166006E05A900F400600690684600F03D
:1008B00045F900F063F90D490D4AB0FBF1F10D481F
:1008C000491E0260416040F2E7320021C0E9032185
:1008D000816000F065FE10B1012007B000BD054841
:1008E00000F090FEF9E700000010024040420F00C7
:1008F000002C0140A0010020094808B5016E41F01C
:1009000001010166016E01F001010091816D41F06C
:1009100080518165806D00F08050009008BD00001E
:1009200000100240002809DB00F01F020121914065
:100930004009800000F1E020C0F80011704700007D
:10094000F0B40E4B1B680C46C3F30223C3F107053A
:10095000042D00D90425191D072901D2002300E028
:10096000DB1E012606FA05F1491E214099409E40F2
:10097000761E16403143F0BC02F094B80CED00E056
:10098000064900F0070208684FF6FF03184040EAE6
:100990000220034A10430860704700000CED00E09D
:1009A0000000FA051649B0F5007F0868C0F3412041
:1009B00009D0022805D0086820F4C06040F48060A7
:1009C0000860002070470128FBD0086820F4C06050
:1009D00040F4007008600B483222006850430A4A15
:1009E000B0FBF2F0401C00E0401E4A69520501D500
:1009F0000028F9D148694005E3D50320704700007D
:100A0000007000401800002040420F0002480068BB
:100A100000F4C06070470000007000402DE9F0470E
:100A20000F46050058D0404E306800F00700B8422D
:100A300009D2306820F0070038433060306800F099
:100A40000700B84248D12878384CC0072CD06868D5
:100A5000032811D0022812D0216898B14905002935
:100A60003ADAA16821F003010143A160FFF7ECFE2F
:100A7000804641F2883910E021688901EFE721685A
:100A80008903ECE78907EAE7FFF7DEFEA0EB080140
:100A9000494502D90320BDE8F087A068696800F0E5
:100AA0000C00B0EB810FEFD12878800705D5A06846
:100AB000A96820F0F0000843A060306800F007004B
:100AC000B8420BD9306820F00700384330603068F6
:100AD00000F00700B84201D00120DCE72878400789
:100AE00005D5A068E96820F4E0600843A060287894
:100AF000000706D5A068296920F4605040EAC100CB
:100B0000A06000F04DF8A168094AC1F30311515CDF
:100B100001F01F01C8400749086007480068BDE8A8
:100B2000F047FFF7AFBE0000002002400010024077
:100B30009C45000818000020100000200F220260D1
:100B40000C4A936803F003034360936803F0F003D7
:100B50008360936803F4E063C36092684FF4E063DA
:100B600003EAD20202610448006800F0070008604E
:100B7000704700000010024000200240054806496E
:100B800000688968054AC1F3C221515C01F01F0168
:100B9000C84070471800002000100240DC450008E3
:100BA00070B52549002318468A68CC6812F00C02FB
:100BB00004F00306214C4FEA640509D00C2A05D045
:100BC000042A32D0082A00D1284670BD012E10D147
:100BD0000B681B0704D4D1F89430C3F3032302E05D
:100BE0000B68C3F30313164E56F82330DAB10C2A00
:100BF000EBD1C86800F00300022818D0032818D0F1
:100C00001846CA68CB68C2F30212C3F306234343F3
:100C1000521CB3FBF2F2C868C0F34160401C4000B4
:100C2000B2FBF0F070BD184670BD204670BD204686
:100C3000E7E72846E5E70000001002400024F40042
:100C4000AC4500082DE9F84304006FD0FE4DA868BC
:100C500000F00C06E86800F003072078C00664D5B1
:100C600076B10C2E01D1012F0AD0A0690028286886
:100C70007AD040F001002860FFF7E6FD80465DE095
:100C80002868800702D5A0690028DED0216A28687C
:100C9000000703D5286800F0F00004E0D5F89400C0
:100CA000F02202EA1010814216D9084601F0B6FC83
:100CB00000283BD1286840F0080028602868216A95
:100CC00020F0F000084328606868E16920F47F4064
:100CD00040EA0120686016E0286840F008002860BB
:100CE0002868216A20F0F000084328606868E169FC
:100CF00020F47F4040EA0120686026B9206A01F0B4
:100D00008DFC0028D5D1FFF74BFFA968CF4AC1F36E
:100D10000311515C01F01F01C840CD490860CD4866
:100D20000068FFF7AFFD00287ED12EE0CAE000BFCB
:100D3000FFF78AFDA0EB0800022876D82868800714
:100D4000F6D5286840F0080028602868216A20F05D
:100D5000F000084328606868E16920F47F4040EAB9
:100D60000120686011E0FFE720F001002860FFF734
:100D70006BFD804606E000BFFFF766FDA0EB0800B4
:100D80000228DAD828688007F6D42078C00740D037
:100D9000082E18D00C2E01D1032F14D06068B0F5A6
:100DA000803F17D0B0F5A02F286817D020F48030EE
:100DB0002860286820F4802028606068E0B1FFF790
:100DC00043FD804614E02868800322D5606800282F
:100DD00078D01EE0286840F48030EDE740F48020B1
:100DE0002860F7E7FFF730FDA0EB08006428A4D8DF
:100DF00028688003F6D50CE0FFF726FD804605E065
:100E0000FFF722FDA0EB0800642896D8286880032D
:100E1000F6D4207880073BD5042E11D00C2E01D1BA
:100E2000022F0DD0E06801E0B6E1FFE0002828685D
:100E30001ED040F480702860FFF706FD07460CE0E6
:100E4000286840050CD5E0680028C1D008E000BF44
:100E5000FFF7FAFCC01B022893D828684005F7D595
:100E60006868217C20F0F85040EA016068600FE07B
:100E700020F480702860FFF7E7FC074605E000BF1C
:100E8000FFF7E2FCC01B0228B1D828684005F7D460
:100E90002078000729D560690028D5F8940012D081
:100EA00040F00100C5F89400FFF7CEFC074604E0CF
:100EB000FFF7CAFCC01B022899D8D5F89400800718
:100EC000F6D512E02BE120F00100C5F89400FFF701
:100ED000BBFC074605E000BFFFF7B6FCC01B0228BD
:100EE00085D8D5F894008007F6D42078400766D5D9
:100EF000A86D0027C00008D4A86D40F08050A865F8
:100F0000A86D012700F08050009053480168C90582
:100F100012D40168814641F480710160FFF794FCAE
:100F2000804605E0FFF790FCA0EB080002287DD882
:100F3000D9F80000C005F5D5A068012816D005280D
:100F4000D5F8900017D020F00100C5F89000D5F832
:100F5000900020F0040000BFC5F89000A06841F2A6
:100F60008839C0B1FFF770FC80460FE0D5F89000DB
:100F700040F00100F0E740F00400C5F89000F5E70C
:100F8000FFF762FCA0EB080149454FD8D5F8900067
:100F90008007F5D50EE0FFF757FC804606E000BF5E
:100FA000FFF752FCA0EB080149453FD8D5F8900067
:100FB0008007F5D41FB1A86D20F08050A865207877
:100FC000800628D5606A0028D5F8980012D040F035
:100FD0000100C5F89800FFF737FC074605E000BFA1
:100FE000FFF732FCC01B022820D8D5F898008007F4
:100FF000F6D510E020F00100C5F89800FFF724FCBA
:10100000074604E0FFF720FCC01B02280ED8D5F8E5
:1010100098008007F6D4A06AA8B1022824D00C2E2C
:101020007DD0286820F08070286000E0B3E0286858
:10103000000103D4E86820F00300E860E86807498D
:101040000840E8600CE09FE0001002409C4500086A
:10105000180000201000002000700040FFFFEEFE8E
:10106000FFF7F2FB044699E0E868E26A00F003014A
:10107000914226D1216B00F0700209011039914292
:101080001FD1626B00F4FE41B1EB022F19D194F82D
:10109000382000F07841B1EBC26F12D1A18F00F47B
:1010A000C00249084905A1F50011914209D194F8FF
:1010B000401000F0C06049084906A1F1007181426A
:1010C0004BD00C2E6FD0286840016CD4286820F0DB
:1010D00080702860FFF7B8FB064604E0FFF7B4FB1A
:1010E000801B022857D828688001F7D4F4E90B0147
:1010F0006FF00F0202EB01110843218A52044908E4
:1011000002EB4151A26841EA02210843217D4FF0E0
:101110007E42490802EB41610843217B00E042E046
:1011200040EAC160E968214A11400843E860286844
:1011300040F080702860E86840F08070E860FFF759
:1011400083FB044605E000BFFFF77EFB001B02287F
:1011500021D828688001F7D523E02868800120D4B1
:10116000286840F080702860E86840F08070E8608F
:10117000FFF76AFB044604E0FFF766FB001B02284A
:1011800009D828688001F7D50BE000BFFFF75CFBAA
:10119000001B022802D90320BDE8F88328688001DB
:1011A000F4D40020F8E70120F6E700008C809D01D0
:1011B0007047000038B5016804464A688868C04333
:1011C000430606D5C30704D1D3435B0601D4E16CC3
:1011D00005E0830708D4D3431B0605D4216D01B075
:1011E0002046BDE830400847830603D5430601D5B5
:1011F000C30551D4D3439B064ED443060AD494F876
:101200005D30032B49D0236E43F004032366CB6883
:101210008B680093830609D4236E43F00103236691
:101220008B6800930B6823F040030B60C00506D465
:10123000206E40F008002066206880680090206ED4
:10124000002829D02068416821F0E0014160012098
:1012500084F85D00900701D4D00722D0206841684F
:1012600021F003014160114DA06D40B18563A06D77
:10127000FFF7D6F818B1206E40F040002066606D90
:10128000002809D08563606DFFF7CAF8002803D0F5
:10129000206E40F04000206638BDC8688868009025
:1012A00038BD2046FFF784FF38BD0000A5260008A2
:1012B00070B5040009D0606A002540B12561656100
:1012C000A56294F85D0040B10CE0012070BD60683B
:1012D000B0F5827FF4D0E561F2E784F85C502046F7
:1012E00000F056F8022084F85D002068016821F0C3
:1012F00040010160E1684FF4E062914201D90020B1
:1013000001E04FF48050B1F5706F02D0914200D0EF
:10131000A562A188228901F4827102F4044211437A
:10132000227C02F002021143227D02F001021143ED
:10133000228B02F400721143227F02F03802114323
:1013400094F8202002F080021143228D02F4005212
:10135000114322681160A169042202EA114194F844
:10136000242000F4805002F01002114394F834203D
:1013700002F008021143A28902F470621143014392
:10138000206841602566012084F85D00002070BD62
:101390002DE9F04186B0064614216846FEF7E2FFCB
:1013A0002949306888424BD12849886D40F48040F3
:1013B0008865886D00F480400590C86C40F004009A
:1013C000C864C86C00F004000590C86C40F00200CE
:1013D000C864C86C052700F00200059008200224AC
:1013E00000254FF0030804978DE83101694618483D
:1013F000FFF732F9200304978DE83101694615485B
:10140000FFF72AF9154C1448206001206060102075
:10141000C4E902058020C4E90405A561E561204610
:101420002562FFF781F808B1FEF7F8FF7465002226
:1014300011462420A662FFF783FA2420FFF772FAF0
:1014400006B0BDE8F0810000003800400010024006
:1014500000080048000400485800024058010020DD
:101460002DE9F041044690F85C000026012809D0DF
:10147000012784F85C7094F85D000025012804D0F1
:10148000022670E00220BDE8F08199B192B10320FC
:1014900084F85D002566A163A287E287256425653F
:1014A000E564A4F84450A4F84650A068B0F5004F95
:1014B00002D00BE0012656E02068016821F04001CF
:1014C00001602068016841F480410160616D284835
:1014D0000863616D2748C862616D27484863606D85
:1014E00085632068416821F480414160E068B0F57F
:1014F000E06F10D8606D8069B0F5806F0BD1E08F20
:10150000C0072068416816D041F480414160E08FF7
:1015100007EB5000E087E38F2268A16B0C32606D0F
:10152000FFF762F868B1206E40F0100020660126D7
:1015300084F85D7017E021F480414160E08F40083D
:10154000E8E720680168490603D4016841F04001DA
:1015500001602068416841F02001416020684168D5
:1015600041F00201416084F85C5030468BE7000096
:10157000D9260008E3260008B726000804490068B9
:101580000968884203D10348006802F031BA704705
:10159000F40000200000002070477047704770473B
:1015A00010B5040003D094F83D0010B107E001200D
:1015B00010BD002084F83C00204600F022F80220F4
:1015C00084F83D00211D206801F024FA012084F8F0
:1015D000480084F83E0084F83F0084F8400084F816
:1015E000410084F8420084F8430084F8440084F801
:1015F000450084F8460084F8470084F83D00002048
:1016000010BD704790F83D10012901D001207047AE
:10161000022180F83D100168CA6842F00102CA60E8
:1016200000680B49884205D0B0F1804F02D00949CB
:10163000884207D18168084A1140062906D0B1F5D1
:10164000803F03D0016841F0010101600020704734
:10165000002C01400040014007000100704770B5B8
:101660000446006801694FF00005C943890715D495
:10167000C168C943890711D4E91E0161012020779F
:10168000206880698007204602D0FFF7E7FF04E06A
:1016900000F0A7F8204600F0A5F82577206801693A
:1016A000C943490717D4C168C943490713D46FF028
:1016B00004010161022020772068806910F4407FD6
:1016C000204602D0FFF7CAFF04E000F08AF8204667
:1016D00000F088F8257720680169C943090716D406
:1016E000C168C943090712D46FF0080101610420E1
:1016F00020772068C0698007204602D0FFF7AEFF40
:1017000004E000F06EF8204600F06CF825772068C1
:101710000169C943C90617D4C168C943C90613D4AE
:101720006FF010010161082020772068C06910F473
:10173000407F204602D0FFF791FF04E000F051F80F
:10174000204600F04FF8257720680169C943C90792
:1017500008D1C168C943C90704D1891E0161204667
:1017600000F042F820680169C943090609D4C1683C
:10177000C943090605D46FF0800101612046FFF7D7
:101780000DFF20680169C943C90509D4C168C9436F
:10179000090605D46FF4807101612046FFF7FDFE54
:1017A00020680169C943490609D4C168C94349068B
:1017B00005D46FF040010161204600F01FF8206859
:1017C0000169C94389060BD4C168C943890607D496
:1017D0006FF0200101612046BDE87040FFF7DFBED9
:1017E00070BD70477047000000680349884201D10E
:1017F000FFF730B870470000002C01407047FEE74B
:101800002DE9F04107461C4615460E462A2000F0F9
:101810001FF9380A00F02AF9F8B200F027F9280A6F
:1018200000F024F9E8B200F021F92B2000F010F9C3
:10183000300A00F01BF9F0B200F018F9200A00F0AD
:1018400015F9E0B200F012F9BDE8F0412C2000F0EB
:10185000FFB8000038B500210091010A8DF8001092
:101860008DF80100EF2300211A460846FFF7C8FF54
:10187000012240210748FEF7E2FF00244FF46145B2
:101880000221684601F054F8641CA4B2AC42F7D3BC
:1018900038BD00000008004870B56B4D4FF400449F
:1018A000002221462846FEF7CAFF684E002280210A
:1018B0003046FEF7C4FF642001F0DCFB01228021EA
:1018C0003046FEF7BCFF782001F0D4FB112000F079
:1018D000BFF8782001F0CEFB362000F0B9F80020E8
:1018E00000F0C4F83A2000F0B3F8652000F0BEF82C
:1018F000B22000F0ADF80C2000F0B8F80C2000F099
:10190000B5F8002000F0B2F8332000F0AFF8332033
:1019100000F0ACF8B72000F09BF8722000F0A6F8B9
:10192000BB2000F095F83D2000F0A0F8C02000F0AA
:101930008FF82C2000F09AF8C22000F089F80120DE
:1019400000F094F8C32000F083F8192000F08EF81E
:10195000C42000F07DF8202000F088F8C62000F0B8
:1019600077F80F2000F082F8D02000F071F8A42062
:1019700000F07CF8A12000F079F8E02000F068F891
:10198000D02000F073F8042000F070F80D2000F073
:101990006DF8112000F06AF8132000F067F82B2092
:1019A00000F064F83F2000F061F8542000F05EF889
:1019B0004C2000F05BF8182000F058F80D2000F0E3
:1019C00055F80B2000F052F81F2000F04FF82320AC
:1019D00000F04CF8E12000F03BF8D02000F046F891
:1019E000042000F043F80C2000F040F8112000F033
:1019F0003DF8132000F03AF82C2000F037F83F2093
:101A000000F034F8442000F031F8512000F02EF8B6
:101A10002F2000F02BF81F2000F028F81F2000F0E6
:101A200025F8202000F022F8232000F01FF82120C4
:101A300000F00EF8292000F00BF821462846BDE8FA
:101A400070400122FEF7FBBE000400480008004879
:101A500001B5002240210448FEF7F1FE012168464D
:101A600000F066FF08BD00000008004801B5012233
:101A700040210448FEF7E3FE0121684600F058FFCC
:101A800008BD0000000800484218491E521E82424C
:101A900002D922EA01007047884370470A460121B3
:101AA00001F0EABE38B5054D0C4604992D6815B114
:101AB00000912146A847002038BD0000E400002026
:101AC00010B520491020086020491F48086001F027
:101AD000ABFC040007D01EA000F0D4FF21461EA0DE
:101AE00000F0D0FF25E002F071FA040004D018A045
:101AF00000F0C8FF1FA01AE002F0D2FA01F00AFFBE
:101B0000002817D101F09AFC002813D101F098FDAC
:101B1000040004D00EA000F0B5FF1BA007E002F007
:101B200061F8040007D00AA000F0ACFF1BA000F091
:101B3000A9FF204610BD02F0BBFCBDE8104001F03B
:101B40001FBC00005000002088070020E800002093
:101B50005B4552525D2000006F734D656D53797384
:101B600074656D496E6974206572726F72202564A8
:101B70000A0000006F735461736B496E69742065CD
:101B800072726F720A0000006F7351756575654956
:101B90006E6974206572726F720A00006F735377FA
:101BA000546D72496E6974206572726F720A00001A
:101BB0004268C1E9000242681160416070474268B2
:101BC000C1E9000242681160416070474268C1E9A2
:101BD000000242681160416070474268C1E900023A
:101BE0004268116041607047D0E900121160D0E98D
:101BF00000124A6000214160016070470068FFF7F1
:101C0000D7BF70B505000C464FF000000CD0002C7B
:101C10000AD0284601F059FF002805D12146284660
:101C2000BDE8704001F02EBA70BD01F0BBBA70B5CE
:101C30000C4605000AD04CB101F078FF012807D00E
:101C40002146284601F0CCFA012801D0012070BDC0
:101C5000002070BD2DE9F84FDFF898A00F46050071
:101C6000DAF80040A04603D0502F01D9A80702D0CF
:101C7000012000F05DB8FEF7CDFA8146EE1918E0BC
:101C8000A068A542204401D8A64203D885420ED2BE
:101C900086420CD318A000F0F5FEA068324620441E
:101CA00000902346294616A000F0ECFE1BE0A0465B
:101CB000E468002CE4D13946284601F013FB90B1CA
:101CC000B7F5805F03D3284601F060FF58B1DAF81A
:101CD000001061B1C8F80C500020E8604846FEF7DB
:101CE000A1FA0020C5E74846FEF79CFAC0E7CAF80B
:101CF0000050F1E7E00000205B4552525D200000FB
:101D0000706F6F6C205B25702C203078257829202F
:101D1000636F6E666C696374207769746820706F96
:101D20006F6C205B25702C2030782578290A000004
:101D300018BCBDE8E08F00002DE9F0470D4608987B
:101D40005FEA020900F104018FB206D04FF6FB7181
:101D5000884205D92648BDE8F08725480930FAE7CA
:101D6000E5B1D8B1DFF88C8005FB07F1D8F80000A9
:101D7000FFF747FF060014D0FEF74CFA1E4A014653
:101D80005068904210D10846FEF74CFA3146D8F818
:101D90000000FFF74CFF1648401CDCE714480A30EF
:101DA000D9E71348401ED6E7D0E90023A0F11C0470
:101DB0001A60D0E900235360E58027810123266063
:101DC0000022A38022826582A281E281A0F1080222
:101DD0005260126040600060083040600060084659
:101DE000FEF720FA61890020C9F80010B3E700006F
:101DF00003060002E8000020BC000020F8B51C46E5
:101E000015460E46074601F001FD002806D10021C7
:101E10002B4632463846009401F040FCF8BD7FB5B1
:101E200082B01C460D46064604AA01F009FD0028B2
:101E300006D1032104AB2A463046009401F02EFC63
:101E400006B070BD10B5FEF7E5F9044601F082FB5F
:101E50000A49283848600968814202D00848008849
:101E600020B12046BDE81040FEF7DCB92046FEF761
:101E7000D9F9BDE81040FEF7D8B900006000002095
:101E8000400000200A464FF6FF7101F0F5BC00004B
:101E90002DE9F8430026324FDFF8C8808946142820
:101EA00004D300233C463A46009650E02E49096888
:101EB00001EB0014FEF7AEF90546208838B16088C2
:101EC00048B1401E60802846FEF7ACF946E028463F
:101ED000FEF7A8F9E5E7B9F1000F09D001F070FAB3
:101EE00048B11F4C21A0241D00F0CCFD21A00BE027
:101EF0001B4CE41C25E02848008840B1184C1BA06E
:101F0000641D00F0BFFD25A000F0BCFD19E02C48C9
:101F10004A460821076804F10800BC6102F0CEF9C6
:101F20002846FEF77FF9FFF78DFF3879400615D573
:101F3000FEF770F90546B888094C20F04000B880DB
:101F4000A41D2846FEF76EF900232246009641465E
:101F50001CA0FFF7A7FD2046BDE8F8830020FBE7A3
:101F600001070002F8C3B2A1C40000205B45525231
:101F70005D2000002121214C4F535F4552524E4FAE
:101F80005F53454D5F50454E445F494E5445525254
:101F90002121210A00000000400000202121214CC5
:101FA0004F535F4552524E4F5F53454D5F50454E24
:101FB000445F494E5F4C4F434B2121210A000000F2
:101FC000600000206F735F756E737065636966698A
:101FD000635F66696C6500002DE9F8432149224F73
:101FE0001428096801EB001402D33846BDE8F883D1
:101FF000FEF710F906462088DFF87080002588B1CA
:10200000A0886188884215D13046FEF70BF9164C3E
:102010000023E41D22460095414615A0FFF742FD2E
:102020002046E3E73046FEF7FDF800233C463A46FB
:102030000095F1E7E06804F1080290420BD040F807
:10204000105C0821283802F05FF93046FEF7EAF804
:10205000FFF7F8FE04E0491C61803046FEF7E2F825
:102060000020C3E7C400002001070002F8C3B2A1AA
:102070006F735F756E73706563696669635F6669C8
:102080006C65000010B502F0A5F9040006D005A0AB
:1020900000F0F8FC05A000F0F5FC01E0FEF794F874
:1020A000204610BD5B4552525D2000006F7354699D
:1020B000636B5374617274206572726F720A0000F0
:1020C00070B5044600F034F8002829D1174D206877
:1020D000C0EBC000E96800EB400001EB8004FEF7B4
:1020E00099F80646A08820F0020040F00400A08085
:1020F000E18804F1280001F0E9F901F02BFA05F17B
:10210000200128384860EA695AB12A884AB9096822
:10211000814206D03046FEF785F801F0ABFB002087
:1021200070BD3046FEF77EF8F9E700004000002061
:102130002DE9F0470D465FEA00084FF0FF3A16D050
:10214000C5B12869C8B12968D1B1AA8846481F2AF3
:102150000BD802D1454A914207D14549454AE86822
:10216000511A88420FD940481D30BDE8F0873E48DB
:10217000001DFAE73C48801EF7E73B48801CF4E767
:102180003948401CF1E710B94FF43470E860082179
:10219000FFF77AFCE860B0F5987F02D23248C01CA5
:1021A000E3E7FEF737F806464FF00009324C10E03F
:1021B000A1F128070846FFF717FD2F4807F128016E
:1021C0000838FFF7F5FC2A48F968FFF730FDC7F833
:1021D0000C906168A142EBD12749083948688842D0
:1021E00002D1214C0E3439E0A0F12804FFF7FCFCA9
:1021F0003046FEF717F8276908221D48E968FFF7FF
:1022000014FD060020D002463846E96802F058F96D
:102210002060A868E6602062E868C4F81890C4F8F6
:102220001C900221A060A180A988E1802968C4F8DF
:102230003CA0C4F8489061612969C4F8509061627B
:102240000020C8F8007090E7FDF7E4FF06460A4852
:1022500004F128010838FFF7ABFC084C3046FDF7C5
:10226000E1FF204681E70000030200027D33000801
:102270008807002000A00020780000200002000352
:1022800070B5054601F09CF808B1154870BD1548B9
:10229000008808B1144870BDEDB1FDF7BBFF114CCB
:1022A000064620342068283001F0F4F82068818840
:1022B00021F0040181802946206801F02DFE20686C
:1022C000818841F0200181803046FDF7ABFFFFF7A8
:1022D000B9FD002070BDBDE8704000F0A3B800005B
:1022E0000D020003400000200E0200022DE9F0471D
:1022F000494D07464FF0FF3A6869874202D1474887
:10230000BDE8F087A869874202D144480D30F7E75D
:102310002869874202D341480D38F1E7FDF77AFF7B
:102320008046C7EBC700E96800EB400001EB800482
:10233000A688F00706D0394C40460A3CFDF772FFEC
:102340002046DDE7F0064FF0000903D5288808B1E4
:10235000A5F80090700708D504F1280001F09AF85C
:10236000A08820F00400A08007E042F208000642A6
:1023700003D004F12800FFF737FC16F0600F02D0FD
:10238000204602F05FF8A08820F0020040F0010033
:10239000A080C4F83CA0C4F8489001F0DBF81E4EC1
:1023A0004FF0010A2036283870602079C0061FD50A
:1023B00004F1280106F11800FFF720FC2869E968FC
:1023C000C0EBC00000EB400001EB80003060076113
:1023D0003168A08888803068E168C160616A4162C4
:1023E000A4F804A04046FDF71DFF01F043FA10E0F9
:1023F0000948A4F804A004F128013030FFF7D8FB05
:102400000748E168FFF713FC4046C4F80C90FDF75D
:1024100009FF002074E700004000002014020002C1
:102420008807002070B5194CA4F1200220681269B9
:102430000169914201D3164870BD0079400701D46B
:10244000002070BDFDF7E6FE05462068C08801F05B
:102450006FF8012813D920682830FFF7C5FB2068E2
:10246000818841F0040181802068C188283001F012
:102470002DF82846FDF7D6FEFFF7E4FCE0E72846F6
:10248000FDF7D0FE0248093070BD0000600000205A
:10249000070200020149D1E90001704798000020BD
:1024A000FFF7FAF91F20FFF7D5F94FF47A742046A9
:1024B00000F0E0FDFBE70000064D4FF400544FF440
:1024C0007A7621462846FEF7B2F9304600F0D2FD72
:1024D000F7E7000000080048094808B5816C41F0A2
:1024E00001018164806C002200F00100009011461F
:1024F0000F20FEF725FABDE808400F20FEF712BABC
:10250000001002402DE9F04186B014216846FDF725
:1025100029FF2A48C16C41F00401C164C16C01F07B
:1025200004010591C16C41F08001C164C16C01F0EE
:1025300080010591C16C41F00201C164C16C01F0E0
:1025400002010591C16C41F00101C164C06C01221E
:1025500000F00100DFF868805403059021464046F2
:10256000FEF76DF9174FA600002231463846FEF7F8
:1025700066F90022C0214046FEF761F90125CDE948
:10258000004500240294694640460394FEF764F82F
:10259000CDE900650326CDE9024669463846FEF7D7
:1025A0005BF8C020CDE90005CDE90246694640460A
:1025B000FEF752F806B0BDE8F081000000100240BE
:1025C0000008004800040048124810B51049016096
:1025D0004FF48271416000214FF4E062C0E90212C1
:1025E00002220261012242615202C0E90621016217
:1025F00007224162C0E90A1201634163FEF758FEF7
:10260000002803D0BDE81040FDF708BF10BD000052
:1026100000380040F4000020FEE7FEE7F8B51C4D4E
:1026200006460024A86DC00002D5FEF7EFF90DE0C4
:10263000A86D40F08050A865A86D00F08050009013
:10264000FEF7E4F9A96D21F08051A965B0F5007F8E
:1026500004D0802E07D94FF003040AE0802E08D959
:10266000A02E01D804E001D1022402E0702E00D196
:1026700001240848016821F0070121430160006836
:1026800000F00700A04201D00120F8BD0020F8BDF5
:1026900000100240002002400148FEF78BBD000000
:1026A000F400002010B5806A0021A0F84610C18710
:1026B000FEF77EFD10BD10B5806A01684A6822F001
:1026C00003024A60016E41F010010166012180F8A9
:1026D0005D10FEF76DFD10BD10B5806AFEF75CFF62
:1026E00010BD38B50546846AFEF7AEF80246286884
:1026F0000068800623D42068416821F020014160F1
:102700002068416821F0020141606421204600F008
:102710001AF818B1206E40F020002066A068002151
:1027200018B92068C26880680090E187012084F8A9
:102730005D00206E18B12046FEF73AFD38BD2046F8
:10274000FEF71CFF38BDF8B515460E460B46009245
:10275000044600224FF4C05100F01AF888B93346FD
:10276000002280212046009500F086F848B93346C3
:1027700000224FF4C0612046009500F009F80028BF
:1027800004D0206E40F0200020660320F8BD000039
:102790002DE9FE4F4FF0000A984617460E460446B4
:1027A0000C9D8DF804A0FEF74FF8411BA8EB010526
:1027B000FEF74AF8814620684FF4C06B0C30029057
:1027C0002A480068C0EBC00000EB8000000D6843A1
:1027D000009043E05E4506D12FB9029800788DF84D
:1027E00004009DF80400B8F1FF3F37D0FEF72CF845
:1027F000A0EB0900A84203D215B1009858B32BE012
:102800002068416821F0E00141606068B0F5827F96
:102810000BD1A068B0F5004F02D0B0F5806F04D1A5
:102820002068016821F040010160A06AB0F5005FF6
:1028300009D12068016821F4005101602068016815
:1028400041F400510160012084F85D0084F85CA02F
:10285000032000F00DB80025401E0090206880681D
:102860003040B842B6D10020F3E700001800002045
:102870001EBCBDE8E08F00002DE9F8431E469146DE
:1028800088460446089DFDF7DFFF401B351AFDF71B
:10289000DBFF074625480068C0F3CB30684338E0CB
:1028A000701C37D0FDF7D0FFC01BA84203D215B172
:1028B000009860B32CE02068416821F0E00141609D
:1028C0006068B0F5827F0BD1A068B0F5004F02D0F0
:1028D000B0F5806F04D12068016821F040010160EB
:1028E000A06AB0F5005F09D12068016821F40051A9
:1028F00001602068016841F400510160012084F802
:102900005D00002084F85C000320BDE8F88300250A
:10291000401E00902068816838EA010004D0002140
:102920004945BDD10020F0E70121F9E7180000205A
:1029300070B5054608480C464FF6FF71006801F077
:1029400013F808B1012070BD22462946BDE8704049
:102950000248FEF785BD000000000020F4000020C2
:10296000704700000648006808B101F01FBD054827
:10297000D0E90012491C42F10002C0E90012704780
:10298000880000209800002010B596B044216846C9
:10299000FDF7E8FC142111A8FDF7E4FC012108046F
:1029A000CDE90010022003240A90CDE90B41142147
:1029B0000D910721CDE90E1010906846FEF742F9FF
:1029C00008B172B6FEE70F20CDE911040020139084
:1029D00014901590042111A8FEF720F808B172B6E2
:1029E000FEE74FF40070FDF7DDFF002801D072B65E
:1029F000FEE716B010BD00000248016841F4700106
:102A00000160704788ED00E00148FEF728BE000035
:102A1000A001002070B50268164B4FF08046984226
:102A200001D0B04203D122F070044A682243124C14
:102A3000124D984205D0B04203D0A04201D0A84226
:102A400003D122F44076CA6832434E6922F08002F4
:102A5000324302608A68C2620A688262984203D086
:102A6000A04201D0A84201D109690163012141615D
:102A700070BD0000002C01400040014000440140B6
:102A8000FEE700000FB4054B10B503A9044A0298F5
:102A900000F028F810BC5DF814FB0000412F00087E
:102AA000F00000200907090E002804DB00F1E020F7
:102AB00080F80014704700F00F0000F1E02080F86B
:102AC000141D704702E008C8121F08C1002AFAD17D
:102AD00070477047002001E001C1121F002AFBD19E
:102AE000704700002DE9FF4F8DB00F4605460026C8
:102AF00006E025280BD0DDE90F1290476D1C761CEF
:102B000028780028F5D111B0304600F0EDB9002446
:102B1000A246A1460122E94900E0044315F8013F1D
:102B2000203B02FA03F00842F7D128782A2810D077
:102B30006FF02F022878A0F13001092914D80AEB90
:102B40008A0102EB410144F0020400EB010A6D1C12
:102B5000F0E701CF5FEA000A03D544F40054CAF15C
:102B6000000A44F002046D1C28782E2817D115F8AD
:102B7000010F44F004042A280ED06FF02F022878A9
:102B8000A0F1300109290AD809EB890102EB4101C2
:102B900000EB01096D1CF2E757F8049B6D1C2878C7
:102BA0006C280FD006DC4C2817D068280DD06A2876
:102BB00014D104E0742810D07A280FD10DE044F429
:102BC00000140AE044F4801401E044F440146978ED
:102BD000814202D104F580146D1C6D1C28786E288A
:102BE0001ED00CDC632830D004DC00288BD05828A1
:102BF00011D19FE0642867D069280CD164E0732864
:102C00002DD004DC6F2872D0702804D194E0752890
:102C10006ED078286DD0DDE90F129047761C4BE11D
:102C2000C4F30250022806D0032809D0042801CF9B
:102C300009D0066040E101CFF117C0E900613BE136
:102C400001CF068038E1067036E117F8040B8DF8E5
:102C5000000000208DF80100EB46012003E057F84A
:102C600004BB4FF0FF3061074FF0000102D40DE0CC
:102C700008F10101884649450FDA8045F8DB1BF869
:102C800008100029F4D108E008F1010188468142CA
:102C9000FADB1BF808100029F6D1DDE90F23AAEBB7
:102CA00008008146214600F034F9304400EB080664
:102CB00004E0DDE90F121BF8010B9047B8F10108A1
:102CC000F7D221464846F2E00A21C4F302524FF0FF
:102CD000000B0891022A04D001CFC117032A09D0A2
:102CE0000AE0FF1D27F00707F7E8020108E02CE0E3
:102CF0001EE01FE000B2C117042A01D140B2C11783
:102D0000021E71F1000206DA0023D0EB030063EB30
:102D100001012D2202E0220504D52B228DF824206A
:102D2000012203E0E20701D02022F7E7904653E0BA
:102D30000A210BE0102109E010214FF0000B44F0B4
:102D400004044FF00809089103E008214FF0000B3C
:102D50000891C4F30252022A04D001CF0021032AB1
:102D600006D006E0FF1D27F00707F7E8020103E0A1
:102D700080B2042A00D1C0B24FF0000822072BD540
:102D80002A78702A07D0DDF820C08CF0100C5CEA9D
:102D90000B0C05D00EE040228DF82420012208E023
:102DA00050EA010306D030238DF824308DF8252019
:102DB00002229046089B83F0080353EA0B030BD1D1
:102DC00050EA010201D1620706D530228DF8242095
:102DD0004FF00108A9F101092A78582A04D038A235
:102DE0000B9208AA0A920BE03AA2F9E75B46089A0E
:102DF000FDF76BFA0B9B9B5C0A9A521E0A921370AA
:102E000050EA0102F2D10A98ADEB000000F1200B6C
:102E1000600702D524F4803401E04FF00109D94560
:102E200002DDA9EB0B0000E0002000EB0B014144A8
:102E30000890AAEB010AE00306D4DDE90F2321463E
:102E4000504600F066F806444FF0000908E009A972
:102E500011F80900DDE90F12904709F10109761C0C
:102E6000C145F4DBE0030CD5DDE90F2321465046D4
:102E700000F04FF8064404E0DDE90F1230209047DF
:102E8000761C0899481E08900029F5DC08E00A988D
:102E90000A990078491C0A91DDE90F129047761CC7
:102EA000BBF10001ABF1010BF1DC21465046DDE93D
:102EB0000F2300F01CF806446D1C21E609280100D0
:102EC00030313233343536373839616263646566A0
:102ED0000000000030313233343536373839414262
:102EE000434445460000000030BCBDE8C08F2DE9DA
:102EF000F041044600251E461746880404D405E028
:102F000039462020B0476D1C641EF9D52846BDE81F
:102F1000F0812DE9F041044600251E469046C80385
:102F200001D5302700E02027880404D505E041467C
:102F30003846B0476D1C641EF9D52846BDE8F081BF
:102F400038B504468DF8000069460320ABBE204624
:102F500038BD0000FDF786FCFFF716FDFFF7D2FA3B
:102F6000FFF7BAFAFFF730FB00F02EFA01210B4A07
:102F7000084600F023FD0A4C084A00212060103268
:102F8000084801F0E1F9054A606034320021064842
:102F900001F0DAF9A06000F02FFAFEE744450008DE
:102FA00000000020B9240008A124000810B586B054
:102FB000044614216846FDF7D5F96946204600F01D
:102FC000B9F906B010BD4A0900EB82020068121D73
:102FD000884206D901F01F030121106899408843F7
:102FE0001060704730B502C81F314B0900210A46F6
:102FF00014E00468641C0FD00468E34301E05B083C
:10300000491C002BFBD14B1E01259D402C43046025
:1030100001EB4210401E30BD001D521C9A42E8D305
:103020004FF0FF3030BD02688A4201D8002070475F
:103030004A0900EB820001F01F0240680121914023
:103040000840F4D00120704770B5054601600C4679
:1030500001F11F00C108281DFDF784F9E00608D022
:1030600004F01F014FF0FF308840610905EB81013A
:10307000486070BD10B5FFF703F9002801D04FF08C
:10308000FF3010BD2DE9F04100240D462746061EF5
:103090005ED0FDF7BFF88046ED1C25F00305706893
:1030A00010E041684A000CD421F04041A94208D305
:1030B00024B1626822F040428A4202D90446A94201
:1030C00021D000680028ECD1ECB3606820F04040CB
:1030D000401B082817D9621952F80C0F20F08040C5
:1030E00042F804096168491B083961F31D00C2E90F
:1030F00000402146304600F012F928B302606068B3
:1031000065F31D00606054F8040F20F0004040F0AB
:10311000804001C4144827468168294408318160F1
:10312000C268914200D9C1600168491C01607068A1
:10313000406820F04040B0F5806F02D23046FFF783
:1031400035FF404601E005E00CE0FDF76BF838463E
:10315000BDE8F08105A0FFF795FC294605A0FFF723
:1031600091FCE4E77260CAE7D00000205B45525250
:103170005D20000074686572652773206E6F74208F
:10318000656E6F7567682077686F6C6520746F2057
:10319000616C6C6F63202578204279746573210A15
:1031A0000000000070B5144628B121B1042C02D3F0
:1031B000651E2C4201D0002070BD2144091FFFF77D
:1031C00061FF0028F8D00119491EA9438842F3D0B5
:1031D000081A40F0004041F8040C084670BD000099
:1031E0002DE9F04101260C46050018D0BCB154F879
:1031F000040C002802DA20F000400C1A2868A042D3
:1032000003D868680830A0420BD22EA0FFF73AFC22
:1032100021462EA0FFF736FC0020BDE8F0810120FA
:10322000FBE7FCF7F7FFA4F10802074650684000EF
:103230000ED5286890420DD01168814208D3686885
:103240000830814204D8284600F069F8904201D045
:10325000002631E05068224B20F0804020F04041B1
:103260005060986801F10804844204D8401A083874
:10327000986000E00246106868B141684900F9D5DD
:1032800009E054682144083161F31D045460696801
:10329000814200D16A601146284600F040F810B122
:1032A00041684C00EDD51146284600F038F800B1D1
:1032B00002605868401C58603846FCF7B3FF30463F
:1032C000ABE700005B4552525D2000003078257866
:1032D000206F7574206F662072616E6765210A0029
:1032E000D000002070B50E460446050001D0582ECF
:1032F00001D8002070BD2046FDF734F850342C6012
:10330000C5E901466068583E20F0804060600020BA
:103310002060606866F31D006060012070BD406839
:10332000884201D100207047486820F0404008449E
:103330000830704730B5002278B171B1436807E0BA
:103340005C68650003D524F04044224408321B68C1
:10335000002BF5D18368934201D2012030BD4A6031
:1033600080680860801A886003480268CA60406804
:103370000861002030BD0000D0000020FEE7000002
:1033800000B587B018216846FCF7ECFF07480090AD
:103390004FF4A060039006A004901F20ADF8040035
:1033A00069460648FEF78CFE07B000BD7D33000875
:1033B00049646C65436F7265303030005400002002
:1033C000EFF305807047000070B5FFF7F9FF10B10B
:1033D0006FF0050070BD074C4FF0FF35206810B945
:1033E000FEF76EFB08B1284670BD0120206000206A
:1033F00070BD0000EC00002070B5FFF7E1FF10B1D8
:103400006FF0050070BD074C4FF0FF3520680128B4
:1034100002D1FEF737FE08B1284670BD02202060B9
:10342000002070BDEC00002002480349091AFEF795
:1034300011BC00008807002000A000202DE9F04109
:1034400011484FF4B4714060006010480068FEF706
:10345000D8FB0D4D2D1F286098B1002426462F1D46
:10346000296804EB440001EBC0014C6001F8086BD3
:103470003868FEF7A4FB641C0F2CF1D30020BDE8D4
:10348000F0810348FBE70000B0000020E8000020C6
:10349000001D0002D0E900121160D0E900124A605C
:1034A00000214160016030F8221C0748426802EBAD
:1034B000C1025368934205D14FF00042CA400168EF
:1034C00091430160704700001C0000200A4B10B5BA
:1034D0005A6802EBC1025468944205D14FF000448F
:1034E000CC4019680C431C6011684A68C0E900129E
:1034F0004A681060486010BD1C00002010B50A48E2
:1035000000244FF480710068FEF77BFB0749002818
:10351000486007D0486800EBC400641C406000604D
:10352000202CF7D310BD0000E80000201C00002074
:103530000749034600204A6802EBC30102EBC302BD
:10354000496801E04968401C8A42FBD1704700008D
:103550001C0000200548016831B14068B1FA81F1D2
:1035600000EBC10040687047002070471C0000203D
:103570002DE9F0411E460446134611F003004FF0BA
:1035800000050BD0012812D0032817D022A0FFF786
:1035900079FABDE8F04122A0FFF774BAA089E78864
:1035A000421CBA4201D1A58110E0A2810EE0A0899F
:1035B00000B9E088401EA08180B207E0E089E7887A
:1035C000421CBA4201D1E58100E0E28122892568EE
:1035D00000FB025548074FEAC17007D518B11868BB
:1035E0002860BDE8F08128681860FAE750B11946F4
:1035F00028463268FCF79DFE20892D1F284431683B
:103600000160EEE7281F1044294604681846224648
:10361000FCF78FFE3460E4E75B4552525D2000000A
:10362000696E76616C6964207175657565206F706F
:1036300065726174652074797065210A000000006C
:1036400070B513484FF4DC7421460068FEF7D9FAD0
:10365000104D2860D0B12146FCF784FE281D0024BF
:10366000406000604FEA000604EB4400296800EB6C
:10367000C40001EB80014C811C313068FEF7A6FAD2
:10368000641CA4B20A2CEFD3002070BD024870BDA8
:10369000E8000020B8000020010600022DE9FF5FCD
:1036A0009A460F460446002501F00106DDF838B0C1
:1036B000FCF7B0FD4F49814604EB4400096800EB7C
:1036C000C40001EB8004A08850B1F8072089DAF823
:1036D0000010A0F1040006D0814209D9464D83E0D4
:1036E000454D0B3D80E0814202D2434D0A357BE0DF
:1036F00004EB4600018A91B1491E018253463946C6
:103700002046029AFFF734FF002E37D04FF000001A
:1037100004EBC000816934D14FF0010032E0BBF10D
:10372000000F05D03548008850B1334D0F3D5BE0A8
:10373000F80702D0304D6D1C56E02F4D083553E090
:103740002F485A464FF40051D0F8008004EBC600D1
:10375000143000F0B3FD4846FCF764FDFEF772FB41
:10376000FCF758FD8146B8F804004106C6D5224D45
:1037700020F04001A8F804100E3D35E04FF00100A4
:10378000C6E7002004EBC0001430814215D096B18A
:103790005FF0000004EBC0004FF40051806928384E
:1037A00000F0B2FD4846FCF73DFDFEF74BFB002064
:1037B00004B000F027B80120ECE7002E0CD000BFC9
:1037C0004FF0000004EB4000008A00F1010080B2DD
:1037D00005D14FF0010104E04FF00100F2E74FF096
:1037E000000104EB410108824846FCF71BFD284616
:1037F000DEE70000B80000201506000240000020AF
:103800006000002030BCBDE8C09F000010B50A2851
:1038100001D30A4810BD49B142B1106848B15BB14B
:10382000FFF7CEFD40B105480A3010BD0348401CEB
:1038300010BD0248801C10BD002010BD0E06000205
:1038400010B50A2801D30A4810BD41B1106848B12B
:103850005BB1FFF7B5FD40B10548401F10BD0448FE
:10386000001D10BD0248401D10BD002010BD00000D
:103870000E060002FCF7D9BC2DE9F84315000E46F0
:10388000074606D01B4C4FF00008B74205D91A4D29
:103890000FE01948801FBDE8F883FCF7BBFC174A0E
:1038A0000146506890420ED10846FCF7BBFC124D11
:1038B0006D1F214600232A4611A0CDF80080FEF797
:1038C000F1F82846E7E7D0E900231A60D0E90023A1
:1038D000536020F8067C012220F8082D00F1080230
:1038E0008680C2608260C08828600846FCF79AFC27
:1038F0000020D0E7F8C3B2A108070002C8000020EA
:103900006F735F756E73706563696669635F66691F
:103910006C6500002DE9F04110484FF4A071406043
:1039200000600F480068FEF76CF90C4D2D1F2860F1
:1039300090B1002426462F1D286800EB0411CC808E
:1039400021F8086B3868FEF748F9641CA4B2142CFF
:10395000F2D30020BDE8F0810248FBE7C800002058
:10396000E8000020000700022DE9F0410F460400A6
:103970006FF0030515D0FFF723FDAE1E00B1B7B9F8
:10398000E0883946FEF784FA002804D00A498842C4
:1039900003D16FF00100BDE8F0810749891F88421B
:1039A00001D12846F7E70449891E884201D13046F3
:1039B000F1E76FF00200EEE70707000238B50C46AA
:1039C0000546FFF7FDFC30B9012DA0B2694604D0D1
:1039D000FEF758FA20B1002038BDFEF75FF8F9E78E
:1039E00002480099006800EB011038BDC4000020B7
:1039F00010B56FF0030438B1C088FEF7EDFA002867
:103A000003D00449884201D1204610BD6FF0020066
:103A100010BD00000107000210B504468068FFF7E2
:103A2000E1FA002801DA002010BDD4E9001201FB00
:103A3000002010BD10B503464068081A1968B0FB95
:103A4000F1F4B0FBF1F201FB120068B9986801686B
:103A5000A14209D92146FFF7E6FA28B12146986824
:103A6000FFF7B1FA012010BD002010BD2DE9F04193
:103A70001F460B4607F11F01042404EBD1018E18E9
:103A8000511E9D18761E6D1E8E438D4305FB0761EA
:103A90000C31FFF7F7FA040008D004F10C0081198B
:103AA0002560C4E901103946FFF7CEFA2046BDE88B
:103AB000F0814DF6DE6220F8022B00F8021B002197
:103AC00000F8011C70471030704770B50E46FFF7C4
:103AD000FAFF00240546802E26D805EB0410006866
:103AE000B0421ED3FCF796FB05EB04140646D4E95E
:103AF0000101814211D2E06878B1FFF78DFF050026
:103B000006D02168FFF7D5FF0546A068401CA060DD
:103B10003046FCF787FB284670BD3046FCF782FB39
:103B200002E0641C042CD8D3002070BD2DE9F041C4
:103B30000C46FFF7C8FF074634F8040D0026A0F531
:103B40005E413546DE391ED194F8020007EB0511BF
:103B50000968884214D8FCF75DFB07EB0515804621
:103B60002146E868FFF766FF012803D1A86801260F
:103B7000401EA8604046FCF755FB3046BDE8F0818A
:103B80006D1C042DE2D30020F8E700002DE9F05F62
:103B90008346FFF798FF002407462646A1464FF0CC
:103BA00010084FF4007A00BF08FA04F1BAFBF1F3F1
:103BB00007EB041585E80A02E86808B1761C05E001
:103BC00004225846091DFFF751FFE860641C042CCD
:103BD000EAD316B1002000F002B80120FBE730BCA8
:103BE000BDE8C09FF8B540211A48FCF7BBFB1A4D51
:103BF0001A4800274FF4E071AF610E460068FEF7E7
:103C000000F804001CD03146FCF7ACFB2C616C6161
:103C1000278120461C340121218104602046491C53
:103C200089B21C341029F7D308200B4A00230090D6
:103C30000C3210211846FEF77FF820B10848F8BD75
:103C40000748001FF8BD00F0F3F80028FAD0044838
:103C5000401CF8BDEC01002024000020E8000020FA
:103C60000B0300022DE9FC4F0023591E0191009126
:103C70000169C160017A5B4C01F00F065A4D54F89E
:103C800026104FF0030B4FF01009AD694A461F464E
:103C9000DC46BBEB517F68D141F0004144F826106F
:103CA00021F07F4A0021A6465EF821C03CF07F4407
:103CB0002ED0B1422CD0BBEB9C7F29D1D4465445A9
:103CC00006D3B4FBFCF80AFB184CBCF1000F0AD079
:103CD000D44654451CD2BCFBF4F804FB18ACBCF130
:103CE000000F0BD014E0B4FBFAF8DDF804C0E04597
:103CF0000ED2B4FBFAF48946019409E0BAFBF4F859
:103D0000DDF800C0E04503D2BAFBF4F200920A46A7
:103D1000491C89B21029C7D33349B9F1100F096979
:103D20001AD0C9EBC9042A4601EB840106E0D46825
:103D30000E8927441489B44203D01268002AF6D1B0
:103D400034E062B31169CC1B0169B4FBF1F201FBF1
:103D50001242891AC16029E0102A27D00023C2EB41
:103D6000C202C36001EB82031EE00222B2EB517F6C
:103D70001CD141F0004144F82610294662460CE06F
:103D80000E690769BE4207D10E7A06F00F0654F895
:103D90002660B2EB967F03D009680029F0D105E0D8
:103DA00021B100220B46C26019680BE0294607E0EA
:103DB000CA68C468A24205D8A21A0B46C260096844
:103DC0000029F5D1016019B1CA68C468121BCA6024
:103DD00023B118600221017100F008B8024988611E
:103DE000F8E70000EC010020240000201CBCBDE826
:103DF000E08F00000EB508200C4C4FF0FF3500900E
:103E00002B466A4601A9E068FDF7F8FF0028F7D1C4
:103E100000980828F4D101980028F1D0FEF73AFB69
:103E2000DDE901108847FEF735FBE9E724000020B3
:103E300000B587B018216846FCF794FA074800904F
:103E40004FF48050039006A004900020ADF80400C9
:103E500069460648FEF734F907B000BDF53D000895
:103E60005377745F5461736B0000000058000020AA
:103E70007CB5184D26E02068A861A06900906069B3
:103E80000190002308226946E868FDF7C8FF6079C1
:103E900020B1012810D0022814D111E0204600F0F2
:103EA0001BF820894FF6E071884201D2103001E002
:103EB00000F00F00208105E02046FFF7D3FE01E06F
:103EC00001202071AC69002C02D0E0680028D2D01B
:103ED0007CBD00002400002006494A690260486158
:103EE00000210171007A044A00F00F0042F820100E
:103EF0007047000024000020EC010020054810B5A8
:103F0000806928B1C168491EC16001D1FFF7B0FFC7
:103F1000002010BD24000020F0B4024611F01F0361
:103F20004FEA511000D1401E916B1B4C01F07841BB
:103F300001432079184400F01F0060F3DF619163B2
:103F4000216801EBC00302F130015868984201D1A9
:103F500018461DE03038956B876B25F0784427F0C4
:103F60007846A6420AD8A41B05F078452C439463F2
:103F7000446BA4F130009C42EDD108E027F0784377
:103F800025F078429A1A07F078431A43826330305A
:103F9000F0BCFDF733BE00008000002070B5094D75
:103FA000C0EBC00000EB4000E96801EB80046169F0
:103FB000206A8847002028802069BDE87040FEF70D
:103FC00095B900004000002072B6FEE72DE9F041EF
:103FD000304D5420304F2C69641C444321463868CE
:103FE000FDF70FFEDFF8B480E860E8B32146FCF788
:103FF000B9F905F1280000244060006008304060F5
:10400000006008305FF0010640600060C4EBC4004F
:10401000E96800EB400001EB80011E488E800C61D6
:1040200030302831FDF7EAFD641C0F2CEED9002654
:104030006E622869E968C0EBC00000EB400001EB4C
:1040400080011448203001600C61026811219180C8
:1040500000682021C180FFF751FA4FF480710D46AE
:104060003868FDF7CEFD00E012E0040010D02946CC
:10407000FCF778F9074840300460868000206460CF
:104080002460401C08342028F9D30020BDE8F081CA
:104090004046FBE740000020E8000020000200034B
:1040A00010B54FF4AB710648FCF75CF904490A20DF
:1040B00048700548034941600021816010BD00003F
:1040C0002C02002081410008400000202DE9F04131
:1040D0002A4800270179491C01F01F0181800068EE
:1040E00000EBC1056C68AC4245D0303C04F13000B7
:1040F000A84206D0A06BA688400108D0A06B401E45
:10410000A063002F37D0BDE8F041FDF79BBE04F15E
:104110003000FDF769FD30070BD5A08820F00800BE
:10412000A08004F12800FDF75FFD0020A061E061A0
:1041300013E0700503D5A08820F480600CE0B00483
:1041400007D504F12800FDF74FFDA08820F40050AA
:1041500002E0A08820F02000A080B00709D4A08849
:1041600040F00400A080E18804F12800FFF7AEF9D8
:1041700001276C68B9E7BDE8F081000080000020ED
:1041800010B52A4C2068C0680068B0F1CC3F08D058
:1041900027A0FEF777FC20680269416A26A0FEF797
:1041A00071FC6068C2680168914203D9806810445C
:1041B000884211D21EA0FEF765FC60680269416A60
:1041C00027A0FEF75FFC1AA0FEF75CFC6068C268DF
:1041D00001682CA0FEF756FC6068374C018A2278F3
:1041E00004EB42025180416A2078202204EB401007
:1041F0001630FCF79EF82178002004EB411181F87D
:1042000035002178491CC9B221700A2904D12070D7
:10421000607840F080006070044820388068002892
:1042200002D0BDE81040004710BD00006000002033
:104230005B4552525D20000043555252454E54207A
:104240007461736B2049443A2025733A25642073C6
:104250007461636B206F766572666C6F77210A00FC
:1042600048494748455354207461736B2049443A88
:104270002025733A2564205350206572726F722195
:104280000A00000048494748455354207461736B45
:1042900020537461636B506F696E7465723A20309D
:1042A00078257820546F704F66537461636B3A20A1
:1042B000307825780A0000002C0200202DE9F0411A
:1042C0008046104816460F46046804F1280005464B
:1042D000FFF7E0F8A088294620F004003843A080CA
:1042E0004046FDF78BFC701C09D0A088314640F099
:1042F0004000A0802046BDE8F041FFF70DBEBDE8BC
:10430000F08100006000002070B5044628300D46A2
:104310000646FDF769FCA088A843A080400606D5A4
:10432000204600F08FF8A08820F04000A080A088F0
:10433000810708D440F00400A080E1883046BDE841
:104340007040FFF7C3B870BD30B587B0144605465E
:10435000FFF736F8D0B9CCB1C5B1A069092815DB93
:10436000262813DC18216846FBF7FCFF00956069DE
:1043700069468000039020680490A069C0F127007E
:10438000ADF8040006A8FDF79BFE10B1002007B0B1
:1043900030BD05490698C0EBC000096800EB40003D
:1043A00001EB8000F3E700004C000020084810B546
:1043B000D0E90221521C41F10001C0E9022100F0C4
:1043C0005BF8FFF783FEBDE81040FFF797BD0000E4
:1043D00090000020154810B5006818B14FF47A71AC
:1043E000884201D2124810BDB0FBF1F2114B124CC1
:1043F000B0FBF1F01A600022C4E900220122401E45
:10440000B0F1807F02D30A48801C10BD4FF0E0213C
:1044100048610A4BF02083F8140D002088610720C2
:10442000086107480260002010BD0000180000204D
:1044300000040002A0000020980000200FE000E02F
:104440008800002030B40B4B826B1B68D10E03EB4D
:10445000C103416B994209D08B6822F0784223F066
:104460007844224403F078431A438A6030BC3030E9
:10447000FDF7BABB800000200B480A4902680B48D0
:104480000B680068934204D00A60CB88421E1A442D
:104490008A808A8880B2824203D100200860FDF7BA
:1044A000C1BF7047A40000206000002098000020D9
:1044B0000248002101600A21C1807047A400002049
:1044C00070B5144605460E464FF0CA322046FBF73B
:1044D00042FF4FF0CC302060A0194FF0043140F87B
:1044E000481D4FF0053141604FF0063181604FF0BB
:1044F0000731C1604FF0083101614FF0093141616E
:104500004FF0103181614FF01131C1610021016222
:10451000C91EC0E909154FF00131C16249000163AC
:104520004FF0033141634FF0123181630349C1639E
:10453000034901644FF08071416470BDC93F0008B8
:104540009D3F0008E4450008000000000000000056
:10455000000000000046000800000000000000000D
:104560000000000000000000000200001800000031
:104570000000000000000000F445000800000000FA
:104580000000000000000000000000000008000023
:104590001900000000000000000000000000000002
:1045A000000000000102030406070809A0860100BC
:1045B000400D0300801A060000350C0040420F0039
:1045C00080841E0000093D0000127A000024F400DF
:1045D00000366E010048E801006CDC0200000000BB
:1045E00001020304444D415F53656D6170686F7251
:1045F000650000006C63645F7461736B0000000011
:104600006C65645F7461736B000000002C460008E9
:1046100000000020F4000000C42A00082047000821
:10462000F400002094060000D42A000800000000D6
:104630000000000000000000010000001000000069
:104640000000000000093D00000000000000000024
:10465000000000000000000000000000000000005A
:10466000000000000000000000000000000000004A
:10467000000000000000000000000000000000003A
:10468000000000000000000000000000000000002A
:10469000000000000000000000000000000000001A
:1046A000000000000000000000000000000000000A
:1046B00000000000000000000000000000000000FA
:1046C00000000000000000000000000000000000EA
:1046D00000000000000000000000000000000000DA
:1046E00000000000000000000000000000000000CA
:1046F00000000000000000000000000000000000BA
:1047000000000000000000000000000000000000A9
:104710000000000000000000000000000000000099
:040000050800018D61
:00000001FF
