:020000040800F2
:10000000883E0020A50100080B2E00084F1F0008A5
:10001000092E00088B0400081938000800000000B1
:100020000000000000000000000000007D32000819
:10003000C7040008000000003502000881320008F3
:10004000BF010008BF010008BF010008BF01000890
:10005000BF010008BF010008BF010008BF01000880
:10006000BF010008BF010008BF010008BF01000870
:10007000BF010008BF010008BF0100088D0400088F
:10008000BF010008BF010008BF010008BF01000850
:10009000BF010008BF010008BF010008BF01000840
:1000A000BF0100083D330008BF010008BF01000880
:1000B000BF0100080000000000000000BF010008B0
:1000C000BF010008BF010008BF010008BF01000810
:1000D000B52F00080D380008BF010008BF01000857
:1000E000BF010008BF010008000000000000000080
:1000F0000000000000000000000000000000000000
:1001000000000000BF01000800000000BF0100085F
:100110000000000000000000BF010008BF0100084F
:10012000BF010008BF010008BF010008BF010008AF
:10013000BF010008000000000000000000000000F7
:10014000BF010008BF010008BF0100080000000057
:10015000BF010008BF010008BF010008BF0100087F
:10016000BF010008BF010008BF0100080000000037
:10017000BF010008BF0100080000000000000000EF
:10018000BF010008BF010008BF010008DFF810D060
:1001900000F03EF900480047E5530108AFF3008046
:1001A000883E00200648804706480047FEE7FEE7F5
:1001B000FEE7FEE7FEE7FEE7FEE7FEE7FEE7FEE717
:1001C0002D3300088D01000872B6344834490268A6
:1001D00041EA0201016033484FF0010101603248F9
:1001E0004168016001688A884FF0100342EA030207
:1001F0008A80D1F800C00CF1240C0CF1040CBCE88E
:10020000FF008CF309884FF0020C8CF31488AE4683
:1002100062B63047EFF3108072B67047EFF310808C
:1002200062B6704780F31088704720484FF08051C5
:1002300001607047EFF3108C72B61D4A126822B14C
:100240002DE900509047BDE80050EFF309801EF003
:10025000100F08BF20ED108B40F804ED20E9F01FCF
:10026000114D4FF010082E683060B78827EA080754
:10027000B78068682860878847EA08078780016830
:1002800000F018B851F804EB1EF0100F08BF00F092
:1002900016B881F309888CF31088704720ED00E0D0
:1002A0000000FFFF5C0000206000002004ED00E083
:1002B0004400002030C9B1E8C01FFFF7E3BFB1EC34
:1002C000088BB1EC08CBFFF7E4BF2DE9F05F0546E2
:1002D000002092469B4688460646814640241BE005
:1002E000284641464746224600F081F853465A4682
:1002F000C01A914110D311461846224600F068F802
:100300002D1A67EB01084F4622460120002100F01C
:100310005FF817EB00094E41201EA4F10104DFDC59
:10032000484631462A46434600F000B830BCBDE896
:10033000C09F40EA01039B0703D009E008C9121FD0
:1003400008C0042AFAD203E011F8013B00F8013B8F
:10035000521EF9D27047D2B201E000F8012B491EBB
:10036000FBD270470022F6E710B513460A46044652
:100370001946FFF7F0FF204610BD421C10F8011B84
:100380000029FBD1801A704710B5002200E0521CF2
:10039000835C8C5CA34201D1002BF8D1D8B2E1B2CE
:1003A000401A10BD30B504460020034600E05B1C37
:1003B000934203D2E05CCD5C401BF8D030BD0346D5
:1003C00011F8012B00F8012B002AF9D118467047CB
:1003D000202A04DB203A00FA02F100207047914005
:1003E000C2F1200320FA03F3194390407047202AFA
:1003F00004DB203A21FA02F00021704721FA02F3CF
:10040000D040C2F1200291400843194670470000D5
:10041000064C074D06E0E06840F0010394E8070051
:1004200098471034AC42F6D3FFF7B4FE20DC010845
:1004300040DC010870B58C1810F8015B15F007035B
:1004400001D110F8013B2A1106D110F8012B03E06D
:1004500010F8016B01F8016B5B1EF9D12B0705D475
:100460000023521E0DD401F8013BFAE710F8013BBE
:10047000CB1A921C03E013F8015B01F8015B521EDA
:10048000F9D5A142D8D3002070BDFEE7014800F0A5
:1004900069B800003C02002030B590F8444004F0F8
:1004A0001C050124AC40056C6C60046863608368C3
:1004B000102B036803D099600068C26030BD9A6059
:1004C0000068C16030BD704772B6FEE710B590F8A5
:1004D00025100022022905D00421C16380F82420C0
:1004E000012010BD01680B6823F00E030B6001684A
:1004F0000B6823F001030B6090F84410046C01F0CA
:100500001C03012101FA03F3636080F8251080F8D1
:100510002420104610BD10B590F8251000240229A3
:1005200003D00421C16301241AE001680A6822F0A3
:100530000E020A6001680A6822F001020A6090F85F
:100540004410036C01F01C02012101FA02F25A600E
:1005500080F82510002180F82410816B01B18847B4
:10056000204610BDF0B4016C0C6801680D6890F86D
:10057000442002F01C06042202FA06F3234211D0A2
:100580006B070FD50B689B0603D40B6823F004039D
:100590000B6090F8441001F01C018A40016C4A6025
:1005A000016B1DE0022303FA06F727424FF0000C0F
:1005B0004FF0010218D0AF0716D50C68A40605D479
:1005C0000C6824F00A040C6080F8252090F8441090
:1005D00001F01C018B40016C4B6080F824C0C16AA3
:1005E00000291AD0F0BC08470823B340234214D096
:1005F0002B0712D50B6823F00E030B6090F8441004
:10060000036C01F01C0102FA01F15960C26380F829
:10061000252080F824C0416BE2E7F0BC7047000061
:1006200070B568B12B4C036814212B4AA34209D240
:100630002A4C1C44B4FBF1F18900C0E910210BE005
:10064000012070BD234C64421C44B4FBF1F18900CD
:100650004164204908390164022180F825101C6892
:1006600047F6F0718C43D0E902152943D0E90456CE
:100670003543294385692943C5692943056A2943C7
:10068000214319608168B1F5804F19D0036C0F21A7
:10069000934202D152F8A83F02E00E4AA0321368FA
:1006A00090F8444004F01C04A1408B43136090F880
:1006B0004430416803F01C039940136819431160EA
:1006C0000021C163012280F8252080F8241008460B
:1006D00070BD00000804024000000240F8FFFDBFAA
:1006E00070B5044690F82400002501280CD00120A4
:1006F00084F8240094F825600020012E06D084F8A8
:1007000024000225284670BD022070BD022684F810
:100710002560E0632068066826F001060660204632
:10072000FFF7BAFE206B00282068016802D041F074
:100730000E0106E021F0040101602068016841F02B
:100740000A0101602068016841F001010160D9E7F8
:100750002DE9F04FDFF8AC9100230325A9F1040B3C
:1007600085B04FF0010C0F2709F1040AABF1040E1C
:10077000BFE000BF0CFA03F6324075D00C7904F0EC
:100780000304012C01D0022C1BD1846800945C006E
:1007900005FA04F80494009C24EA08040094D1F8B3
:1007A0000C80049C08FA04F8009C48EA0408C0F88D
:1007B00008804468B4430E79C6F300169E40264371
:1007C00046600C79E443A4070AD0C4684FEA4308A2
:1007D00005FA08F6B4438E6806FA08F62643C660A2
:1007E0000C7904F00304022C10D1DC0800EB840423
:1007F0000294246A5E074FEAD66807FA08F6B44303
:100800000E6906FA08F62643029C266204684FEA3F
:10081000430805FA08F6B4430E7906F0030606FA13
:1008200008F6264306604C6814F4403F60D0364C0E
:10083000266E46F001062666246E23F0030604F0B9
:1008400001040094314C34440294A4689E074FEA9A
:10085000167807FA08F6B443B0F1904F05D02C4E45
:10086000B04204D1012612E042E000260FE0294EFA
:10087000B04201D102260AE0274EB04201D1032640
:1008800005E0264EB04201D1042600E0072606FA14
:1008900008F62643029CA660D9F800604C46D1F8C1
:1008A000048096435FEAC82800D516432660DAF82C
:1008B00000405646D1F8048094435FEA882800D56A
:1008C00014433460DBF800405E46D1F80480944362
:1008D0005FEA883800D514433460DEF8004076467D
:1008E000D1F8048094435FEAC83800D514433460DB
:1008F0005B1C0A6832FA03F47FF43CAF05B000F0E9
:100900000FB8000008040140001002400000014040
:100910000004004800080048000C0048001000488F
:1009200030BCBDE8C08F426921EA02030A4043EAB5
:100930000241816170470AB18161704781627047ED
:1009400001488068704700000C0000200248816860
:1009500002781144816070470C00002010B500241B
:10096000032000F089F8002000F008F808B1012405
:1009700001E000F03DF8204610BD000000B5014642
:1009800087B00022192000F057F8192000F046F82F
:100990001348016E41F400610166006E05A900F480
:1009A00000600690684600F0A3FA00F0D3FA0D4903
:1009B0000D4AB0FBF1F10D48491E0260416040F262
:1009C000E7320021C0E90321816000F0D5FF10B1BA
:1009D000012007B000BD054801F000F8F9E700006C
:1009E0000010024040420F00002C0140080300208C
:1009F000094808B5016E41F001010166016E01F080
:100A000001010091816D41F080518165806D00F0A0
:100A10008050009008BD000000100240002809DB53
:100A200000F01F02012191404009800000F1E02008
:100A3000C0F8001170470000F0B40E4B1B680C4664
:100A4000C3F30223C3F10705042D00D90425191DA2
:100A5000072901D2002300E0DB1E012606FA05F17A
:100A6000491E214099409E40761E16403143F0BCFD
:100A700002F0E4BE0CED00E0064900F00702086851
:100A80004FF6FF03184040EA0220034A1043086073
:100A9000704700000CED00E00000FA051649B0F5C3
:100AA000007F0868C0F3412009D0022805D00868FB
:100AB00020F4C06040F48060086000207047012886
:100AC000FBD0086820F4C06040F4007008600B4858
:100AD0003222006850430A4AB0FBF2F0401C00E0AA
:100AE000401E4A69520501D50028F9D148694005E0
:100AF000E3D503207047000000700040180000207C
:100B000040420F000248006800F4C06070470000D7
:100B1000007000402DE9F84F044600270088A84DDA
:100B20003E46000515D5606C60B1B0F5000F04D0ED
:100B3000B0F5400F2BD001270AE0E86840F4803080
:100B4000E86024E00021201D02F060F907001ED0BB
:100B50003E46206880033AD5A86D4FF00008C000DB
:100B600009D4A86D40F08050A865A86D4FF0010829
:100B700000F080500090DFF84CA2DAF8001041F449
:100B80008071CAF80010FFF7DBFE814610E0D5F84F
:100B90008800616C20F440000843C5F88800D8E75D
:100BA000FFF7CEFEA0EB0900022801D9032705E0DC
:100BB000DAF80000C005F3D5002F7DD04FEA070614
:100BC000B8F1000F03D0A86D20F08050A865207800
:100BD000C00707D0D5F88800216A20F00300084339
:100BE000C5F888002078800707D5D5F88800616AA5
:100BF00020F00C000843C5F888002078400707D58E
:100C0000D5F88800A16A20F030000843C5F88800B4
:100C10002078800607D5D5F88800E16A20F4406086
:100C20000843C5F888002088800507D5D5F88800D6
:100C3000E16B20F440200843C5F888002088400577
:100C400007D5D5F88800216C20F440100843C5F87A
:100C500088002078400607D5D5F88800216B20F45D
:100C600040500843C5F888002078000607D5D5F81D
:100C70008800616B20F440400843C5F88800208854
:100C8000C00507D5D5F88800A16B20F44030084393
:100C9000C5F8880020684FF0006700034FF08068B7
:100CA00050D5D5F88800A16C20F040600843C5F805
:100CB0008800A06CB84200E005E03BD1E86840F451
:100CC0008010E8603EE0D5F8900010F4407014D039
:100CD000A16D814211D0D5F89000D5F8901020F484
:100CE000407041F48031C5F89010D5F8901021F48F
:100CF0008031C5F89010C5F89000C00711D0FFF7FB
:100D00001FFE074641F2883907E000BFFFF718FED3
:100D1000C11B494501D9032652E7D5F89000800749
:100D2000F4D5D5F89000A16D20F440700843C5F8C3
:100D3000900045E7404505D10121201D02F066F8ED
:100D400000B106462068400317D5D5F88800E16C4D
:100D500020F040600843C5F88800E06CB84204D138
:100D6000E86840F48010E86007E0404505D10121C3
:100D7000201D02F04BF800B106462088400411D532
:100D8000D5F88800216D20F040500843C5F8880050
:100D9000206DB0F1805F05D10221201D02F036F8F0
:100DA00000B106462088000406D555F8880F616D0D
:100DB00020F0804008432860304600F005B800006D
:100DC000001002400070004018BCBDE8E08F000039
:100DD0002DE9F0470F46050058D0404E306800F02E
:100DE0000700B84209D2306820F00700384330606D
:100DF000306800F00700B84248D12878384CC00766
:100E00002CD06868032811D0022812D0216898B12C
:100E1000490500293ADAA16821F003010143A160E4
:100E2000FFF78EFD804641F2883910E02168890184
:100E3000EFE721688903ECE78907EAE7FFF780FD20
:100E4000A0EB0801494502D90320BDE8F087A0685E
:100E5000696800F00C00B0EB810FEFD128788007B3
:100E600005D5A068A96820F0F0000843A0603068AC
:100E700000F00700B8420BD9306820F00700384373
:100E80003060306800F00700B84201D00120DCE794
:100E90002878400705D5A068E96820F4E060084399
:100EA000A0602878000706D5A068296920F4605062
:100EB00040EAC100A06000F05FF8A168094AC1F3F0
:100EC0000311515C01F01F01C84007490860074841
:100ED0000068BDE8F047FFF751BD00000020024068
:100EE000001002409C96010818000020100000200D
:100EF0000F2202600C4A936803F003034360936877
:100F000003F0F0038360936803F4E063C3609268C6
:100F10004FF4E06303EAD20202610448006800F083
:100F200007000860704700000010024000200240E7
:100F30000548064900688968054AC1F30221515CE9
:100F400001F01F01C8407047180000200010024047
:100F5000DC9601080548064900688968054AC1F31E
:100F6000C221515C01F01F01C840704718000020E9
:100F700000100240DC96010870B525490023184690
:100F80008A68CC6812F00C0204F00306214C4FEA88
:100F9000640509D00C2A05D0042A32D0082A00D1D1
:100FA000284670BD012E10D10B681B0704D4D1F860
:100FB0009430C3F3032302E00B68C3F30313164E0C
:100FC00056F82330DAB10C2AEBD1C86800F00300E0
:100FD000022818D0032818D01846CA68CB68C2F374
:100FE0000212C3F306234343521CB3FBF2F2C86858
:100FF000C0F34160401C4000B2FBF0F070BD1846E9
:1010000070BD204670BD2046E7E72846E5E70000B2
:10101000001002400024F400AC9601082DE9F843CA
:1010200004006FD0FE4DA86800F00C06E86800F0E0
:1010300003072078C00664D576B10C2E01D1012FAC
:101040000AD0A069002828687AD040F00100286002
:10105000FFF776FC80465DE02868800702D5A0692E
:101060000028DED0216A2868000703D5286800F030
:10107000F00004E0D5F89400F02202EA101081425A
:1010800016D9084601F058FF00283BD1286840F0E7
:10109000080028602868216A20F0F00008432860D2
:1010A0006868E16920F47F4040EA0120686016E04A
:1010B000286840F0080028602868216A20F0F000C5
:1010C000084328606868E16920F47F4040EA012015
:1010D000686026B9206A01F02FFF0028D5D1FFF7FC
:1010E0004BFFA968CF4AC1F30311515C01F01F0106
:1010F000C840CD490860CD480068FFF73FFC002894
:101100007ED12EE0CAE000BFFFF71AFCA0EB08007A
:10111000022876D828688007F6D5286840F00800AD
:1011200028602868216A20F0F00008432860686879
:10113000E16920F47F4040EA0120686011E0FFE7A8
:1011400020F001002860FFF7FBFB804606E000BFAF
:10115000FFF7F6FBA0EB08000228DAD82868800722
:10116000F6D42078C00740D0082E18D00C2E01D11C
:10117000032F14D06068B0F5803F17D0B0F5A02FD2
:10118000286817D020F480302860286820F4802058
:1011900028606068E0B1FFF7D3FB804614E0286860
:1011A000800322D56068002878D01EE0286840F4CB
:1011B0008030EDE740F480202860F7E7FFF7C0FBC0
:1011C000A0EB08006428A4D828688003F6D50CE0BA
:1011D000FFF7B6FB804605E0FFF7B2FBA0EB080087
:1011E000642896D828688003F6D4207880073BD5F9
:1011F000042E11D00C2E01D1022F0DD0E06801E099
:10120000B6E1FFE0002828681ED040F48070286016
:10121000FFF796FB07460CE0286840050CD5E06810
:101220000028C1D008E000BFFFF78AFBC01B0228DE
:1012300093D828684005F7D56868217C20F0F850DD
:1012400040EA016068600FE020F480702860FFF7DA
:1012500077FB074605E000BFFFF772FBC01B0228C3
:10126000B1D828684005F7D42078000729D56069EF
:101270000028D5F8940012D040F00100C5F8940081
:10128000FFF75EFB074604E0FFF75AFBC01B02288E
:1012900099D8D5F894008007F6D512E02BE120F01C
:1012A0000100C5F89400FFF74BFB074605E000BFBF
:1012B000FFF746FBC01B022885D8D5F894008007AD
:1012C000F6D42078400766D5A86D0027C00008D462
:1012D000A86D40F08050A865A86D012700F08050EF
:1012E000009053480168C90512D40168814641F451
:1012F00080710160FFF724FB804605E0FFF720FBCB
:10130000A0EB080002287DD8D9F80000C005F5D56B
:10131000A068012816D00528D5F8900017D020F035
:101320000100C5F89000D5F8900020F0040000BF3F
:10133000C5F89000A06841F28839C0B1FFF700FB02
:1013400080460FE0D5F8900040F00100F0E740F053
:101350000400C5F89000F5E7FFF7F2FAA0EB0801EA
:1013600049454FD8D5F890008007F5D50EE0FFF736
:10137000E7FA804606E000BFFFF7E2FAA0EB0801BB
:1013800049453FD8D5F890008007F5D41FB1A86D26
:1013900020F08050A8652078800628D5606A002853
:1013A000D5F8980012D040F00100C5F89800FFF77A
:1013B000C7FA074605E000BFFFF7C2FAC01B0228C4
:1013C00020D8D5F898008007F6D510E020F001006D
:1013D000C5F89800FFF7B4FA074604E0FFF7B0FA43
:1013E000C01B02280ED8D5F898008007F6D4A06A52
:1013F000A8B1022824D00C2E7DD0286820F080705F
:10140000286000E0B3E02868000103D4E86820F019
:101410000300E860E86807490840E8600CE09FE0E6
:10142000001002409C9601081800002010000020C7
:1014300000700040FFFFEEFEFFF782FA044699E0DD
:10144000E868E26A00F00301914226D1216B00F0C6
:1014500070020901103991421FD1626B00F4FE4104
:10146000B1EB022F19D194F8382000F07841B1EB9C
:10147000C26F12D1A18F00F4C00249084905A1F53D
:101480000011914209D194F8401000F0C060490861
:101490004906A1F1007181424BD00C2E6FD0286813
:1014A00040016CD4286820F080702860FFF748FA6B
:1014B000064604E0FFF744FA801B022857D8286844
:1014C0008001F7D4F4E90B016FF00F0202EB011178
:1014D0000843218A5204490802EB4151A26841EABB
:1014E00002210843217D4FF07E42490802EB416111
:1014F0000843217B00E042E040EAC160E968214AFC
:1015000011400843E860286840F080702860E8686F
:1015100040F08070E860FFF713FA044605E000BF72
:10152000FFF70EFA001B022821D828688001F7D5A2
:1015300023E02868800120D4286840F0807028606B
:10154000E86840F08070E860FFF7FAF9044604E0CC
:10155000FFF7F6F9001B022809D828688001F7D5A3
:101560000BE000BFFFF7ECF9001B022802D90320B3
:10157000BDE8F88328688001F4D40020F8E7012052
:10158000F6E700008C809D017047000038B50168C7
:1015900004464A688868C043430606D5C30704D199
:1015A000D3435B0601D4E16C05E0830708D4D34341
:1015B0001B0605D4216D01B02046BDE83040084728
:1015C000830603D5430601D5C30551D4D3439B06F7
:1015D0004ED443060AD494F85D30032B49D0236ED1
:1015E00043F004032366CB688B680093830609D419
:1015F000236E43F0010323668B6800930B6823F08E
:1016000040030B60C00506D4206E40F00800206641
:10161000206880680090206E002829D020684168EA
:1016200021F0E0014160012084F85D00900701D4C1
:10163000D00722D02068416821F003014160114D9C
:10164000A06D40B18563A06DFEF765FF18B1206EF7
:1016500040F040002066606D002809D08563606D11
:10166000FEF759FF002803D0206E40F040002066AE
:1016700038BDC8688868009038BD2046FFF784FFF1
:1016800038BD0000C12F000870B5040009D0606AA1
:10169000002540B125616561A56294F85D0040B107
:1016A0000CE0012070BD6068B0F5827FF4D0E56188
:1016B000F2E784F85C50204600F056F8022084F8E7
:1016C0005D002068016821F040010160E1684FF48D
:1016D000E062914201D9002001E04FF48050B1F561
:1016E000706F02D0914200D0A562A188228901F4D6
:1016F000827102F404421143227C02F0020211437F
:10170000227D02F001021143228B02F40072114388
:10171000227F02F03802114394F8202002F0800268
:101720001143228D02F40052114322681160A16915
:10173000042202EA114194F8242000F4805002F0BF
:101740001002114394F8342002F008021143A289D8
:1017500002F4706211430143206841602566012054
:1017600084F85D00002070BD2DE9F04186B006468A
:1017700014216846FEF7F6FD2949306888424BD1AE
:101780002849886D40F480408865886D00F4804069
:101790000590C86C40F00400C864C86C00F00400F8
:1017A0000590C86C40F00200C864C86C052700F0C2
:1017B000020005900820022400254FF0030804973A
:1017C0008DE8310169461848FEF7C2FF20030497EF
:1017D0008DE8310169461548FEF7BAFF154C1448EB
:1017E0002060012060601020C4E902058020C4E967
:1017F0000405A561E56120462562FEF711FF08B1E9
:10180000FEF762FE7465002211462420A662FFF7EF
:1018100013F92420FFF702F906B0BDE8F0810000BB
:101820000038004000100240000800480004004852
:10183000580002403C0200202DE9F041044690F897
:101840005C000026012809D0012784F85C7094F818
:101850005D000025012804D0022670E00220BDE8CA
:10186000F08199B192B1032084F85D002566A163EF
:10187000A287E28725642565E564A4F84450A4F8AE
:101880004650A068B0F5004F02D00BE0012656E0AC
:101890002068016821F0400101602068016841F47E
:1018A00080410160616D28480863616D2748C86206
:1018B000616D27484863606D85632068416821F445
:1018C00080414160E068B0F5E06F10D8606D8069DC
:1018D000B0F5806F0BD1E08FC0072068416816D04B
:1018E00041F480414160E08F07EB5000E087E38FD7
:1018F0002268A16B0C32606DFEF7F2FE68B1206EBB
:1019000040F010002066012684F85D7017E021F495
:1019100080414160E08F4008E8E72068016849069F
:1019200003D4016841F0400101602068416841F042
:10193000200141602068416841F00201416084F863
:101940005C5030468BE70000F52F0008FF2F0008A1
:10195000D32F0008044900680968884203D103486E
:10196000006814F0FFBE7047D8010020000000207E
:10197000704770477047704710B5040003D094F863
:101980003D0010B107E0012010BD002084F83C00AC
:10199000204600F022F8022084F83D00211D206836
:1019A00001F0D8FC012084F8480084F83E0084F857
:1019B0003F0084F8400084F8410084F8420084F835
:1019C000430084F8440084F8450084F8460084F815
:1019D000470084F83D00002010BD704790F83D108E
:1019E000012901D001207047022180F83D100168D3
:1019F000CA6842F00102CA6000680B49884205D0FB
:101A0000B0F1804F02D00949884207D18168084A65
:101A10001140062906D0B1F5803F03D0016841F09E
:101A20000101016000207047002C0140004001408E
:101A300007000100704770B50446006801694FF067
:101A40000005C943890715D4C168C943890711D462
:101A5000E91E016101202077206880698007204607
:101A600002D0FFF7E7FF04E000F0A7F8204600F0FF
:101A7000A5F8257720680169C943490717D4C168CB
:101A8000C943490713D46FF0040101610220207794
:101A90002068806910F4407F204602D0FFF7CAFF1B
:101AA00004E000F08AF8204600F088F825772068E6
:101AB0000169C943090716D4C168C943090712D48B
:101AC0006FF008010161042020772068C069800759
:101AD000204602D0FFF7AEFF04E000F06EF820468B
:101AE00000F06CF8257720680169C943C90617D44E
:101AF000C168C943C90613D46FF010010161082001
:101B000020772068C06910F4407F204602D0FFF79C
:101B100091FF04E000F051F8204600F04FF82577DF
:101B200020680169C943C90708D1C168C943C90709
:101B300004D1891E0161204600F042F82068016945
:101B4000C943090609D4C168C943090605D46FF021
:101B5000800101612046FFF70DFF20680169C9433C
:101B6000C90509D4C168C943090605D46FF4807159
:101B700001612046FFF7FDFE20680169C94349065F
:101B800009D4C168C943490605D46FF04001016119
:101B9000204600F01FF820680169C94389060BD46C
:101BA000C168C943890607D46FF02001016120464E
:101BB000BDE87040FFF7DFBE70BD704770470000A2
:101BC00000680349884201D1FEF7C0BE704700009B
:101BD000002C014070477047704770472DE9F04175
:101BE00002680446D0691168936840F60F052842E0
:101BF0004FF0000505D186067ED58E067CD5616E38
:101C00001BE1994F03F001060F40374374D0C7071B
:101C100009D0CF0507D501271762D4F8802042F0FC
:101C20000102C4F8802082070AD5DA0708D02768A5
:101C300002223A62D4F8802042F00402C4F88020E4
:101C400042070AD5DA0708D0236804221A62D4F8BA
:101C5000802042F00202C4F8802002070CD501F077
:101C60002002324308D0236808221A62D4F8802068
:101C700042F00802C4F8802002050BD54A0109D5BC
:101C800023684FF400621A62D4F8802042F02002E8
:101C9000C4F88020D4F88020002A35D0800605D5ED
:101CA000880603D5616E09B120468847D4F88000C4
:101CB00021688968490602D410F0280F26D02046F2
:101CC00001F01AFC2068806840061AD520680830A8
:101CD00050E8001F21F0400140E80012002AF5D131
:101CE000206F70B161498163206FFEF714FC0028FA
:101CF0000AD0206F816B01E00EE02046BDE8F04184
:101D000008472046FFF769FFBDE8F0812046FFF74E
:101D100064FFC4F88050F7E7276E2026012F7BD19F
:101D2000C70679D5CF0677D5102010622068806865
:101D3000400641D5216F086840680004000CE3D0DC
:101D4000B4F858208242DFD9A4F85A000868006825
:101D500080062AD4206850E8001F21F4807140E8F2
:101D60000012002AF6D12068083050E8001F21F048
:101D7000010140E80012002AF5D12068083050E83F
:101D8000001F21F0400140E80012002AF5D1E6676B
:101D90002566216851E8000F20F0100041E800029C
:101DA000002AF6D1206FFEF791FBB4F85800B4F882
:101DB0005A10401A81B22AE0B4F85800B4F85A1008
:101DC000401A81B2B4F85A0000289DD000299BD057
:101DD000226852E8000F20F4907042E80003002BC4
:101DE000F6D12068083050E8002F22F0010240E8C8
:101DF0000023002BF5D1E66725666566226852E868
:101E0000000F20F0100042E80003002BF6D120461E
:101E1000FFF7E1FE78E7FFE7C70209D55B0207D5C8
:101E20004FF4801010622046BDE8F041FFF7D4BEA9
:101E3000020606D50A0604D5A16E00297FF45DAF1F
:101E400062E74006E6D54806E4D52046026852E837
:101E5000001F21F0400142E80013002BF6D18667F5
:101E6000856600F073F84FE720010004E5340008B0
:101E700010B5040002D0A06F10B107E0012010BD22
:101E8000002084F87400204600F026F82420A06783
:101E90002068016821F001010160204601F052FB39
:101EA0000128ECD0606A10B1204601F089FA206860
:101EB000416821F4904141602068816821F02A0145
:101EC00081602068016841F0010101602046BDE8A1
:101ED000104001F0D9BA000010B586B004461421B4
:101EE0006846FEF73FFA17492068884228D116480D
:101EF000016E41F480410166016E01F4804105915B
:101F0000C16C41F00101C164C06C694600F0010080
:101F100005904FF4C06000900220019000200290D4
:101F200003200390072004904FF09040FEF710FC30
:101F3000002211462520FEF77FFD2520FEF76EFDCD
:101F400006B010BD00380140001002407047FEE7A7
:101F50002DE9F04107461C4615460E462A2000F0A2
:101F6000FDF8380A00F008F9F8B200F005F9280A7F
:101F700000F002F9E8B200F0FFF82B2000F0EEF8D4
:101F8000300A00F0F9F8F0B200F0F6F8200A00F09C
:101F9000F3F8E0B200F0F0F8BDE8F0412C2000F0DA
:101FA000DDB8000070B56B4D4FF4004400222146AF
:101FB0002846FEF7C0FC684E002280213046FEF71E
:101FC000BAFC642013F00FFF012280213046FEF797
:101FD000B2FC782013F007FF112000F0BFF8782042
:101FE00013F001FF362000F0B9F8002000F0C4F82B
:101FF0003A2000F0B3F8652000F0BEF8B22000F0FF
:10200000ADF80C2000F0B8F80C2000F0B5F8002076
:1020100000F0B2F8332000F0AFF8332000F0ACF855
:10202000B72000F09BF8722000F0A6F8BB2000F06B
:1020300095F83D2000F0A0F8C02000F08FF82C208B
:1020400000F09AF8C22000F089F8012000F094F81E
:10205000C32000F083F8192000F08EF8C42000F0AF
:102060007DF8202000F088F8C62000F077F80F20D7
:1020700000F082F8D02000F071F8A42000F07CF885
:10208000A12000F079F8E02000F068F8D02000F0FE
:1020900073F8042000F070F80D2000F06DF81120A6
:1020A00000F06AF8132000F067F82B2000F064F8C5
:1020B0003F2000F061F8542000F05EF84C2000F062
:1020C0005BF8182000F058F80D2000F055F80B20B0
:1020D00000F052F81F2000F04FF8232000F04CF8D9
:1020E000E12000F03BF8D02000F046F8042000F09A
:1020F00043F80C2000F040F8112000F03DF81320C8
:1021000000F03AF82C2000F037F83F2000F034F8C7
:10211000442000F031F8512000F02EF82F2000F07C
:102120002BF81F2000F028F81F2000F025F82020B1
:1021300000F022F8232000F01FF8212000F00EF814
:10214000292000F00BF821462846BDE87040012206
:10215000FEF7F1BB000400480008004801B500226A
:1021600040210448FEF7E7FB0121684601F06EF8C4
:1021700008BD00000008004801B5012240210448C4
:10218000FEF7D9FB0121684601F060F808BD0000A8
:10219000000800484218491E521E824202D922EA13
:1021A00001007047884370470A46012114F01EBAA7
:1021B00038B5054D0C4604992D6815B1009121469E
:1021C000A847002038BD0000E400002010B52049D9
:1021D0001020086020491F48086013F0DFFF04004A
:1021E00007D01EA001F01AFB21461EA001F016FB2D
:1021F00025E014F0A5FD040004D018A001F00EFBAA
:102200001FA01AE014F006FE14F03EFA002817D1C1
:1022100013F0CEFF002813D114F0CCF8040004D042
:102220000EA001F0FBFA1BA007E014F095FB0400E0
:1022300007D00AA001F0F2FA1BA001F0EFFA204645
:1022400010BD14F0EFFFBDE8104013F053BF0000C5
:1022500050000020883E0020E80000205B455252DC
:102260005D2000006F734D656D53797374656D4922
:102270006E6974206572726F722025640A00000016
:102280006F735461736B496E6974206572726F72FB
:102290000A0000006F735175657565496E69742099
:1022A0006572726F720A00006F735377546D7249D2
:1022B0006E6974206572726F720A00004268C1E92B
:1022C000000242681160416070474268C1E9000243
:1022D00042681160416070474268C1E9000242688B
:1022E0001160416070474268C1E9000242681160B4
:1022F00041607047D0E900121160D0E900124A60D5
:1023000000214160016070470068FFF7D7BF70B5DA
:1023100005000C464FF000000CD0002C0AD02846D7
:1023200014F08DFA002805D121462846BDE87040FA
:1023300013F062BD70BD13F0EFBD70B50C46050023
:102340000AD04CB114F0ACFA012807D02146284637
:1023500013F000FE012801D0012070BD002070BDE7
:102360002DE9F84FDFF898A00F460500DAF8004095
:10237000A04603D0502F01D9A80702D0012000F0B9
:102380005DB8FDF747FF8146EE1918E0A068A54249
:10239000204401D8A64203D885420ED286420CD3EF
:1023A00018A001F03BFAA068324620440090234672
:1023B000294616A001F032FA1BE0A046E468002C82
:1023C000E4D13946284613F047FE90B1B7F5805F57
:1023D00003D3284614F094FA58B1DAF8001061B12A
:1023E000C8F80C500020E8604846FDF71BFF0020AD
:1023F000C5E74846FDF716FFC0E7CAF80050F1E709
:10240000E00000205B4552525D200000706F6F6C51
:10241000205B25702C20307825782920636F6E662C
:102420006C696374207769746820706F6F6C205BCF
:1024300025702C2030782578290A000018BCBDE8CA
:10244000E08F00002DE9F0470D4608985FEA020989
:1024500000F104018FB206D04FF6FB71884205D916
:102460002648BDE8F08725480930FAE7E5B1D8B13C
:10247000DFF88C8005FB07F1D8F80000FFF747FF75
:10248000060014D0FDF7C6FE1E4A01465068904271
:1024900010D10846FDF7C6FE3146D8F80000FFF718
:1024A0004CFF1648401CDCE714480A30D9E71348B3
:1024B000401ED6E7D0E90023A0F11C041A60D0E941
:1024C00000235360E5802781012326600022A3803A
:1024D00022826582A281E281A0F10802526012602C
:1024E000406000600830406000600846FDF79AFEDA
:1024F00061890020C9F80010B3E70000030600025C
:10250000E8000020BC000020F8B51C4615460E4629
:10251000074614F035F8002806D100212B46324634
:102520003846009413F074FFF8BD7FB582B01C46A6
:102530000D46064604AA14F03DF8002806D10321F2
:1025400004AB2A463046009413F062FF06B070BD1B
:1025500010B5FDF75FFE044613F0B6FE0A492838B1
:1025600048600968814202D00848008820B12046AE
:10257000BDE81040FDF756BE2046FDF753FEBDE80E
:102580001040FDF752BE0000600000204000002017
:102590000A464FF6FF7114F029B800002DE9F84300
:1025A0000026324FDFF8C8808946142804D3002360
:1025B0003C463A46009650E02E49096801EB00146B
:1025C000FDF728FE0546208838B1608848B1401ED6
:1025D00060802846FDF726FE46E02846FDF722FEED
:1025E000E5E7B9F1000F09D013F0A4FD48B11F4C85
:1025F00021A0241D01F012F921A00BE01B4CE41CCA
:1026000025E02848008840B1184C1BA0641D01F04B
:1026100005F925A001F002F919E02C484A460821E5
:10262000076804F10800BC6114F002FD2846FDF7BC
:10263000F9FDFFF78DFF3879400615D5FDF7EAFD66
:102640000546B888094C20F04000B880A41D2846F3
:10265000FDF7E8FD00232246009641461CA0FFF747
:10266000A7FD2046BDE8F8830020FBE70107000234
:10267000F8C3B2A1C40000205B4552525D200000A7
:102680002121214C4F535F4552524E4F5F53454DD0
:102690005F50454E445F494E544552522121210A14
:1026A00000000000400000202121214C4F535F45D5
:1026B00052524E4F5F53454D5F50454E445F494E19
:1026C0005F4C4F434B2121210A0000006000002095
:1026D0006F735F756E73706563696669635F666962
:1026E0006C6500002DE9F8432149224F1428096840
:1026F00001EB001402D33846BDE8F883FDF78AFDEC
:1027000006462088DFF87080002588B1A08861889F
:10271000884215D13046FDF785FD164C0023E41D97
:1027200022460095414615A0FFF742FD2046E3E70B
:102730003046FDF777FD00233C463A460095F1E729
:10274000E06804F1080290420BD040F8105C0821C8
:10275000283814F093FC3046FDF764FDFFF7F8FECF
:1027600004E0491C61803046FDF75CFD0020C3E7B2
:10277000C400002001070002F8C3B2A16F735F75A7
:102780006E73706563696669635F66696C65000096
:1027900010B514F0D9FC040006D005A001F03EF8F5
:1027A00005A001F03BF801E0FDF70EFD204610BD4D
:1027B0005B4552525D2000006F735469636B537424
:1027C000617274206572726F720A000070B50446FF
:1027D00000F034F8002829D1174D2068C0EBC00064
:1027E000E96800EB400001EB8004FDF713FD0646AD
:1027F000A08820F0020040F00400A080E18804F1ED
:10280000280013F01DFD13F05FFD05F120012838AD
:102810004860EA695AB12A884AB90968814206D0F3
:102820003046FDF7FFFC13F0DFFE002070BD3046A0
:10283000FDF7F8FCF9E70000400000202DE9F04723
:102840000D465FEA00084FF0FF3A16D0C5B128697F
:10285000C8B12968D1B1AA8846481F2A0BD802D12D
:10286000454A914207D14549454AE868511A88428C
:102870000FD940481D30BDE8F0873E48001DFAE7FB
:102880003C48801EF7E73B48801CF4E73948401C71
:10289000F1E710B94FF43470E8600821FFF77AFCD3
:1028A000E860B0F5987F02D23248C01CE3E7FDF73C
:1028B000B1FC06464FF00009324C10E0A1F12807A8
:1028C0000846FFF717FD2F4807F128010838FFF7E2
:1028D000F5FC2A48F968FFF730FDC7F80C906168ED
:1028E000A142EBD1274908394868884202D1214CDE
:1028F0000E3439E0A0F12804FFF7FCFC3046FDF768
:1029000091FC276908221D48E968FFF714FD0600BD
:1029100020D002463846E96814F08CFC2060A86894
:10292000E6602062E868C4F81890C4F81C900221A0
:10293000A060A180A988E1802968C4F83CA0C4F8FF
:10294000489061612969C4F8509061620020C8F81C
:10295000007090E7FDF75EFC06460A4804F1280186
:102960000838FFF7ABFC084C3046FDF75BFC20460F
:1029700081E7000003020002F1600108883E0020A8
:1029800000A00020780000200002000370B505467A
:1029900013F0D0FB08B1154870BD1548008808B188
:1029A000144870BDEDB1FDF735FC114C06462034DE
:1029B0002068283013F028FC2068818821F0040169
:1029C00081802946206814F061F92068818841F0EF
:1029D000200181803046FDF725FCFFF7B9FD00207E
:1029E00070BDBDE8704000F0A3B800000D02000308
:1029F000400000200E0200022DE9F047494D074635
:102A00004FF0FF3A6869874202D14748BDE8F08736
:102A1000A869874202D144480D30F7E72869874208
:102A200002D341480D38F1E7FDF7F4FB8046C7EBD0
:102A3000C700E96800EB400001EB8004A688F007BE
:102A400006D0394C40460A3CFDF7ECFB2046DDE75A
:102A5000F0064FF0000903D5288808B1A5F80090CA
:102A6000700708D504F1280013F0CEFBA08820F0F1
:102A70000400A08007E042F20800064203D004F1FF
:102A80002800FFF737FC16F0600F02D0204614F044
:102A900093FBA08820F0020040F00100A080C4F861
:102AA0003CA0C4F8489013F00FFC1E4E4FF0010AF2
:102AB0002036283870602079C0061FD504F128011F
:102AC00006F11800FFF720FC2869E968C0EBC00098
:102AD00000EB400001EB8000306007613168A088A6
:102AE00088803068E168C160616A4162A4F804A02E
:102AF0004046FDF797FB13F077FD10E00948A4F876
:102B000004A004F128013030FFF7D8FB0748E16842
:102B1000FFF713FC4046C4F80C90FDF783FB002040
:102B200074E700004000002014020002883E0020EC
:102B300070B5194CA4F12002206812690169914214
:102B400001D3164870BD0079400701D4002070BD44
:102B5000FDF760FB05462068C08813F0A3FB012841
:102B600013D920682830FFF7C5FB2068818841F021
:102B7000040181802068C188283013F061FB284659
:102B8000FDF750FBFFF7E4FCE0E72846FDF74AFBC2
:102B90000248093070BD00006000002007020002FA
:102BA0000149D1E900017047980000201CB5FFF7EA
:102BB000F9F90EF0D7FB11F06FF9684611F0EEFE4F
:102BC000002422462146684611F0B2FF052200216A
:102BD000684611F0D0FF244D002168462A6811F0A4
:102BE000B6FF01A811F0DAFE2246002101A811F07B
:102BF0009FFF0522002101A811F0BDFF002101A8BF
:102C00006A6811F0A4FF11F0A3FE00210EF0B0FFDE
:102C100000220446114610F0FBFD782211462046A2
:102C200010F06EFE6A46002120460EF073FD11F092
:102C30008FFE00210EF09CFF78220446114610F012
:102C4000E7FD78221146204610F05AFE01AA002125
:102C500020460EF05FFD4FF47A7400BF12F012F9B7
:102C6000204613F0C0F8F9E73C960108064D4FF4F2
:102C700000544FF47A7621462846FDF754FE30463C
:102C800013F0B1F8F7E7000000080048094808B55C
:102C9000816C41F001018164806C002200F0010030
:102CA000009011460F20FDF7C7FEBDE808400F2039
:102CB000FDF7B4BE001002402DE9F04186B01421AA
:102CC0006846FDF74FFB2A48C16C41F00401C1641E
:102CD000C16C01F004010591C16C41F08001C16437
:102CE000C16C01F080010591C16C41F00201C16429
:102CF000C16C01F002010591C16C41F00101C16498
:102D0000C06C012200F00100DFF8688054030590D8
:102D100021464046FDF70FFE174FA6000022314620
:102D20003846FDF708FE0022C0214046FDF703FEAD
:102D30000125CDE9004500240294694640460394EC
:102D4000FDF706FDCDE900650326CDE9024669469B
:102D50003846FDF7FDFCC020CDE90005CDE902466F
:102D600069464046FDF7F4FC06B0BDE8F08100007E
:102D7000001002400008004800040048124810B546
:102D8000104901604FF48271416000214FF4E0620C
:102D9000C0E9021202220261012242615202C0E92C
:102DA0000621016207224162C0E90A120163416300
:102DB000FEF76AFC002803D0BDE81040FDF784BB95
:102DC00010BD000000380040D80100200D4810B5AB
:102DD0000B4901604FF4E1314160002181600C2218
:102DE000C160C0E904128161C16101624162FFF703
:102DF0003FF8002803D0BDE81040FDF765BB10BDCB
:102E00000038014084020020FEE7FEE72DE9F04192
:102E1000444C05468846E0680026810728680DD0A6
:102E2000E16801F00301814216D1A8B1E068696848
:102E3000C0F30210401C88420ED120E0012804D0CB
:102E4000022805D0032807D108E02168890701E09E
:102E500021684905002907DB01265FE02168890315
:102E600002D421684903F5E7E1686A686FF00F034F
:102E700021F0730103EB021211430143E16020686A
:102E800020F080602060FDF75BFD074605E000BF95
:102E9000FDF756FDC01B022837D820680001F7D483
:102EA000B8F1000F18D0B8F1010F1DD0287D4FF0F8
:102EB0007E41400801EB4060A96840EA0120216999
:102EC000194A114008432061206840F0806020606A
:102ED000FDF736FD07461AE0A868297B000240EAA4
:102EE000C1602169114AECE7288A1149400801EBC9
:102EF0004050A96840EA012021690E4AE1E700BF7D
:102F0000FDF71EFDC01B022801D9032606E020683C
:102F10000001F5D52069A969084320613046BDE864
:102F2000F081000000100240FF80FFF9FF80FF07E2
:102F30000000E0FFFF809FFFF8B51C4D064600240F
:102F4000A86DC00002D5FDF7DDFD0DE0A86D40F0D5
:102F50008050A865A86D00F080500090FDF7D2FD6C
:102F6000A96D21F08051A965B0F5007F04D0802EB5
:102F700007D94FF003040AE0802E08D9A02E01D80B
:102F800004E001D1022402E0702E00D1012408489F
:102F9000016821F0070121430160006800F007008B
:102FA000A04201D00120F8BD0020F8BD0010024071
:102FB000002002400148FEF7E9BA0000D8010020D5
:102FC00010B5806A0021A0F84610C187FEF7DCFA30
:102FD00010BD10B5806A01684A6822F003024A6099
:102FE000016E41F010010166012180F85D10FEF7CD
:102FF000CBFA10BD10B5806AFEF7BAFC10BD38B52B
:103000000546846AFDF79CFC024628680068800635
:1030100023D42068416821F0200141602068416884
:1030200021F0020141606421204600F01AF818B135
:10303000206E40F020002066A068002118B92068AA
:10304000C26880680090E187012084F85D00206EEE
:1030500018B12046FEF798FA38BD2046FEF77AFCF4
:1030600038BDF8B515460E460B46009204460022C0
:103070004FF4C05100F01AF888B93346002280217D
:103080002046009500F086F848B9334600224FF4F8
:10309000C0612046009500F009F8002804D0206E99
:1030A00040F0200020660320F8BD00002DE9FE4F0F
:1030B0004FF0000A984617460E4604460C9D8DF8C0
:1030C00004A0FDF73DFC411BA8EB0105FDF738FC12
:1030D000814620684FF4C06B0C3002902A4800688B
:1030E000C0EBC00000EB8000000D6843009043E09F
:1030F0005E4506D12FB9029800788DF804009DF83E
:103100000400B8F1FF3F37D0FDF71AFCA0EB09002F
:10311000A84203D215B1009858B32BE0206841684B
:1031200021F0E00141606068B0F5827F0BD1A068BA
:10313000B0F5004F02D0B0F5806F04D1206801686F
:1031400021F040010160A06AB0F5005F09D120685C
:10315000016821F4005101602068016841F40051C8
:103160000160012084F85D0084F85CA0032000F079
:103170000DB80025401E0090206880683040B8429D
:10318000B6D10020F3E70000180000201EBCBDE807
:10319000E08F00002DE9F8431E469146884604461C
:1031A000089DFDF7CDFB401B351AFDF7C9FB07460F
:1031B00025480068C0F3CB30684338E0701C37D036
:1031C000FDF7BEFBC01BA84203D215B1009860B347
:1031D0002CE02068416821F0E00141606068B0F5B2
:1031E000827F0BD1A068B0F5004F02D0B0F5806FA0
:1031F00004D12068016821F040010160A06AB0F5A7
:10320000005F09D12068016821F400510160206845
:10321000016841F400510160012084F85D00002044
:1032200084F85C000320BDE8F8830025401E009070
:103230002068816838EA010004D000214945BDD1E9
:103240000020F0E70121F9E71800002070B50546DD
:1032500008480C464FF6FF71006813F03FFA08B1BA
:10326000012070BD22462946BDE870400248FEF7A5
:10327000E3BA000000000020D801002070470000E1
:103280000648006808B113F04BBF0548D0E90012AA
:10329000491C42F10002C0E900127047880000207A
:1032A0009800002030B5ADB044216846FDF75AF8CB
:1032B000142128A8FDF756F85C2111A8FDF752F853
:1032C00001252804CDE90050022003241421CDE972
:1032D0000C51CDE90A040721CDE90E101090684683
:1032E000FDF79CFE08B172B6FEE70F20CDE9280479
:1032F00000242A942B94042128A82C94FDF768FD1F
:1033000008B172B6FEE711A811951994FDF702FCF9
:1033100008B172B6FEE74FF40070FDF7BFFB00285E
:1033200001D072B6FEE72DB030BD00000248016842
:1033300041F470010160704788ED00E010B5044869
:10334000FEF779FBBDE81040012011F001BF00003D
:103350000803002070B50268164B4FF08046984273
:1033600001D0B04203D122F070044A682243124CCB
:10337000124D984205D0B04203D0A04201D0A842DD
:1033800003D122F44076CA6832434E6922F08002AB
:10339000324302608A68C2620A688262984203D03D
:1033A000A04201D0A84201D1096901630121416114
:1033B00070BD0000002C014000400140004401406D
:1033C00090F82410C90706D001684A68836A22F47D
:1033D00000321A434A6090F82410890706D5016824
:1033E0004A68C36A22F480321A434A6090F8241073
:1033F000490706D501684A68036B22F480221A4304
:103400004A6090F82410090706D501684A68436BA2
:1034100022F400421A434A6090F82410C90606D5E7
:1034200001688A68836B22F480521A438A6090F89C
:103430002410890606D501688A68C36B22F40052FD
:103440001A438A6090F82410490611D501684A6829
:10345000036C22F480121A434A60016CB1F5801F9C
:1034600006D101684A68436C22F4C0021A434A60DC
:1034700090F82410090606D501684A68806C22F489
:10348000002202434A607047F8B500260446C0F89F
:103490008060FDF755FA0546206800686FF07E47AA
:1034A000000708D52B4600224FF400112046009754
:1034B00000F048F960B92068006840070AD52B463B
:1034C00000224FF480012046009700F03BF908B13C
:1034D0000320F8BD2020A067E067266684F87460AA
:1034E0000020F8BD10B5806A0021A0F85A10A0F89D
:1034F0005210FEF772FB10BD016851E8002F22F454
:10350000907241E80023002BF6D10168083151E8A0
:10351000002F22F0010241E80023002BF5D1016EBB
:10352000012908D1026852E8001F21F0100142E889
:103530000013002BF6D12021C167002101664166EE
:10354000704700002DE9F041044601688068226957
:10355000E3691043626900251A431043714F0A68FA
:10356000714B1A4002430A6020684168E26821F406
:103570004051114341602168A069B94201D0226ADB
:1035800010438A6822F4306202438A6067492368E4
:1035900067488B420DD1D0F8880010F0030006D0A8
:1035A000012847D0022843D0032830D144E001212C
:1035B0002EE060498B420BD1D0F8880010F00C004F
:1035C00034D0042836D0082832D00C281FD133E05C
:1035D00059498B420BD1D0F8880010F0300025D02B
:1035E000102827D0202823D0302810D124E0BB4237
:1035F0000DD1D0F8880010F4406017D0B0F5806F7E
:1036000018D0B0F5006F13D0B0F5406F14D0102172
:103610004A4A00264FF40040BB422FD171B1022923
:103620000FD004290FD0082973D10FE00021EFE754
:103630000221EDE70421EBE70821E9E7FDF778FC3B
:1036400003E0104602E0FDF797FCE8B3626802EB86
:10365000420181425DD8B0EB023F5AD8010E03020D
:103660005008181871410023FCF72FFE344AA0F5CA
:10367000407191424DD82168C8604BE0E3694FF634
:10368000EF77834228D1092943D2DFE801F005080A
:103690000B420D4242421000FDF74AFC06E0FDF7E6
:1036A00059FC03E0104602E0FDF766FC60B1410002
:1036B000606801EB5001B1FBF0F0A0F11001B942DC
:1036C00027D84FF6F07100E024E00140C0F342003B
:1036D00001432068C1601DE009291AD2DFE801F02A
:1036E00005080B190D1919191000FDF721FC06E04A
:1036F000FDF730FC03E0104602E0FDF73DFC48B169
:10370000616800EB5100B0FBF1F0A0F11001B9428B
:1037100005D9012566662846A666BDE8F08180B217
:10372000A9E7000000800040F369FFEF0038014086
:103730000010024000440040004800400024F40013
:10374000FFFC0F002DE9F0479A4617460E46044647
:103750004FF000094FF02008089D4AE0681C48D04F
:10376000FDF7EEF8A0EB0A00A8422AD84DB3206876
:10377000016849073DD5C069C043000539D42168B7
:103780004FF400600862206850E8001F21F4D071F7
:1037900040E80012002AF6D12068083050E8001FE7
:1037A00021F0010140E80012002AF5D1C4F8788028
:1037B000C4F87C80C4F8808084F874900320BDE84D
:1037C000F087216851E8000F20F4D07041E8000232
:1037D000002AF6D12068083050E8001F21F00101CE
:1037E00040E80012002AF5D1C4F87880C4F87C8043
:1037F000E2E72068C06936EA000004D00020B84241
:10380000ACD00020DBE70120F9E700000148FEF71B
:10381000E5B9000084020020FEE700000FB4054B6C
:1038200010B503A9044A029802F036FF10BC5DF8F7
:1038300014FB000025C30008D40100200907090E6D
:10384000002804DB00F1E02080F80014704700F04D
:103850000F0000F1E02080F8141D704702E008C856
:10386000121F08C1002AFAD170477047002001E0FA
:1038700001C1121F002AFBD1704770B50446002514
:103880006FF02F0608E02068411C2160007805EBEE
:10389000850106EB410145182068007800F004F826
:1038A0000028F0D1284670BD3038092801D8012001
:1038B000704700207047000010B54021074801F014
:1038C000C8F9002304221E21054811F00BFA054C0B
:1038D000A06003F01DFB0020207010BD2806002012
:1038E000C56F0008600100202DE9F04100251C464D
:1038F00088460646152A3BD2DFE802F00B1B1D2E38
:103900003744535C5E676A79878999A6ABB0B5BACC
:10391000CD0030460AF009F9054640460AF005F99F
:10392000014605EBD570401001EBD171A0EB6100B1
:10393000A1E025800EE030460AF0F7F80746404641
:103940000AF0F3F807EBD771491000EBD070A1EB48
:1039500060008BE065800BE030460AF0E6F8074631
:1039600040460AF0E2F8381A80E0258097E060804F
:1039700020883188084420806088718808446080ED
:10398000BDE8F08130460AF0D0F8054640460AF01E
:10399000CCF805EBD571491000EBD070A1EB6000BD
:1039A0007CE030460AF0C1F8054640460AF0BDF812
:1039B000281A73E025805FE030460AF0B6F8054625
:1039C00040460AF0B2F8281A55E02580084618E06B
:1039D00030460AF0AAF8054640460AF0A6F805EB7C
:1039E000D571491000EBD070A1EB600007E03046C4
:1039F0000AF09BF8054640460AF097F8281A2080FE
:103A000040460AF06CF84042B1E7258018E03046A5
:103A10000AF08BF8054640460AF087F8014605EBA8
:103A2000D570401001EBD171A0EB610007E030468A
:103A30000AF07BF8054640460AF077F8281A2080FD
:103A400030460AF04CF892E708460AF06EF8404219
:103A50000CE008460AF069F840420CE008460AF01B
:103A600064F840421AE030460AF05FF8208071E7BF
:103A700030460AF05AF8208030460AF030F8054601
:103A800040460AF02CF805EBD571491000EBD070D8
:103A9000A1EB60006BE730460AF047F82080304623
:103AA0000AF01DF8054640460AF019F8281A5EE7A4
:103AB00070B5B1F90030B2F90040A34200DC2346F2
:103AC0000380B1F90250B2F90240A54200DD2C4654
:103AD0004480B1F90460B2F90450AE4200DA3546D0
:103AE0008580B1F90610B2F90620914200DB11463B
:103AF000C1800120AB4201DC8C4200DD002070BDA2
:103B0000F8B50D460446B0F90000B1F900101646AC
:103B1000884247DBB4F90210B5F90220914241DB3B
:103B2000B4F90410B5F9042091423BDCB4F9061055
:103B3000B5F90620914235DC96B3ADF800006088F7
:103B4000ADF8020032466946284600F049F80028E0
:103B500027D0A088ADF800006088ADF8020032469A
:103B60006946284600F03CF800281AD02088ADF8B5
:103B70000000E088ADF8020032466946284600F0B1
:103B80002FF800280DD0A088ADF80000E088ADF82F
:103B9000020032466946284600F022F8002800D08C
:103BA0000120F8BD0020F8BDB0F90020B1F90430C3
:103BB0009A4213DCB0F90420B1F900309A420DDBCF
:103BC000B0F90220B1F906309A4207DCB0F90600DC
:103BD000B1F90210884201DB0120704700207047D4
:103BE0002DE9FC4114460E46B1F90020B0F9001051
:103BF00005468A423ADBB5F90400824236DCB6F962
:103C00000270B5F90220974230DBB5F906309F42C9
:103C10002CDC002C75DD401A9A1A401C521C00B294
:103C200012B200EBD07002EBD272401052109042F0
:103C300000DB1046844200DD0446ADF80010288801
:103C400000222044ADF804006888ADF802006888BE
:103C500031462044ADF806006846FFF7C1FF40B189
:103C6000BDF804002044ADF804003FE00020BDE8AA
:103C7000FC81E8880022001BADF80200E888ADF85E
:103C8000060031466846FFF7ABFF28B1BDF80400D7
:103C90002044ADF8040011E0A8880022001BADF814
:103CA0000000A888ADF8040031466846FFF798FF89
:103CB00050B1BDF80000001BADF80000BDF80200D7
:103CC000001BADF8020016E06888ADF802006888B5
:103CD00000222044ADF8060031466846FFF780FF19
:103CE00070B1BDF80000001BADF80000BDF8060083
:103CF0002044ADF806003146684610F0B1F8B6E74A
:103D0000FFE70120B3E710B5B1F90040B2F9003088
:103D10009C4200DA23460380B1F90240B2F9023036
:103D20009C4200DA23464380B1F90440B2F90430E2
:103D30009C4200DD23468380B1F90610B2F90620CB
:103D4000914200DC1146C18010BD2DE9FF4F87B0C4
:103D50001D46DDE91476DDF858908B46022E50D3CF
:103D6000002F4ED001F032FD80460AF019FB00F121
:103D70001004D0F808A0D8F82410404601B18847B4
:103D80005A4604A80799FFF793FE002839D0BDF8DA
:103D900010002188401A01B2ADF81010BDF81200D1
:103DA0006288801AADF81200BDF814002288801ACB
:103DB00000B2ADF81400BDF816206388D21AADF831
:103DC000162095B198F80820D2070ED1401A401C51
:103DD00001B2002007E02A5C802A01D9FF2200E01E
:103DE00000222A54401C8842F5DBD8F8140058B150
:103DF000CDE90065029704AA51462046099B08F0C8
:103E0000BFF90BB000F018B8B9F1000F0AD001A843
:103E1000009680E8A00204AA51462046099B07F0BC
:103E200031FFEEE7CDE90065029704AA514620462E
:103E3000099B08F003F8E4E730BCBDE8C08F2DE92A
:103E4000FF4F87B01D46DDE91476DDF858A0914696
:103E5000022E52D3002F50D0014605A8089AFFF732
:103E600027FE002849D001F0B1FC80460AF098FAFC
:103E700000F11004D0F808B0D8F82410404601B181
:103E80008847BDF814002188401A01B2ADF814101B
:103E9000BDF816006288801AADF81600BDF818004B
:103EA0002288801A00B2ADF81800BDF81A20638885
:103EB000D21AADF81A2095B198F80820D2070ED181
:103EC000401A401C01B2002007E02A5C802A01D978
:103ED000FF2200E000222A54401C8842F5DBD8F87B
:103EE000140068B1CDF800900397CDE9016505AAEB
:103EF00059462046089B11F033FD0BB000F01BB86B
:103F0000BAF1000F0BD002A805AA80E8A004CDE901
:103F1000009659462046089B11F092FAEDE7CDF83D
:103F200000900397CDE9016505AA59462046089BF4
:103F300011F077FBE1E730BCBDE8C08F2DE9FC5FF5
:103F4000054611F0FBF8584C0190E86860600021CC
:103F5000284611F02BF86068C16BE1B110F0DEF972
:103F600010F054F96068514AD0F8781111427DD0B0
:103F7000A3460AF0B2FB00286FD0DBF804005D46D0
:103F8000416989B14A4800904A4BCF224AA1022098
:103F900000F04AFF61E0454AD0F87811D243114061
:103FA000C0F8781100F0A2B80AF0FAF9044610F04F
:103FB000AFFAA0690028FCD16868B0F900004000A1
:103FC00000F088FF8246A06821688146884200D1BF
:103FD0006168686888460AF0F7F906460024AB462F
:103FE0002EE00A1992F85A2142BB01EBC40131F9C3
:103FF0005A2FB1F9025016FB052389885F00891AF0
:10400000491C09B24900009110E000BF08EB07010C
:104010005046009A01F08CF809EB07005146009ACF
:1040200001F086F86D1C07EB46072DB2DBF80400A3
:1040300000EBC400B0F96000A842E7DA641CA4B247
:10404000DBF80410D1F87821C2F30942A242C8D8A3
:10405000BAF1000001D000F0F3FFDBF804004FF4E8
:1040600080715C465A3001F059F900E016E0606852
:10407000202100F5AD7001F051F960680B4AD0F8CD
:104080007811D2431140C0F87811019811F050F81E
:104090000146606883690BB12268984700F0F8FE1A
:1040A00000F027B800F02AB8040100200000FF0348
:1040B000F0D90108449F01082E2E5C4D6964646CA0
:1040C0006577617265735C4C56474C5C4C56474C47
:1040D0005C6C76676C5C7372635C6C765F636F724A
:1040E000655C6C765F726566722E63003CBCBDE8F1
:1040F000C09F3CBCBDE8C05FFFF7D4BF10B5044C07
:104100002068002803D00DF02DFA0020206010BD9B
:10411000840100201821014800F09BBD34060020D6
:104120002DE9FF5F0446DDE90E0613B9B0F5807F87
:104130007ED0B6F900504FF0FF376D42454307EB94
:1041400025252DB22580B6F902C0CCF1000C0CFB60
:1041500000FC07EB2C273FB26780B6F900C0A1EB4B
:104160000C0141434FF0020C0CEB212109B2A1805C
:10417000B6F90280A2EB080242430CEB222000B207
:10418000E080002B7ED04FF00A0A93FBFAF56842DC
:1041900000EB800003EB400705F1010928B201F0B4
:1041A00091FF00900FFA89F001F08CFF83465A3599
:1041B00028B201F087FF804609F15A0000B201F0F1
:1041C00081FF0146009AC7F10A0000FB02F300FBE1
:1041D00008F00BFB073301FB070193FBFAF291FB9D
:1041E000FAF04FEA601AB4F90010B4F902000AFBC1
:1041F00001FCCDF80CC05511378805FB10C207EB48
:10420000A2220FFA82F905FB01F2BB4602927788DF
:104210000AFB002107EBA1210BB2B4F90410BE4642
:104220000AFB01FC05FB10C20BEBA22216B200E058
:104230002FE005FB01F7CDE9007CB4F90680DDF83D
:104240000CC00AFB007005FB18C1DDF804C0009F1C
:1042500005FB18C5029A0AFB087C0AFB08220BEB37
:10426000A1210EEBAC270EEBA02009B20EEBA2228F
:104270000BEBA5250FFA87FC00B212B22DB24F4608
:10428000494500E00EE000DA0F46B54216DAA846CE
:1042900015E000202080491E6080A180521EE2802F
:1042A00000F05EB832882A44228072883A446280E4
:1042B00032881144A180718808444FE0B0464745D8
:1042C00004DA4F46494506DA0F4604E0B54201DA02
:1042D0002F4600E0374627804F46494500DD0F4610
:1042E000B54201DDA84600E0B046474503DD4D4636
:1042F000494505DC01E0B54201DD294600E03146D3
:10430000A1809A4201DA154600E01D46844501DA93
:10431000614600E001468D4205DA9A4201DA114613
:1043200006E0194604E0844501DA614600E00146F2
:1043300061809A4201DD114600E01946844501DDA5
:10434000654600E00546A94205DD9A4201DD1046BA
:1043500004E0184602E0844500DD6046E0809FE707
:104360003FBCBDE8C09F00002DE9FE4F0446D0F8D9
:1043700000B0B0F90800E589081AB4F90A10511A1A
:10438000D4E90932B5F5807F3CD0A589002DA56B15
:1043900005FB00F005FB01F54FEA60104FEA6511DF
:1043A0003ED0256BE66A05FB00F706FB1177464316
:1043B00005FB016003EBA72902EBA0208046061253
:1043C000B4F904004FEA2927B84248DD002F46DB44
:1043D000B4F90610B14242DD002E40DB94F83410EF
:1043E0004A073FD58A0704F114031DD400FB067069
:1043F00045004FF0020A0BEB05015246184600F04B
:1044000043FF22E0256BE66A05FB00F706FB117708
:10441000464305FB016003EBA70902EBA000CDE7D3
:1044200003EB00095018C9E700FB067000EB4005DC
:104430004FF0030A0BEB05010222184600F024FF9F
:10444000E81C584410F8010CA07594F83400C0071B
:104450001ED01948A18A008880B2814218D100205C
:1044600000F02CB832B204F118002369CDE9010242
:10447000002539B2AA468B460BF068FF0090BDF8C4
:104480000000A082DDE9010259460BF0F7FEDBE7F0
:10449000E07C78B1A4F83C90A4F83E80A4F8407089
:1044A000A4F84260656484F848A0204600F009B88A
:1044B00000F00CB80120D3E70CA001081EBCBDE839
:1044C000E08F1EBCBDE8E04FFFF7F2BF2DE9F04FD3
:1044D000044690F83C10D0F8009090F83E0087B069
:1044E0004FF0FF36702907DAB4F940203546012A2B
:1044F00000D5002580310DE0902916DDB4F940206B
:10450000B4F904300125521C9A4200DB0025A1F2C7
:104510007F114942C9B28846702809DAB4F94210BD
:10452000012900D50026803010E00025FF21F2E7A8
:1045300090280DDDB4F94210B4F906200126491C7B
:10454000914200DB0026A0F27F104042C7B201E09A
:104550000026FF2760690090A07D0590002083461B
:104560008246049094F83400400744D594F84810EB
:10457000606C11FB05014944022201A800F090FE85
:10458000A08894F8481010FB01F0616C022206FB31
:104590000011494403A800F083FEA18894F8480064
:1045A00011FB00F1626C06FB012210FB0590111853
:1045B000022202A800F074FE94F83400800761D54E
:1045C00094F84800626C10FB052300EB09010B44D2
:1045D00013F8013C0493A38813FB00F306FB0322AA
:1045E000114411F801BC10FB0500111801EB090082
:1045F00010F8010C45E0B4F84000B4F9422028441A
:1046000001B204F11800814623690BF09FFE01906E
:10461000B4F84200B4F94010304402B254F8103FEC
:1046200048460BF093FE0390608E2368304402B23C
:10463000208E284401B248460BF088FE029094F880
:104640002400103C80071DD5B4F9422034F8400FF7
:10465000284401B248460BF011FE04906088B4F97A
:104660000010304402B248460BF008FE83466088D2
:10467000304402B234F84009284401B248460BF0F5
:10468000FDFD824694F8340042464546800735D504
:10469000059810FB08F30499C8F1FF0011FB0031E5
:1046A000C1F307211BFB08F61AFB0060C0F30720CB
:1046B00011FB07F3C7F1FF0610FB06331B0AA375B6
:1046C000022907D8022803D8002007B000F040B81C
:1046D000002702E0022800D8FF270598022800D80A
:1046E00000220498022800D8FF22BBF1020F00D854
:1046F0000025BAF1020F03D8FF2501E0FF20A075C5
:10470000EAB1FF2A04D0DDE9000109F097FB00902F
:10471000BDB1FF2D17D0DDE902102A4609F08EFB4E
:10472000049097B1FF2F05D001463A46009809F052
:1047300085FB0090BDF80000A0820120C5E701982C
:10474000E5E70298ECE70398EAE7BDF81000F3E725
:1047500030BCBDE8C08F00002DE9F0470446B0F939
:1047600008000A2700026062B4F90A000002A06291
:10477000B4F90C1091FBF7F5684200EB800001EBF7
:104780004006684205F1010800B201F09BFC824638
:10479000E84300B201F096FC8146C5F15A0000B230
:1047A00001F090FC0546C8F15A0000B201F08AFC05
:1047B000C6F10A0101FB0AF3024609FB0630694310
:1047C00090FBF7F002FB061191FBF7F14011E0625C
:1047D00048112063A07C0BF0F5FE94F8341060F3D0
:1047E000000184F83410A07C0BF0DCFE94F8341047
:1047F00060F3410184F83410A07C042824D00528FB
:1048000022D0062820D021F0040100BF84F8341003
:1048100021682162A16921F0E00160F30401A08810
:1048200060F39421E08860F35F51A161E0894FF467
:10483000001101EB5001B1FBF0F0A063FF20A07567
:10484000208AA082BDE8F08741F00401DEE7000085
:104850002DE9F843434E88468146318821B14248CC
:10486000424C0568002014E041A000904A4B4A22C7
:104870004AA1022000F0D8FA67E000BF00EBC002B6
:1048800005EB8202136AA34201DD5B1E1362401C2A
:1048900080B28842F2D300241FFA88F721E000BFDB
:1048A00004EBC40005EB800001898F4217D14168F9
:1048B00048460BF0E7FD90B104EBC40005EB800027
:1048C0004269016A11444FF47A720162914200DD3B
:1048D000026200283AD12C460120328811E0641C83
:1048E000A4B230888442DBD3F5E700BF00EBC001FF
:1048F00005EB8101266A0B6AB34200DA0C46401CC4
:1049000080B29042F2D3606810B120460CF062FA97
:1049100010F014FC05464246494620460CF0D6FAF3
:1049200020B100202062606990B118E02AA00090B8
:10493000194B802219A1022000F076FA242120468A
:1049400000F0ECFC4FF0004020620020BDE8F8834E
:10495000284610F0EDFB606108B901206061204637
:10496000F4E70000140100206C0100200100008029
:104970006C765F696D675F63616368655F6F7065C3
:104980006E3A207468652063616368652073697A94
:104990006520697320300000EFA101082E2E5C4DC8
:1049A0006964646C6577617265735C4C56474C5CF6
:1049B0004C56474C5C6C76676C5C7372635C6C76CF
:1049C0005F647261775C6C765F696D675F6361637A
:1049D00068652E6300000000496D616765206472A0
:1049E00061772063616E6E6F74206F70656E2074E6
:1049F000686520696D616765207265736F757263A4
:104A00006500000038B51021154800F022F90CF0BF
:104A1000F3F9044609F063FB50B1002C16D011489D
:104A20002060114860601148A0601148E06038BD06
:104A300010480090034641220FA1032000F0F4F932
:104A4000224600231BA009F04FFBFEE71DA00090AB
:104A5000084B432208A1022000F0E6F938BD00000F
:104A60004006002005060108F9090108850C010827
:104A7000DF05010818A201082E2E5C4D6964646CE4
:104A80006577617265735C4C56474C5C4C56474C7D
:104A90005C6C76676C5C7372635C6C765F6472618D
:104AA000775C6C765F696D675F6465636F64657280
:104AB0002E6300004F7574206F66206D656D6F72F8
:104AC000790000006C765F696D675F6465636F6491
:104AD00065725F696E69743A206F7574206F662025
:104AE0006D656D6F72790000002108460CF0FABB0D
:104AF0007FB50D46040003D109F054FC040025D015
:104B00002E4EF5B10020ADF80000ADF802002046B1
:104B100009F05AFC401EADF80400204609F0BEFD25
:104B2000401EADF806006A46294602A8FEF7C0FFFF
:104B300000280BD0226912B102A920469047002517
:104B400011E0D4F878013040C4F878017FBD00BF8F
:104B500004EBC501002202A85A31FEF7D1FF00285C
:104B6000F4D16D1CADB2D4F87801C0F30940A8426D
:104B7000EED8D4F87801C0F30941202903D204EB20
:104B8000C10002A907E03040C4F87801C0F3094031
:104B900004EBC00069465A3008F07EFFD4F8780173
:104BA0004FF4800101EBB0604FEAB010C4F8780117
:104BB0000321E06A10F0FAF97FBD0000FFFF00FC5E
:104BC00070B50C461E461546114600F0F2F8AEB11F
:104BD00000222946204610F0A3FF2946204662689D
:104BE00010F098FF616819B12A46204610F098FF2E
:104BF0006560A068002800D1A56070BD29462046E8
:104C0000A26810F08DFF00222946204610F082FF96
:104C1000A16819B12A46204610F07CFFA5606068A3
:104C20000028EAD1656070BD002100B141680846E6
:104C30007047002802D00068091D405870470028BE
:104C400001D0006840587047002100B181680846D3
:104C5000704700224260C91C21F00301826001609C
:104C6000704770B50446006808300CF0F3FB05008F
:104C700013D001460022204610F052FF294620465C
:104C8000626810F047FF616819B12A46204610F0AB
:104C900047FF6560A06800B9A560284670BD2DE992
:104CA000F0410D4607002BD055B3FFF7BDFFA842DA
:104CB00004D13846FFF7D5FF04461EE038680830B7
:104CC0000CF0C8FB04001BD029463846FFF7B7FF9D
:104CD000064601462246384610F01CFF3246214661
:104CE000384610F01DFF22462946384610F018FFBE
:104CF0002A462146384610F00DFF2046BDE8F081D7
:104D00000020FBE770B50446006808300CF0A2FBF9
:104D1000050013D001460022204610F0FBFE294674
:104D20002046A26810F0FCFEA16819B12A46204670
:104D300010F0F0FEA560606800B96560284670BD9F
:104D400028B1416809B9806808B100207047012086
:104D500070472DE9F04116460D460746B14226D070
:104D60001EB11146FFF76BFF01E0FFF76DFF044630
:104D7000A5421CD02946384600F01BF82A46214699
:104D8000384610F0C7FE22462946384610F0C8FEC5
:104D90002A463146384610F0C3FE32462946384688
:104DA00010F0B8FE06B9BD60002C00D17D60BDE8F2
:104DB000F08170B50A460446FFF736FF00239042A3
:104DC0000AD111462046FFF734FF6060011E01D072
:104DD000002224E0A36070BD2046FFF735FF90421B
:104DE000114620460CD1FFF72AFFA060011E05D016
:104DF0002046BDE87040002210F08CBE636070BD9C
:104E0000FFF71DFF064611462046FFF712FF054635
:104E100002463146204610F07DFE324629462046A5
:104E2000BDE8704010F07CBEF0B5C1B01D4616461E
:104E30000F460446062815DA022C13DB47AB4FF465
:104E4000807101A8469A10F0C1FA0748D0F800C056
:104E5000BCF1000F06D001A800902B46324639461F
:104E60002046E04741B0F0BD8801002010B59042D7
:104E7000029C01DB204610BD884201DC184610BDB3
:104E8000521AE41A401A604390FBF2F0184410BD25
:104E900070B500200D49054601EBC002401CC0B2B0
:104EA00095710228F8D30A4E002400BF56F834004A
:104EB00038B10CF057FB06EBC40046F8345085714E
:104EC0008580641CE4B2102CF0D370BD9C010020DE
:104ED000580600202DE9F843050019D00126102DB1
:104EE0000BD83A49002000BF01EBC0029279D207EB
:104EF00011D0401CC0B20228F6D3354C4FF0FF3021
:104F0000002200BF04EBC2018B79DB0709D01AE055
:104F10000020BDE8F88301EBC002967151F8300023
:104F2000F7E78988A9420ED305D104EBC200867148
:104F300054F83200EDE7002804DB04EBC0039B8843
:104F4000994200D250B2521CD2B2102ADAD30028B1
:104F500005DB04EBC0018E7154F83000D9E7DFF8AF
:104F60007480002704EBC7008079C00712D07F1C33
:104F7000FFB2102FF6D3174B40F2092216A10320DF
:104F8000CDF80080FFF750FF002213461FA009F064
:104F9000ABF8FEE754F8370029460CF011FB30B1AE
:104FA00004EBC7018E718D8044F83700B1E7094BDF
:104FB00040F2FF1208A10320CDF80080FFF734FF74
:104FC000002213461D4809F08FF8FEE79C010020DF
:104FD0005806002084D801082E2E5C4D6964646C4C
:104FE0006577617265735C4C56474C5C4C56474C18
:104FF0005C6C76676C5C7372635C6C765F6D697316
:10500000635C6C765F6D656D2E6300004E6F20668D
:10501000726565206275666665722E20496E6372E0
:1050200065617365204C565F4D454D5F4255465F47
:105030004D41585F4E554D2E00000000CCDB01085D
:1050400038B50021104B0A4653F83140844209D04C
:10505000491CC9B20229F7D30C4B002153F8314047
:10506000844203D103EBC100827138BD491CC9B22F
:105070001029F3D306A00090104B4FF4097210A131
:105080000320FFF7D1FE38BD9C0100205806002008
:105090006C765F6D656D5F6275665F72656C65618C
:1050A00073653A2070206973206E6F742061206BE5
:1050B0006E6F776E206275666665720094D801081F
:1050C0002E2E5C4D6964646C6577617265735C4C0F
:1050D00056474C5C4C56474C5C6C76676C5C737204
:1050E000635C6C765F6D6973635C6C765F6D656D38
:1050F0002E630000002803D00449884201D100201B
:10510000704750F8040C40087047000094010020DC
:105110000649054841F6FC724860016821F001012A
:1051200062F35F0101607047580700208C01002086
:1051300030B500F0030401F003050346A54243D156
:105140004EE00C781C704C785C708C789C70CC783D
:10515000DC700C791C714C795C718C799C71CC7908
:10516000DC710C7A1C724C7A5C728C7A9C72CC7AF0
:10517000DC720C7B1C734C7B5C738C7B9C73CC7BD8
:10518000DC730C7C1C744C7C5C748C7C9C74CC7CC0
:10519000DC740C7D1C754C7D5C758C7D9C75CC7DA8
:1051A000DC750C7E1C764C7E5C768C7E9C76CC7E90
:1051B000DC760C7F1C774C7F5C778C7F9C77CC7F78
:1051C000DC772031203A2033202ABAD805E000BF0E
:1051D00011F8014B03F8014B521E002AF8D130BDE3
:1051E0004CB3C4F1040405E011F8015B521E03F84E
:1051F000015B641EFCB1002AF6D11CE010C9203A04
:1052000010C310C910C351F8084B43F8084B51F8AC
:10521000044C43F8044C51F8104B43F8104B51F830
:105220000C4C43F80C4C51F8084C43F8084C51F81E
:10523000044C43F8044C202AE0D802E010C9121FA5
:1052400010C3042AFAD804E011F8014B03F8014B0B
:10525000521E002AF8D130BD10B5034605E000BF4C
:1052600011F8014B03F8014B521E002AF8D110BD72
:1052700010B5034605E000BF11F8014B03F8014BE0
:10528000521E002AF8D110BD10B5034605E000BF3C
:1052900011F8014B03F8014B521E002AF8D110BD42
:1052A00010B5034605E000BF11F8014B03F8014BB0
:1052B000521E002AF8D110BD10F0030309D0C3F12B
:1052C000040303E0521E00F8011B5B1E0BB1002A11
:1052D000F8D101EB012303EB014303EB01630EE083
:1052E00008C0203A08C040F8083B40F8043C40F8A9
:1052F000103B40F80C3C40F8083C40F8043C202AA5
:10530000EED801E008C0121F042AFBD803E000BF5A
:1053100000F8011B521E002AFAD1704710F0030357
:105320004FF0000219D0C3F1040303E0491E00F856
:10533000012B5B1E8BB10029F8D1704704C02039C6
:1053400004C040F8082B40F8042C40F8102B40F81B
:105350000C2C40F8082C40F8042C2029EED801E051
:1053600004C0091F0429FBD803E000BF00F8012B8B
:10537000491E0029FAD1704710F003024FF0FF03D5
:105380000AD0C2F1040203E0491E00F8013B521E9C
:1053900012B10029F8D170474FF0FF320EE004C07F
:1053A000203904C040F8082B40F8042C40F8102B9A
:1053B00040F80C2C40F8082C40F8042C2029EED89A
:1053C00001E004C0091F0429FBD802E000F8013BFA
:1053D000491E0029FAD1704770B50D4606460024D3
:1053E000214630460DF0DDFA38B14168641C65F3A2
:1053F000CB21E4B24160402CF2D340242146304618
:105400000DF0CFFA002807D04168641C65F3CB216A
:10541000E4B24160FF2CF1D370BD00002DE9F047EC
:1054200086B014468A461646170A05464FF000080D
:1054300023E0514628460DF0B4FA814651462846ED
:105440000DF028FA06EB002084B202AA2146484655
:1054500000F060FB012807D0380610D5BAF1000F24
:1054600007D04FF0000A08E0BDF8080006B0BDE81C
:10547000F08728460DF094F90546002DD9D124F483
:10548000FE40292804D02A2802D0CDF8008002E06E
:10549000024800680090BDF80000E7E7F0970108B7
:1054A0002DE9F8431546894617464FEA1228064665
:1054B000A5E0494630460DF074FA044640680105FF
:1054C00070D481066ED0400505D425F4FE424946CD
:1054D000304613F0BDFE25F4FE40302859D024DCC0
:1054E000112869D010DC052850D006DC01285DD0D9
:1054F000022845D004286CD148E0062846D0072869
:1055000044D0102865D157E0162858D006DC122860
:1055100052D0132850D015285BD150E017284ED018
:1055200018284CD0202854D14CE060284AD010DCF8
:10553000402838D006DC31282ED0322842D03328FB
:1055400047D12CE042283DD0502832D0542840D1B9
:1055500038E048F28102811A904214D009DC7228A6
:1055600030D091282ED000F5FF40B0F5803F30D1EB
:1055700009E0012929D0022924D01F2929D121E0BD
:10558000A088400423E06068800020E0A088000438
:105590001DE0606880021AE06068400217E0606801
:1055A000000214E015E06068C00110E0A088C004AB
:1055B0000DE0606840010AE06068C00307E06068D1
:1055C000800304E06068400301E060684000002858
:1055D00018DB494630460DF05DF907EB002085B237
:1055E0006A462946204600F0D1FA012814D05FEA25
:1055F000086007D5B9F1000F12D04FF00009002E56
:105600007FF457AF25F4FE40222817D00CDC032886
:1056100004D007280CD113E0BDF90000BDE8F883E1
:1056200030460DF0BDF842E7312803D0C02803D042
:105630000020F3E70F20F1E70720EFE7FF20EDE779
:105640004FF48070EAE72DE9F8431446894617467F
:105650004FEA122806463BE0494630460DF0A1F9D4
:105660000546406801051DD481061BD0400505D4C0
:1056700024F4FE424946304613F0EAFD24F4FE408D
:105680002C2809D00C38B0F5004002D0A12809D14F
:105690002DE0A888800403E06868C10224D40003D8
:1056A000002817DB494630460DF0F4F807EB0020E0
:1056B00084B26A462146284600F0A4FA012819D08F
:1056C0005FEA086006D5B9F1000F16D04FF0000967
:1056D000002EC1D124F4FE402C2812D06D2810D009
:1056E000AD38B0F5004F0CD0FF20BDE8F8836868F6
:1056F000C000D5E79DF80000F7E730460DF050F800
:10570000A8E70020F1E700002DE9F8431446894698
:1057100017464FEA122806463BE0494630460DF050
:1057200040F90546406801051DD481061BD040059F
:1057300005D424F4FE424946304613F089FD24F492
:10574000FE406E2809D07F2804D08E38B0F5004F77
:1057500009D105E06868000103E06868800100E0A5
:105760006868002817DB494630460DF093F807EBD0
:10577000002084B26A462146284600F07FFA0128BC
:1057800016D05FEA086006D5B9F1000F12D04FF0CD
:105790000009002EC1D124F4FE407E280ED0BE2880
:1057A0000FD08E38B0F5004F08D00020BDE8F88348
:1057B0000098FBE730460CF0F3FFACE70FF040FC3D
:1057C000F4E70148F2E7000060D7010801484068AB
:1057D0007047000004010020704730B5040200202B
:1057E000831803FB03F5A54200D818465208F7D1E9
:1057F000020900070A80000E488030BD70B51646C9
:10580000054607F013F9040002D54FF0FF3070BDD4
:105810002968A01C014402223046FFF729FD2146D9
:10582000284607F043F900F07F0070BD70B51646BA
:10583000054607F0FBF8040002D54FF0FF3070BDBD
:105840002968A01C014402223046FFF711FD2146C1
:10585000284607F02BF900F07F0070BD70B50500F9
:1058600003D0286808B1002405E0002070BD00BF07
:1058700007F0CEF804442146284607F01CF9FF281B
:10588000F6D1A41CA0B270BD70B51646054607F04F
:10589000CDF8040002D54FF0FF3070BD2968A01C80
:1058A000014401223046FFF7E3FC2146284607F079
:1058B000FDF800F07F0070BD70B51646054607F094
:1058C000B5F8040002D54FF0FF3070BD2968A01C68
:1058D000014404223046FFF7CBFC2146284607F05E
:1058E000E5F800F07F0070BDF8B50E46050034D035
:1058F00000F004FA6868810615D08006010E091DC3
:1059000028680BF05DFE044608F0E9FB78B1E4B1CD
:10591000696800200A0600D501204A0600D5401C0F
:1059200001F03F0122E004200BF094FDEBE7164864
:1059300000900346C72215A10320FFF775FA2246FF
:10594000002320A008F0D0FBFEE722A000900E4B21
:10595000C9220EA10220FFF767FAF8BD04EB81020D
:1059600052F8042C44F82120491EC9B28142F5D8CE
:1059700044F8206068684FF0806101EBB0104FEA96
:10598000B060C5E90040F8BD899F01082E2E5C4D2E
:105990006964646C6577617265735C4C56474C5CF6
:1059A0004C56474C5C6C76676C5C7372635C6C76CF
:1059B0005F636F72655C6C765F7374796C652E6380
:1059C000000000004F7574206F66206D656D6F726A
:1059D000790000006C765F7374796C655F6C697335
:1059E000745F6164645F7374796C653A20636F758A
:1059F0006C646E277420616464207468652073741D
:105A0000796C650038B505460079000604D528464E
:105A1000BDE8384000F069B904200BF01BFD0446D6
:105A200008F05DFBA8B11CB320460EF0B7FF21467D
:105A30002846FFF759FF686840F08000686040061C
:105A400005D52868D0E90012026028684160204628
:105A500038BD0D480090034640F28F220BA1032071
:105A6000FFF7E2F92246002316A008F03DFBFEE70F
:105A700018A00090044B40F2912204A10220FFF7ED
:105A8000D3F9002038BD0000BE9F01082E2E5C4DCA
:105A90006964646C6577617265735C4C56474C5CF5
:105AA0004C56474C5C6C76676C5C7372635C6C76CE
:105AB0005F636F72655C6C765F7374796C652E637F
:105AC000000000004F7574206F66206D656D6F7269
:105AD000790000006C765F7374796C655F6C697334
