:020000040800F2
:10000000808D0020A50100083F3C0008CF2C00088F
:100010003D3C0008230500086D500008000000006A
:10002000000000000000000000000000A94A0008D5
:100030005F0500080000000035020008AD4A000816
:10004000BF010008BF010008BF010008BF01000890
:10005000BF010008BF010008BF010008BF01000880
:10006000BF010008BF010008BF010008BF01000870
:10007000BF010008BF010008BF01000825050008F6
:10008000BF010008BF010008BF010008BF01000850
:10009000BF010008BF010008BF010008BF01000840
:1000A000BF010008914B0008BF010008BF01000814
:1000B000BF0100080000000000000000BF010008B0
:1000C000BF010008BF010008BF010008BF01000810
:1000D000E147000861500008BF010008BF010008A7
:1000E000BF010008BF010008000000000000000080
:1000F0000000000000000000000000000000000000
:1001000000000000913E000800000000BF01000850
:100110000000000000000000BF010008BF0100084F
:10012000BF010008BF010008BF010008BF010008AF
:10013000BF010008000000000000000000000000F7
:10014000BF010008BF010008BF0100080000000057
:10015000BF010008BF010008BF010008BF0100087F
:10016000BF010008BF010008BF0100080000000037
:10017000BF010008BF0100080000000000000000EF
:10018000BF010008BF010008BF010008DFF810D060
:1001900000F03EF900480047518C0108AFF30080A1
:1001A000808D00200648804706480047FEE7FEE7AE
:1001B000FEE7FEE7FEE7FEE7FEE7FEE7FEE7FEE717
:1001C000814B00088D01000872B63448344902683A
:1001D00041EA0201016033484FF0010101603248F9
:1001E0004168016001688A884FF0100342EA030207
:1001F0008A80D1F800C00CF1240C0CF1040CBCE88E
:10020000FF008CF309884FF0020C8CF31488AE4683
:1002100062B63047EFF3108072B67047EFF310808C
:1002200062B6704780F31088704720484FF08051C5
:1002300001607047EFF3108C72B61D4A126822B14C
:100240002DE900509047BDE80050EFF309801EF003
:10025000100F08BF20ED108B40F804ED20E9F01FCF
:10026000114D4FF010082E683060B78827EA080754
:10027000B78068682860878847EA08078780016830
:1002800000F018B851F804EB1EF0100F08BF00F092
:1002900016B881F309888CF31088704720ED00E0D0
:1002A0000000FFFF680000206C00002004ED00E06B
:1002B0005000002030C9B1E8C01FFFF7E3BFB1EC28
:1002C000088BB1EC08CBFFF7E4BF2DE9F05F0546E2
:1002D000002092469B4688460646814640241BE005
:1002E000284641464746224600F081F853465A4682
:1002F000C01A914110D311461846224600F068F802
:100300002D1A67EB01084F4622460120002100F01C
:100310005FF817EB00094E41201EA4F10104DFDC59
:10032000484631462A46434600F000B830BCBDE896
:10033000C09F40EA01039B0703D009E008C9121FD0
:1003400008C0042AFAD203E011F8013B00F8013B8F
:10035000521EF9D27047D2B201E000F8012B491EBB
:10036000FBD270470022F6E710B513460A46044652
:100370001946FFF7F0FF204610BD421C10F8011B84
:100380000029FBD1801A704710B5002200E0521CF2
:10039000835C8C5CA34201D1002BF8D1D8B2E1B2CE
:1003A000401A10BD30B504460020034600E05B1C37
:1003B000934203D2E05CCD5C401BF8D030BD0346D5
:1003C00011F8012B00F8012B002AF9D118467047CB
:1003D000202A04DB203A00FA02F100207047914005
:1003E000C2F1200320FA03F3194390407047202AFA
:1003F00004DB203A21FA02F00021704721FA02F3CF
:10040000D040C2F1200291400843194670470000D5
:10041000064C074D06E0E06840F0010394E8070051
:1004200098471034AC42F6D3FFF7B4FE1818020810
:100430003818020870B58C1810F8015B15F0070326
:1004400001D110F8013B2A1106D110F8012B03E06D
:1004500010F8016B01F8016B5B1EF9D12B0705D475
:100460000023521E0DD401F8013BFAE710F8013BBE
:10047000CB1A921C03E013F8015B01F8015B521EDA
:10048000F9D5A142D8D3002070BD7047014601487C
:1004900001F07CBBF401002010B5044801F088FB9A
:1004A000042801D0012010BD002010BDF40100205F
:1004B00010B500F00BF8012801D0022010BDBDE8F6
:1004C0001040014801F086BCF401002008B501206D
:1004D0008DF800009DF8000008BD000038B500242C
:1004E000009313460A460146034801F03DFD00B162
:1004F0000124204638BD0000F401002070470000B0
:1005000038B50024009313460A460146034801F01B
:1005100023FE00B10124204638BD0000F401002074
:100520007047FEE7014800F08DB80000DC020020B3
:1005300030B590F8444004F01C050124AC40056C33
:100540006C60046863608368102B036803D0996053
:100550000068C26030BD9A600068C16030BD7047FD
:1005600072B6FEE7002200F001B8000030B50E4B75
:10057000054601205C7A002C14D1587A1C54587A14
:1005800003EB800045605D7A03F108002A54587A35
:10059000421C5A72303008703A2048702F20887000
:1005A000CC70002030BD0000747D002010B590F8A4
:1005B00025100022022905D00421C16380F82420DF
:1005C000012010BD01680B6823F00E030B60016869
:1005D0000B6823F001030B6090F84410046C01F0E9
:1005E0001C03012101FA03F3636080F8251080F8F1
:1005F0002420104610BD10B590F8251000240229C3
:1006000003D00421C16301241AE001680A6822F0C2
:100610000E020A6001680A6822F001020A6090F87E
:100620004410036C01F01C02012101FA02F25A602D
:1006300080F82510002180F82410816B01B18847D3
:10064000204610BDF0B4016C0C6801680D6890F88C
:10065000442002F01C06042202FA06F3234211D0C1
:100660006B070FD50B689B0603D40B6823F00403BC
:100670000B6090F8441001F01C018A40016C4A6044
:10068000016B1DE0022303FA06F727424FF0000C2E
:100690004FF0010218D0AF0716D50C68A40605D498
:1006A0000C6824F00A040C6080F8252090F84410AF
:1006B00001F01C018B40016C4B6080F824C0C16AC2
:1006C00000291AD0F0BC08470823B340234214D0B5
:1006D0002B0712D50B6823F00E030B6090F8441023
:1006E000036C01F01C0102FA01F15960C26380F849
:1006F000252080F824C0416BE2E7F0BC7047000081
:1007000070B568B12B4C036814212B4AA34209D25F
:100710002A4C1C44B4FBF1F18900C0E910210BE024
:10072000012070BD234C64421C44B4FBF1F18900EC
:100730004164204908390164022180F825101C68B1
:1007400047F6F0718C43D0E902152943D0E90456ED
:100750003543294385692943C5692943056A2943E6
:10076000214319608168B1F5804F19D0036C0F21C6
:10077000934202D152F8A83F02E00E4AA032136819
:1007800090F8444004F01C04A1408B43136090F89F
:100790004430416803F01C03994013681943116009
:1007A0000021C163012280F8252080F8241008462A
:1007B00070BD00000804024000000240F8FFFDBFC9
:1007C00070B5044690F82400002501280CD00120C3
:1007D00084F8240094F825600020012E06D084F8C7
:1007E00024000225284670BD022070BD022684F830
:1007F0002560E0632068066826F001060660204652
:10080000FFF796FE206B00282068016802D041F0B7
:100810000E0106E021F0040101602068016841F04A
:100820000A0101602068016841F001010160D9E717
:1008300070B5044600F006F90546601C02D0044875
:100840000078044400F0FEF8401BA042FAD370BDCB
:10085000180000202DE9F04FDFF8AC9100230325AC
:10086000A9F1040B85B04FF0010C0F2709F1040A20
:10087000ABF1040EBFE000BF0CFA03F6324075D0B6
:100880000C7904F00304012C01D0022C1BD18468E4
:1008900000945C0005FA04F80494009C24EA08041F
:1008A0000094D1F80C80049C08FA04F8009C48EAF3
:1008B0000408C0F808804468B4430E79C6F30016F3
:1008C0009E40264346600C79E443A4070AD0C468DE
:1008D0004FEA430805FA08F6B4438E6806FA08F6AC
:1008E0002643C6600C7904F00304022C10D1DC0806
:1008F00000EB84040294246A5E074FEAD66807FA84
:1009000008F6B4430E6906FA08F62643029C2662EE
:1009100004684FEA430805FA08F6B4430E7906F076
:10092000030606FA08F6264306604C6814F4403FB6
:1009300060D0364C266E46F001062666246E23F003
:10094000030604F001040094314C34440294A4687A
:100950009E074FEA167807FA08F6B443B0F1904FB5
:1009600005D02C4EB04204D1012612E042E0002610
:100970000FE0294EB04201D102260AE0274EB042D4
:1009800001D1032605E0264EB04201D1042600E045
:10099000072606FA08F62643029CA660D9F80060EE
:1009A0004C46D1F8048096435FEAC82800D5164328
:1009B0002660DAF800405646D1F8048094435FEA96
:1009C000882800D514433460DBF800405E46D1F837
:1009D000048094435FEA883800D514433460DEF81D
:1009E00000407646D1F8048094435FEAC83800D5C9
:1009F000144334605B1C0A6832FA03F47FF43CAFA2
:100A000005B000F00FB800000804014000100240DB
:100A1000000001400004004800080048000C0048A5
:100A20000010004830BCBDE8C08F426921EA0203D3
:100A30000A4043EA0241816170470AB1816170470F
:100A400081627047014880687047000018000020EC
:100A500002488168027811448160704718000020C4
:100A600010B50024032000F089F8002000F008F8F9
:100A700008B1012401E000F03DF8204610BD00005F
:100A800000B5014687B00022192000F057F8192060
:100A900000F046F81348016E41F400610166006EF3
:100AA00005A900F400600690684600F051FC00F0D3
:100AB00081FC0D490D4AB0FBF1F10D48491E026061
:100AC000416040F2E7320021C0E90321816001F07A
:100AD00013FE10B1012007B000BD054801F03EFE35
:100AE000F9E700000010024040420F00002C0140D6
:100AF000A8030020094808B5016E41F00101016614
:100B0000016E01F001010091816D41F0805181651C
:100B1000806D00F08050009008BD00000010024081
:100B2000002809DB00F01F020121914040098000EC
:100B300000F1E020C0F8001170470000F0B40E4B47
:100B40001B680C46C3F30223C3F10705042D00D92B
:100B50000425191D072901D2002300E0DB1E012610
:100B600006FA05F1491E214099409E40761E164026
:100B70003143F0BC04F08CBA0CED00E0064900F003
:100B8000070208684FF6FF03184040EA0220034AB4
:100B900010430860704700000CED00E00000FA050B
:100BA0001649B0F5007F0868C0F3412009D002283B
:100BB00005D0086820F4C06040F480600860002020
:100BC00070470128FBD0086820F4C06040F4007032
:100BD00008600B483222006850430A4AB0FBF2F02A
:100BE000401C00E0401E4A69520501D50028F9D199
:100BF00048694005E3D503207047000000700040BD
:100C00002400002040420F000248006800F4C06049
:100C100070470000007000402DE9F05F034600209F
:100C2000C24A4FF4FA484FF40045B3F5003F0CD0E8
:100C3000D168F02601F00301BD4FBE4C012923D03D
:100C4000022933D003293BD135E0D2F8901001F4CA
:100C50004071B1F5807F0BD0B1F5007F0ED0B1F5BA
:100C6000407F03D11168890300D5B34800F06AB909
:100C7000D2F890108907F9D52846F7E7D2F89410F2
:100C80008907F3D54046F1E71168890718D511683F
:100C9000090703D5116801F0F00103E0D2F89410C0
:100CA00006EA1111090957F821100AE011684905EF
:100CB00006D5214605E01168890301D59F4900E06A
:100CC00000214FF480694FF4804A4FF4802B4FF499
:100CD000002E4FF4006CB3F5007F78D027DC202B7A
:100CE00076D011DC012B74D0022B73D0042BBDD134
:100CF000D2F8881011F030016DD010292AD02029A7
:100D000014D03029B2D1B3E7402B79D0802B78D0E2
:100D1000B3F5807FAAD1D2F8881011F440315AD0AF
:100D2000B1F5803F16D0B1F5003F9FD1F3E0AB4263
:100D300068D010DC4B4578D0634529D0534595D118
:100D4000D2F8883003F04053B3F1805F6ED0B3F136
:100D5000405F8BD1B6E05B4501D0734586D1D2F8B8
:100D6000883013F040634ED0B3F1806F34D0B3F1CC
:100D7000006F1AD0B3F1406F85D1116889077FF5F4
:100D80007CAF1068000708D5106800F0F00008E09C
:100D9000604600F0DAB802F053BFD2F8940006EAD9
:100DA0001010000957F8200060E713689B01FBD57D
:100DB000D368DB02F8D5D068C0F306204143D06881
:100DC000C0F30210401CB1FBF0F0D16815E07DE0EB
:100DD0003DE01EE02FE0A3E013681B01E4D513699A
:100DE000DB02E1D51069C0F306204143D068C0F3AF
:100DF0000210401CB1FBF0F01169C1F3415146E013
:100E00004AE055E07FE0D2F898108907CCD54C48ED
:100E10002CE7D2F8881011F0030108D0012951D035
:100E2000022978D00329BFD122E75DE01CE000F061
:100E300091B800F0BFBAD2F8881011F00C0170D050
:100E400004293FD0082966D00C29ADD110E7D2F88B
:100E5000881011F4406164D0494533D061455AD0BF
:100E6000B1F5406FA0D103E713681B019CD513694E
:100E7000DB0199D51069C0F306204143D068C0F367
:100E80000210401CB1FBF0F01169C1F34161491C33
:100E90004900B0FBF1F0E9E6D2F8881011F44051B6
:100EA0003FD0B1F5805F0DD0B1F5005FB0D132E039
:100EB000D2F8881011F4404133D0514502D0A942F4
:100EC000A6D128E000F04BB800F086BAD2F888101E
:100ED00011F4402125D059453FF4D0AE71451AD0C8
:100EE000B1F5402F94D1C3E6D2F8881011F4401127
:100EF00017D0B1F5801FEFD0B1F5001F0BD0B1F5C1
:100F0000401F85D1B4E6D2F8881011F0804108D096
:100F1000B1F1804FBFD111684905BCD52046A5E687
:100F2000FFE700F021B800F033BA000000100240E3
:100F3000F4D201080024F40090D0030000127A00DB
:100F4000006CDC0230BCBDE8C09F30BCBDE8C05FB7
:100F5000FFF721BF30BCBDE8C05FFFF76ABF30BC00
:100F6000BDE8C05FFFF7B0BF30BCBDE8C05FFFF7B2
:100F7000DABF00002DE9F84F044600270088A84D8D
:100F80003E46000515D5606C60B1B0F5000F04D089
:100F9000B0F5400F2BD001270AE0E86840F480301C
:100FA000E86024E00021201D02F09EFE07001ED014
:100FB0003E46206880033AD5A86D4FF00008C00077
:100FC00009D4A86D40F08050A865A86D4FF00108C5
:100FD00000F080500090DFF84CA2DAF8001041F4E5
:100FE0008071CAF80010FFF72DFD814610E0D5F89A
:100FF0008800616C20F440000843C5F88800D8E7F9
:10100000FFF720FDA0EB0900022801D9032705E026
:10101000DAF80000C005F3D5002F7DD04FEA0706AF
:10102000B8F1000F03D0A86D20F08050A86520789B
:10103000C00707D0D5F88800216A20F003000843D4
:10104000C5F888002078800707D5D5F88800616A40
:1010500020F00C000843C5F888002078400707D529
:10106000D5F88800A16A20F030000843C5F8880050
:101070002078800607D5D5F88800E16A20F4406022
:101080000843C5F888002088800507D5D5F8880072
:10109000E16B20F440200843C5F888002088400513
:1010A00007D5D5F88800216C20F440100843C5F816
:1010B00088002078400607D5D5F88800216B20F4F9
:1010C00040500843C5F888002078000607D5D5F8B9
:1010D0008800616B20F440400843C5F888002088F0
:1010E000C00507D5D5F88800A16B20F4403008432F
:1010F000C5F8880020684FF0006700034FF0806853
:1011000050D5D5F88800A16C20F040600843C5F8A0
:101110008800A06CB84200E005E03BD1E86840F4EC
:101120008010E8603EE0D5F8900010F4407014D0D4
:10113000A16D814211D0D5F89000D5F8901020F41F
:10114000407041F48031C5F89010D5F8901021F42A
:101150008031C5F89010C5F89000C00711D0FFF796
:1011600071FC074641F2883907E000BFFFF76AFCCF
:10117000C11B494501D9032652E7D5F890008007E5
:10118000F4D5D5F89000A16D20F440700843C5F85F
:10119000900045E7404505D10121201D02F0A4FD46
:1011A00000B106462068400317D5D5F88800E16CE9
:1011B00020F040600843C5F88800E06CB84204D1D4
:1011C000E86840F48010E86007E0404505D101215F
:1011D000201D02F089FD00B106462088400411D58B
:1011E000D5F88800216D20F040500843C5F88800EC
:1011F000206DB0F1805F05D10221201D02F074FD49
:1012000000B106462088000406D555F8880F616DA8
:1012100020F0804008432860304600F005B8000008
:10122000001002400070004018BCBDE8E08F0000D4
:101230002DE9F0470F46050058D0404E306800F0C9
:101240000700B84209D2306820F007003843306008
:10125000306800F00700B84248D12878384CC00701
:101260002CD06868032811D0022812D0216898B1C8
:10127000490500293ADAA16821F003010143A16080
:10128000FFF7E0FB804641F2883910E021688901D0
:10129000EFE721688903ECE78907EAE7FFF7D2FB6C
:1012A000A0EB0801494502D90320BDE8F087A068FA
:1012B000696800F00C00B0EB810FEFD1287880074F
:1012C00005D5A068A96820F0F0000843A060306848
:1012D00000F00700B8420BD9306820F0070038430F
:1012E0003060306800F00700B84201D00120DCE730
:1012F0002878400705D5A068E96820F4E060084335
:10130000A0602878000706D5A068296920F46050FD
:1013100040EAC100A06000F05FF8A168094AC1F38B
:101320000311515C01F01F01C840074908600748DC
:101330000068BDE8F047FFF7A3BB000000200240B3
:1013400000100240E4D20108240000201C0000200C
:101350000F2202600C4A936803F003034360936812
:1013600003F0F0038360936803F4E063C360926862
:101370004FF4E06303EAD20202610448006800F01F
:101380000700086070470000001002400020024083
:101390000548064900688968054AC1F30221515C85
:1013A00001F01F01C84070472400002000100240D7
:1013B00024D301080548064900688968054AC1F335
:1013C000C221515C01F01F01C84070472400002079
:1013D0000010024024D3010870B5254900231846A7
:1013E0008A68CC6812F00C0204F00306214C4FEA24
:1013F000640509D00C2A05D0042A32D0082A00D16D
:10140000284670BD012E10D10B681B0704D4D1F8FB
:101410009430C3F3032302E00B68C3F30313164EA7
:1014200056F82330DAB10C2AEBD1C86800F003007B
:10143000022818D0032818D01846CA68CB68C2F30F
:101440000212C3F306234343521CB3FBF2F2C868F3
:10145000C0F34160401C4000B2FBF0F070BD184684
:1014600070BD204670BD2046E7E72846E5E700004E
:10147000001002400024F400F4D201082DE9F843E2
:1014800004006FD0FE4DA86800F00C06E86800F07C
:1014900003072078C00664D576B10C2E01D1012F48
:1014A0000AD0A069002828687AD040F0010028609E
:1014B000FFF7C8FA80465DE02868800702D5A0697A
:1014C0000028DED0216A2868000703D5286800F0CC
:1014D000F00004E0D5F89400F02202EA10108142F6
:1014E00016D9084602F096FC00283BD1286840F047
:1014F000080028602868216A20F0F000084328606E
:101500006868E16920F47F4040EA0120686016E0E5
:10151000286840F0080028602868216A20F0F00060
:10152000084328606868E16920F47F4040EA0120B0
:10153000686026B9206A02F06DFC0028D5D1FFF75B
:101540004BFFA968CF4AC1F30311515C01F01F01A1
:10155000C840CD490860CD480068FFF791FA0028DF
:101560007ED12EE0CAE000BFFFF76CFAA0EB0800C6
:10157000022876D828688007F6D5286840F0080049
:1015800028602868216A20F0F00008432860686815
:10159000E16920F47F4040EA0120686011E0FFE744
:1015A00020F001002860FFF74DFA804606E000BFFA
:1015B000FFF748FAA0EB08000228DAD8286880076D
:1015C000F6D42078C00740D0082E18D00C2E01D1B8
:1015D000032F14D06068B0F5803F17D0B0F5A02F6E
:1015E000286817D020F480302860286820F48020F4
:1015F00028606068E0B1FFF725FA804614E02868AB
:10160000800322D56068002878D01EE0286840F466
:101610008030EDE740F480202860F7E7FFF712FA0A
:10162000A0EB08006428A4D828688003F6D50CE055
:10163000FFF708FA804605E0FFF704FAA0EB080080
:10164000642896D828688003F6D4207880073BD594
:10165000042E11D00C2E01D1022F0DD0E06801E034
:10166000B6E1FFE0002828681ED040F480702860B2
:10167000FFF7E8F907460CE0286840050CD5E0685C
:101680000028C1D008E000BFFFF7DCF9C01B02282A
:1016900093D828684005F7D56868217C20F0F85079
:1016A00040EA016068600FE020F480702860FFF776
:1016B000C9F9074605E000BFFFF7C4F9C01B0228BF
:1016C000B1D828684005F7D42078000729D560698B
:1016D0000028D5F8940012D040F00100C5F894001D
:1016E000FFF7B0F9074604E0FFF7ACF9C01B02288A
:1016F00099D8D5F894008007F6D512E02BE120F0B8
:101700000100C5F89400FFF79DF9074605E000BF0A
:10171000FFF798F9C01B022885D8D5F894008007F8
:10172000F6D42078400766D5A86D0027C00008D4FD
:10173000A86D40F08050A865A86D012700F080508A
:10174000009053480168C90512D40168814641F4EC
:1017500080710160FFF776F9804605E0FFF772F9C6
:10176000A0EB080002287DD8D9F80000C005F5D507
:10177000A068012816D00528D5F8900017D020F0D1
:101780000100C5F89000D5F8900020F0040000BFDB
:10179000C5F89000A06841F28839C0B1FFF752F94E
:1017A00080460FE0D5F8900040F00100F0E740F0EF
:1017B0000400C5F89000F5E7FFF744F9A0EB080135
:1017C00049454FD8D5F890008007F5D50EE0FFF7D2
:1017D00039F9804606E000BFFFF734F9A0EB0801B5
:1017E00049453FD8D5F890008007F5D41FB1A86DC2
:1017F00020F08050A8652078800628D5606A0028EF
:10180000D5F8980012D040F00100C5F89800FFF715
:1018100019F9074605E000BFFFF714F9C01B0228BD
:1018200020D8D5F898008007F6D510E020F0010008
:10183000C5F89800FFF706F9074604E0FFF702F93C
:10184000C01B02280ED8D5F898008007F6D4A06AED
:10185000A8B1022824D00C2E7DD0286820F08070FA
:10186000286000E0B3E02868000103D4E86820F0B5
:101870000300E860E86807490840E8600CE09FE082
:1018800000100240E4D20108240000201C000020C7
:1018900000700040FFFFEEFEFFF7D4F8044699E029
:1018A000E868E26A00F00301914226D1216B00F062
:1018B00070020901103991421FD1626B00F4FE41A0
:1018C000B1EB022F19D194F8382000F07841B1EB38
:1018D000C26F12D1A18F00F4C00249084905A1F5D9
:1018E0000011914209D194F8401000F0C0604908FD
:1018F0004906A1F1007181424BD00C2E6FD02868AF
:1019000040016CD4286820F080702860FFF79AF8B6
:10191000064604E0FFF796F8801B022857D828688F
:101920008001F7D4F4E90B016FF00F0202EB011113
:101930000843218A5204490802EB4151A26841EA56
:1019400002210843217D4FF07E42490802EB4161AC
:101950000843217B00E042E040EAC160E968214A97
:1019600011400843E860286840F080702860E8680B
:1019700040F08070E860FFF765F8044605E000BFBE
:10198000FFF760F8001B022821D828688001F7D5EE
:1019900023E02868800120D4286840F08070286007
:1019A000E86840F08070E860FFF74CF8044604E017
:1019B000FFF748F8001B022809D828688001F7D5EE
:1019C0000BE000BFFFF73EF8001B022802D90320FE
:1019D000BDE8F88328688001F4D40020F8E70120EE
:1019E000F6E700008C809D0110B5FEF74EFD10BD9E
:1019F00070470000F0B5426E920F0A70426EC2F35B
:101A000083624A70426EC2F301628A70426E120CA7
:101A1000CA70B0F86420120A0A7190F864204A7102
:101A2000826E120DCA80826EC2F303420A72B0F84F
:101A30006820C2F3C0324A72B0F86820C2F3803224
:101A40008A72B0F86820C2F34032CA72B0F86820D7
:101A5000C2F300320A7300264E73426C4FF40075D5
:101A6000012462B1012A3AD0026847499163816B2F
:101A700041F08051816380F834400120F0BDB0F81E
:101A80006820C36E9205120D42EA93720A61C26E1B
:101A9000C2F3C2620A75C26EC2F302624A75C26EB6
:101AA000C2F342528A75C26EC2F38242CA75C26ED6
:101AB000C2F3C2320A760A69521C42650B7E03F0F9
:101AC00007039B1C9A4042650B7A03F00F0704FA48
:101AD00007F383655B0A5A43C0E917250EE090F8C7
:101AE0006820C36E9206920A42EA13420A610A69AA
:101AF000521C92024265C0E91652056630F86C2FFE
:101B0000C2F3803201F8192F0288C2F3C6124A705C
:101B1000027802F07F028A704268D20FCA7042686F
:101B2000C2F341720A714268C2F382624A7142682A
:101B3000C2F383528A714268C2F34052CA710E7274
:101B40004268C2F300424A728288C2F3C0328A728B
:101B50008288C2F38032CA728288C2F340320A732A
:101B60008288C2F300324A738288C2F381228A7368
:101B70008288C2F30122CA730079C0F34600087458
:101B80004C740020F0BD0000FF054000426C0A606C
:101B9000826C4A60C26C8A60026DCA60426D0A61E2
:101BA000826D4A61C26D8A61006EC8610020704713
:101BB00070B50446B0F8500000250104206802F01A
:101BC00072FA18B1A16B0143A16304E000212068FF
:101BD00002F046FC0546C5F3432070BD2DE9F843ED
:101BE000056B04460068416B09041CD529071AD50A
:101BF000D4E90A56002E14D00027206802F04CFCCD
:101C000005F8010B010A05F8011B010C05F8021B80
:101C1000000E361F7F1C05F8010C082FEDD3C4E918
:101C20000A56BDE8F883416B4FF00006C90540F243
:101C30003A584FF0010743D5390281632068C16BE0
:101C40004CF23A129143C1632068C16A21F001014C
:101C5000C16228071CD515F0220F09D0206802F0B8
:101C600053FA28B1A16B0143A1632046FFF7C0FEE0
:101C70002168C1F8388084F834702663A80703D03F
:101C8000204600F060FACCE7204600F060FAC8E792
:101C90002806C6D5A80609D5206802F035FA28B16D
:101CA000A16B0143A1632046FFF7A2FEA807B8D1AC
:101CB0002068C16A21F00801C16284F83470E3E74A
:101CC000416B490423D5290721D5D4E90856002EB4
:101CD000A7D0002715F8010B009015F8011B361F3F
:101CE00040EA0120009015F8021B40EA01400090F4
:101CF00015F8011C40EA016000906946206802F076
:101D0000DEFB7F1C082FE5D3C4E9085689E7416B49
:101D100011F03A0F85D0416B890703D5A16B41F0D3
:101D20000201A163416B090703D5A16B41F00801D2
:101D3000A163416B890603D5A16B41F02001A1632A
:101D4000416BC90603D5A16B41F01001A163C0F836
:101D500038802068C16B21F49D71C163206802F056
:101D6000D3F9A16B0843A063280706D584F8347023
:101D700026632046FFF73CFE53E7280687D515F07B
:101D8000300F0CD0E16B11488863E06BFEF733FC39
:101D90000028BBD0E06BBDE8F84302F0C7BBA80742
:101DA0000CD0216C0A488863206CFEF724FC0028C4
:101DB000ACD0206CBDE8F84302F096BBA66384F873
:101DC000347026632046FFF70FFE2AE72D450008F2
:101DD000E944000870B504000ED094F834000025E2
:101DE00018B92577204600F075F8032084F83400F0
:101DF000204600F00BF808B1012070BDA5632563F3
:101E0000012084F83400002070BD00002DE9FE435D
:101E100004464FF000084FF40020FEF7FDFE0500D9
:101E20004FF001072ED02648CDF80080B5FBF0F624
:101E3000B61ECDE90186424643461146206802F0AF
:101E400012FB2068416821F480714160206802F033
:101E50001BFB2068416841F480714160B61CB5FBF2
:101E6000F6F01849B1FBF0F0401CFEF7E1FC20460B
:101E700002F0F6FB60B100BF84F83470A16B01433F
:101E8000A16319E084F834704FF00060A06313E0A0
:101E9000204602F06DFB0028EED14FF4007120685F
:101EA00002F030F8002808D0226807499163A16B3E
:101EB0000143A16384F83470012000F007B80000EA
:101EC000801A060010210100FF05400006BCBDE895
:101ED000F8830000F0B587B0044614216846FEF789
:101EE00041FA1D492068884233D11C48016E41F4F3
:101EF00080610166016E01F480610591C16C41F061
:101F00000401C164C16C01F004010591C16C41F090
:101F10000801C164C06C022400F0080005904FF471
:101F20008850002503260C278DE8F10069460C48EF
:101F3000FEF790FC04208DE8F10069460948FEF7A1
:101F400089FC002211463120FEF7F8FD3120FEF712
:101F5000E7FD07B0F0BD000000280140001002407E
:101F600000080048000C00482DE9F04F87B09B4660
:101F700016460D460446FEF765FD00903DB194F807
:101F80003400012807D0A06B40F000500DE0A06B9A
:101F900040F0006009E00020A063E26D06EB0B0159
:101FA000914204D9A06B40F00070A06385E003214A
:101FB00084F834102168C862616C012900D076026F
:101FC0004FF0FF3101914FEA4B2102914FF0010890
:101FD00003AA902102278146CDF8188082E8820268
:101FE00001A9206802F0DCF8BBF1010F05D92763D5
:101FF0003146206801F0E0FF05E0C4F8308031464A
:10200000206801F0F2FFDFF834A130B12268C2F895
:1020100038A0A16B0143A1634BE0029E1EE0406B20
:10202000000413D596B10027206802F035FA05F8B0
:10203000010B010A05F8011B010C05F8021B000E3B
:10204000361F7F1C05F8010C082FEDD3FEF7FAFCB4
:102050000099411A109881421CD2D8B12068416B76
:1020600011F4957FDBD0416BC90509D5BBF1010F98
:1020700006D9616C032903D002F046F80028C5D1C7
:102080002068416B09071AD5C0F838A0A06B40F052
:10209000080051E02168C1F838A0A06B40F0004072
:1020A000A06384F83480C4F83090032007B000F0B7
:1020B00047B884F83480C4F830900120F6E7416BCB
:1020C000890705D5C0F838A0A06B40F0020033E0C6
:1020D000416B89061CD5C0F838A0A06B40F02000E9
:1020E0002AE000BF02F0D8F905F8010B010A05F853
:1020F000011B010C05F8021B000E05F8010C361F30
:10210000FEF7A0FC0099411A109881420ED268B1E6
:102110002068416B890201D5002EE3D1216840F28D
:102120003A50886384F834800020BFE72168C1F802
:1021300038A0A06B40F00040A063BAE7FF05400064
:1021400030BCBDE8C08F10B5FEF7D8F910BD10B592
:10215000FEF7E6F910BD00002DE9F04F8DB09B466B
:1021600016460D460446FEF76DFC0A903DB194F804
:102170003400012807D0A06B40F000500DE0A06BA8
:1021800040F0006009E00020A063E26D06EB0B0167
:10219000914204D9A06B40F00070A0637AE0032163
:1021A00084F834102168C862616C012900D076027D
:1021B0004FF0FF3103914FEA4B2104919021CDE97B
:1021C00005104FF00109CDE90709824603A92068EF
:1021D00001F0E6FFBBF1010F06D920202063314654
:1021E000206801F0ABFF05E0102020633146206835
:1021F00001F0BDFF5FEA000806D02168404888630F
:10220000A06B40EA080071E0049E27E0406B4004A8
:102210001CD5DEB15FF0000715F8010B009015F832
:10222000011B361F40EA0120009015F8021B40EA0E
:102230000140009015F8011C40EA016000906946D9
:10224000206802F03CF97F1C082FE5D3FEF7FAFB6B
:102250000A99411A1698814220D2F8B12068416B40
:1022600011F48D7FD2D0416BC90524D5BBF1010F8C
:1022700021D9616C03291ED001F046FFD8B1226834
:102280001F499163A16B0143C4F8381084F834905E
:10229000C4F830A001200DB000F034B8216818480F
:1022A0008863A06B40EA0800A06384F83490C4F807
:1022B00030A00320EFE72068416B090705D51049DE
:1022C0008163A06B40F0080010E0416B890705D5E1
:1022D0000B498163A06B40F0020007E0416BC90627
:1022E00006D507498163A06B40F01000A063CDE7DD
:1022F00040F23A51816384F834900020CBE700002B
:10230000FF05400030BCBDE8C08F704738B501689C
:1023100004464A688868C043430606D5C30704D10B
:10232000D3435B0601D4E16C05E0830708D4D343B3
:102330001B0605D4216D01B02046BDE8304008479A
:10234000830603D5430601D5C30551D4D3439B0669
:102350004ED443060AD494F85D30032B49D0236E43
:1023600043F004032366CB688B680093830609D48B
:10237000236E43F0010323668B6800930B6823F000
:1023800040030B60C00506D4206E40F008002066B4
:10239000206880680090206E002829D0206841685D
:1023A00021F0E0014160012084F85D00900701D434
:1023B000D00722D02068416821F003014160114D0F
:1023C000A06D40B18563A06DFEF715F918B1206EC0
:1023D00040F040002066606D002809D08563606D84
:1023E000FEF709F9002803D0206E40F04000206677
:1023F00038BDC8688868009038BD2046FFF785FF63
:1024000038BD0000ED47000870B5040009D0606ACF
:10241000002540B125616561A56294F85D0040B179
:102420000CE0012070BD6068B0F5827FF4D0E561FA
:10243000F2E784F85C50204600F056F8022084F859
:102440005D002068016821F040010160E1684FF4FF
:10245000E062914201D9002001E04FF48050B1F5D3
:10246000706F02D0914200D0A562A188228901F448
:10247000827102F404421143227C02F002021143F1
:10248000227D02F001021143228B02F400721143FB
:10249000227F02F03802114394F8202002F08002DB
:1024A0001143228D02F40052114322681160A16988
:1024B000042202EA114194F8242000F4805002F032
:1024C0001002114394F8342002F008021143A2894B
:1024D00002F47062114301432068416025660120C7
:1024E00084F85D00002070BD2DE9F04186B00646FD
:1024F00014216846FDF736FF2949306888424BD1E0
:102500002849886D40F480408865886D00F48040DB
:102510000590C86C40F00400C864C86C00F004006A
:102520000590C86C40F00200C864C86C052700F034
:10253000020005900820022400254FF003080497AC
:102540008DE8310169461848FEF784F920030497A5
:102550008DE8310169461548FEF77CF9154C1448A1
:102560002060012060601020C4E902058020C4E9D9
:102570000405A561E56120462562FEF7C1F808B1B2
:10258000FDF7EEFF7465002211462420A662FEF7D7
:10259000D5FA2420FEF7C4FA06B0BDE8F0810000A9
:1025A00000380040001002400008004800040048C5
:1025B00058000240DC0200202DE9F041044690F86A
:1025C0005C000026012809D0012784F85C7094F88B
:1025D0005D000025012804D0022670E00220BDE83D
:1025E000F08199B192B1032084F85D002566A16362
:1025F000A287E28725642565E564A4F84450A4F821
:102600004650A068B0F5004F02D00BE0012656E01E
:102610002068016821F0400101602068016841F4F0
:1026200080410160616D28480863616D2748C86278
:10263000616D27484863606D85632068416821F4B7
:1026400080414160E068B0F5E06F10D8606D80694E
:10265000B0F5806F0BD1E08FC0072068416816D0BD
:1026600041F480414160E08F07EB5000E087E38F49
:102670002268A16B0C32606DFEF7A2F868B1206E83
:1026800040F010002066012684F85D7017E021F408
:1026900080414160E08F4008E8E720680168490612
:1026A00003D4016841F0400101602068416841F0B5
:1026B000200141602068416841F00201416084F8D6
:1026C0005C5030468BE70000214800082B4800088A
:1026D000FF470008044900680968884203D103489D
:1026E000006817F011BD704778020020000000203C
:1026F000704770477047704710B5040003D094F8D6
:102700003D0010B107E0012010BD002084F83C001E
:10271000204600F022F8022084F83D00211D2068A8
:1027200002F042FA012084F8480084F83E0084F860
:102730003F0084F8400084F8410084F8420084F8A7
:10274000430084F8440084F8450084F8460084F887
:10275000470084F83D00002010BD704790F83D1000
:10276000012901D001207047022180F83D10016845
:10277000CA6842F00102CA6000680B49884205D06D
:10278000B0F1804F02D00949884207D18168084AD8
:102790001140062906D0B1F5803F03D0016841F011
:1027A0000101016000207047002C01400040014001
:1027B00007000100704770B50446006801694FF0DA
:1027C0000005C943890715D4C168C943890711D4D5
:1027D000E91E01610120207720688069800720467A
:1027E00002D0FFF7E7FF04E000F0A7F8204600F072
:1027F000A5F8257720680169C943490717D4C1683E
:10280000C943490713D46FF0040101610220207706
:102810002068806910F4407F204602D0FFF7CAFF8D
:1028200004E000F08AF8204600F088F82577206858
:102830000169C943090716D4C168C943090712D4FD
:102840006FF008010161042020772068C0698007CB
:10285000204602D0FFF7AEFF04E000F06EF82046FD
:1028600000F06CF8257720680169C943C90617D4C0
:10287000C168C943C90613D46FF010010161082073
:1028800020772068C06910F4407F204602D0FFF70F
:1028900091FF04E000F051F8204600F04FF8257752
:1028A00020680169C943C90708D1C168C943C9077C
:1028B00004D1891E0161204600F042F820680169B8
:1028C000C943090609D4C168C943090605D46FF094
:1028D000800101612046FFF70DFF20680169C943AF
:1028E000C90509D4C168C943090605D46FF48071CC
:1028F00001612046FFF7FDFE20680169C9434906D2
:1029000009D4C168C943490605D46FF0400101618B
:10291000204600F01FF820680169C94389060BD4DE
:10292000C168C943890607D46FF0200101612046C0
:10293000BDE87040FFF7DFBE70BD70477047000014
:1029400000680349884201D1FEF782B87047000051
:10295000002C014070477047704770472DE9F041E7
:1029600002680446D0691168936840F60F05284252
:102970004FF0000505D186067ED58E067CD5616EAA
:102980001BE1994F03F001060F40374374D0C7078E
:1029900009D0CF0507D501271762D4F8802042F06F
:1029A0000102C4F8802082070AD5DA0708D0276818
:1029B00002223A62D4F8802042F00402C4F8802057
:1029C00042070AD5DA0708D0236804221A62D4F82D
:1029D000802042F00202C4F8802002070CD501F0EA
:1029E0002002324308D0236808221A62D4F88020DB
:1029F00042F00802C4F8802002050BD54A0109D52F
:102A000023684FF400621A62D4F8802042F020025A
:102A1000C4F88020D4F88020002A35D0800605D55F
:102A2000880603D5616E09B120468847D4F8800036
:102A300021688968490602D410F0280F26D0204664
:102A400002F084F92068806840061AD520680830B2
:102A500050E8001F21F0400140E80012002AF5D1A3
:102A6000206F70B161498163206FFDF7C4FD0028BC
:102A70000AD0206F816B01E00EE02046BDE8F041F6
:102A800008472046FFF769FFBDE8F0812046FFF7C1
:102A900064FFC4F88050F7E7276E2026012F7BD112
:102AA000C70679D5CF0677D51020106220688068D8
:102AB000400641D5216F086840680004000CE3D04F
:102AC000B4F858208242DFD9A4F85A000868006898
:102AD00080062AD4206850E8001F21F4807140E865
:102AE0000012002AF6D12068083050E8001F21F0BB
:102AF000010140E80012002AF5D12068083050E8B2
:102B0000001F21F0400140E80012002AF5D1E667DD
:102B10002566216851E8000F20F0100041E800020E
:102B2000002AF6D1206FFDF741FDB4F85800B4F843
:102B30005A10401A81B22AE0B4F85800B4F85A107A
:102B4000401A81B2B4F85A0000289DD000299BD0C9
:102B5000226852E8000F20F4907042E80003002B36
:102B6000F6D12068083050E8002F22F0010240E83A
:102B70000023002BF5D1E66725666566226852E8DA
:102B8000000F20F0100042E80003002BF6D1204691
:102B9000FFF7E1FE78E7FFE7C70209D55B0207D53B
:102BA0004FF4801010622046BDE8F041FFF7D4BE1C
:102BB000020606D50A0604D5A16E00297FF45DAF92
:102BC00062E74006E6D54806E4D52046026852E8AA
:102BD000001F21F0400142E80013002BF6D1866768
:102BE000856600F073F84FE720010004394D0008B6
:102BF00010B5040002D0A06F10B107E0012010BD95
:102C0000002084F87400204600F026F82420A067F5
:102C10002068016821F001010160204602F0BCF843
:102C20000128ECD0606A10B1204601F0F3FF206863
:102C3000416821F4904141602068816821F02A01B7
:102C400081602068016841F0010101602046BDE813
:102C5000104002F043B8000010B586B004461421BD
:102C60006846FDF77FFB17492068884228D116483F
:102C7000016E41F480410166016E01F480410591CD
:102C8000C16C41F00101C164C06C694600F00100F3
:102C900005904FF4C0600090022001900020029047
:102CA00003200390072004904FF09040FDF7D2FDE1
:102CB000002211462520FDF741FF2520FDF730FFBA
:102CC00006B010BD00380140001002407047FEE71A
:102CD0002DE9F04107461C4615460E462A2000F015
:102CE000FDF8380A00F008F9F8B200F005F9280AF2
:102CF00000F002F9E8B200F0FFF82B2000F0EEF847
:102D0000300A00F0F9F8F0B200F0F6F8200A00F00E
:102D1000F3F8E0B200F0F0F8BDE8F0412C2000F04C
:102D2000DDB8000070B56B4D4FF400440022214621
:102D30002846FDF782FE684E002280213046FDF7CE
:102D40007CFE642016F021FD012280213046FDF733
:102D500074FE782016F019FD112000F0BFF87820DD
:102D600016F013FD362000F0B9F8002000F0C4F88A
:102D70003A2000F0B3F8652000F0BEF8B22000F071
:102D8000ADF80C2000F0B8F80C2000F0B5F80020E9
:102D900000F0B2F8332000F0AFF8332000F0ACF8C8
:102DA000B72000F09BF8722000F0A6F8BB2000F0DE
:102DB00095F83D2000F0A0F8C02000F08FF82C20FE
:102DC00000F09AF8C22000F089F8012000F094F891
:102DD000C32000F083F8192000F08EF8C42000F022
:102DE0007DF8202000F088F8C62000F077F80F204A
:102DF00000F082F8D02000F071F8A42000F07CF8F8
:102E0000A12000F079F8E02000F068F8D02000F070
:102E100073F8042000F070F80D2000F06DF8112018
:102E200000F06AF8132000F067F82B2000F064F837
:102E30003F2000F061F8542000F05EF84C2000F0D4
:102E40005BF8182000F058F80D2000F055F80B2022
:102E500000F052F81F2000F04FF8232000F04CF84B
:102E6000E12000F03BF8D02000F046F8042000F00C
:102E700043F80C2000F040F8112000F03DF813203A
:102E800000F03AF82C2000F037F83F2000F034F83A
:102E9000442000F031F8512000F02EF82F2000F0EF
:102EA0002BF81F2000F028F81F2000F025F8202024
:102EB00000F022F8232000F01FF8212000F00EF887
:102EC000292000F00BF821462846BDE87040012279
:102ED000FDF7B3BD000400480008004801B500221A
:102EE00040210448FDF7A9FD0121684601F0C4FD19
:102EF00008BD00000008004801B501224021044837
:102F0000FDF79BFD0121684601F0B6FD08BD0000FC
:102F1000000800484218491E521E824202D922EA85
:102F200001007047884370470A46012117F030B806
:102F300038B5054D0C4604992D6815B10091214610
:102F4000A847002038BD0000EC00002010B5204943
:102F50001020086020491F48086016F0F1FD0400A9
:102F600007D01EA002F084F821461EA002F080F8CF
:102F700025E017F0B7FB040004D018A002F078F8A1
:102F80001FA01AE017F018FC17F050F8002817D10E
:102F900016F0E0FD002813D116F0DEFE040004D088
:102FA0000EA002F065F81BA007E017F0A7F90400D7
:102FB00007D00AA002F05CF81BA002F059F82046E6
:102FC00010BD17F001FEBDE8104016F065BD000011
:102FD0005C000020808D0020F00000205B455252F4
:102FE0005D2000006F734D656D53797374656D4995
:102FF0006E6974206572726F722025640A00000089
:103000006F735461736B496E6974206572726F726D
:103010000A0000006F735175657565496E6974200B
:103020006572726F720A00006F735377546D724944
:103030006E6974206572726F720A00004268C1E99D
:10304000000242681160416070474268C1E90002B5
:1030500042681160416070474268C1E900024268FD
:103060001160416070474268C1E900024268116026
:1030700041607047D0E900121160D0E900124A6047
:1030800000214160016070470068FFF7D7BF70B54D
:1030900005000C464FF000000CD0002C0AD028464A
:1030A00017F09FF8002805D121462846BDE870405A
:1030B00016F074BB70BD16F001BC70B50C4605006F
:1030C0000AD04CB117F0BEF8012807D02146284697
:1030D00016F012FC012801D0012070BD002070BD47
:1030E0002DE9F84FDFF898A00F460500DAF8004008
:1030F000A04603D0502F01D9A80702D0012000F02C
:103100005DB8FDF787F88146EE1918E0A068A54282
:10311000204401D8A64203D885420ED286420CD361
:1031200018A001F0A5FFA068324620440090234675
:10313000294616A001F09CFF1BE0A046E468002C85
:10314000E4D13946284616F059FC90B1B7F5805FB6
:1031500003D3284617F0A6F858B1DAF8001061B189
:10316000C8F80C500020E8604846FDF75BF80020E6
:10317000C5E74846FDF756F8C0E7CAF80050F1E742
:10318000E80000205B4552525D200000706F6F6CBC
:10319000205B25702C20307825782920636F6E669F
:1031A0006C696374207769746820706F6F6C205B42
:1031B00025702C2030782578290A000018BCBDE83D
:1031C000E08F00002DE9F0470D4608985FEA0209FC
:1031D00000F104018FB206D04FF6FB71884205D989
:1031E0002648BDE8F08725480930FAE7E5B1D8B1AF
:1031F000DFF88C8005FB07F1D8F80000FFF747FFE8
:10320000060014D0FDF706F81E4A014650689042A9
:1032100010D10846FDF706F83146D8F80000FFF750
:103220004CFF1648401CDCE714480A30D9E7134825
:10323000401ED6E7D0E90023A0F11C041A60D0E9B3
:1032400000235360E5802781012326600022A380AC
:1032500022826582A281E281A0F10802526012609E
:10326000406000600830406000600846FCF7DAFF0C
:1032700061890020C9F80010B3E7000003060002CE
:10328000F0000020C4000020F8B51C4615460E468C
:10329000074616F047FE002806D100212B4632468D
:1032A0003846009416F086FDF8BD7FB582B01C4606
:1032B0000D46064604AA16F04FFE002806D103214B
:1032C00004AB2A463046009416F074FD06B070BD7B
:1032D00010B5FCF79FFF044616F0C8FC0A492838D1
:1032E00048600968814202D00848008820B1204621
:1032F000BDE81040FCF796BF2046FCF793FFBDE801
:103300001040FCF792BF00006C0000204C00002031
:103310000A464FF6FF7116F03BBE00002DE9F84358
:103320000026324FDFF8C8808946142804D30023D2
:103330003C463A46009650E02E49096801EB0014DD
:10334000FCF768FF0546208838B1608848B1401E08
:1033500060802846FCF766FF46E02846FCF762FFDF
:10336000E5E7B9F1000F09D016F0B6FB48B11F4CE4
:1033700021A0241D01F07CFE21A00BE01B4CE41CCD
:1033800025E02848008840B1184C1BA0641D01F0BE
:103390006FFE25A001F06CFE19E02C484A4608217A
:1033A000076804F10800BC6117F014FB2846FCF71D
:1033B00039FFFFF78DFF3879400615D5FCF72AFF56
:1033C0000546B888094C20F04000B880A41D284666
:1033D000FCF728FF00232246009641461CA0FFF779
:1033E000A7FD2046BDE8F8830020FBE701070002A7
:1033F000F8C3B2A1CC0000205B4552525D20000012
:103400002121214C4F535F4552524E4F5F53454D42
:103410005F50454E445F494E544552522121210A86
:10342000000000004C0000202121214C4F535F453B
:1034300052524E4F5F53454D5F50454E445F494E8B
:103440005F4C4F434B2121210A0000006C000020FB
:103450006F735F756E73706563696669635F6669D4
:103460006C6500002DE9F8432149224F14280968B2
:1034700001EB001402D33846BDE8F883FCF7CAFE1E
:1034800006462088DFF87080002588B1A088618812
:10349000884215D13046FCF7C5FE164C0023E41DCA
:1034A00022460095414615A0FFF742FD2046E3E77E
:1034B0003046FCF7B7FE00233C463A460095F1E75C
:1034C000E06804F1080290420BD040F8105C08213B
:1034D000283817F0A5FA3046FCF7A4FEFFF7F8FEEF
:1034E00004E0491C61803046FCF79CFE0020C3E7E5
:1034F000CC00002001070002F8C3B2A16F735F7512
:103500006E73706563696669635F66696C65000008
:1035100010B517F0EBFA040006D005A001F0A8FDE5
:1035200005A001F0A5FD01E0FCF74EFE204610BD10
:103530005B4552525D2000006F735469636B537496
:10354000617274206572726F720A000070B5044671
:1035500000F034F8002829D1174D2068C0EBC000D6
:10356000E96800EB400001EB8004FCF753FE0646DF
:10357000A08820F0020040F00400A080E18804F15F
:10358000280016F02FFB16F071FB05F120012838FA
:103590004860EA695AB12A884AB90968814206D066
:1035A0003046FCF73FFE16F0F1FC002070BD3046BF
:1035B000FCF738FEF9E700004C0000202DE9F04749
:1035C0000D465FEA00084FF0FF3A16D0C5B12869F2
:1035D000C8B12968D1B1AA8846481F2A0BD802D1A0
:1035E000454A914207D14549454AE868511A8842FF
:1035F0000FD940481D30BDE8F0873E48001DFAE76E
:103600003C48801EF7E73B48801CF4E73948401CE3
:10361000F1E710B94FF43470E8600821FFF77AFC45
:10362000E860B0F5987F02D23248C01CE3E7FCF7AF
:10363000F1FD06464FF00009324C10E0A1F12807D9
:103640000846FFF717FD2F4807F128010838FFF754
:10365000F5FC2A48F968FFF730FDC7F80C9061685F
:10366000A142EBD1274908394868884202D1214C50
:103670000E3439E0A0F12804FFF7FCFC3046FCF7DB
:10368000D1FD276908221D48E968FFF714FD0600EF
:1036900020D002463846E96817F09EFA2060A868F4
:1036A000E6602062E868C4F81890C4F81C90022113
:1036B000A060A180A988E1802968C4F83CA0C4F872
:1036C000489061612969C4F8509061620020C8F88F
:1036D000007090E7FCF79EFD06460A4804F12801B9
:1036E0000838FFF7ABFC084C3046FCF79BFD204642
:1036F00081E7000003020002959A0108808D0020F6
:1037000000000120840000200002000370B505467F
:1037100016F0E2F908B1154870BD1548008808B1E7
:10372000144870BDEDB1FCF775FD114C0646203410
:103730002068283016F03AFA2068818821F00401C8
:1037400081802946206816F073FF2068818841F047
:10375000200181803046FCF765FDFFF7B9FD0020B0
:1037600070BDBDE8704000F0A3B800000D0200037A
:103770004C0000200E0200022DE9F047494D07469B
:103780004FF0FF3A6869874202D14748BDE8F087A9
:10379000A869874202D144480D30F7E7286987427B
:1037A00002D341480D38F1E7FCF734FD8046C7EB02
:1037B000C700E96800EB400001EB8004A688F00731
:1037C00006D0394C40460A3CFCF72CFD2046DDE78C
:1037D000F0064FF0000903D5288808B1A5F800903D
:1037E000700708D504F1280016F0E0F9A08820F051
:1037F0000400A08007E042F20800064203D004F172
:103800002800FFF737FC16F0600F02D0204617F0B3
:10381000A5F9A08820F0020040F00100A080C4F8C3
:103820003CA0C4F8489016F021FA1E4E4FF0010A51
:103830002036283870602079C0061FD504F1280191
:1038400006F11800FFF720FC2869E968C0EBC0000A
:1038500000EB400001EB8000306007613168A08818
:1038600088803068E168C160616A4162A4F804A0A0
:103870004046FCF7D7FC16F089FB10E00948A4F895
:1038800004A004F128013030FFF7D8FB0748E168B5
:10389000FFF713FC4046C4F80C90FCF7C3FC002073
:1038A00074E700004C00002014020002808D00200C
:1038B00070B5194CA4F12002206812690169914287
:1038C00001D3164870BD0079400701D4002070BDB7
:1038D000FCF7A0FC05462068C08816F0B5F9012861
:1038E00013D920682830FFF7C5FB2068818841F094
:1038F000040181802068C188283016F073F92846B9
:10390000FCF790FCFFF7E4FCE0E72846FCF78AFCB4
:103910000248093070BD00006C0000200702000260
:103920000149D1E900017047A000002086B0FFF7EF
:10393000F9F910F0C5FE13F067FE13F085FE03A839
:1039400014F070FC002403A82921224603F02CFB6C
:1039500003A83021224603F069FB03A80121224677
:1039600003F064FB14F038FC002111F0F3FA00229C
:103970000546114613F0C8FAF0221146284613F006
:1039800077FB03AA0021284611F074F814F024FCF8
:1039900000210FF083F844F2506B44F254684FF466
:1039A000C87A04905F46584610F004FF814603220F
:1039B0001DA101A80EF016FE010002D01DA001F00D
:1039C00057FB0426314601A80EF0A7FEBB46204F48
:1039D000002500235A46494601A80EF081FEC7F88B
:1039E00008901B49049810F08DFB00231A461946D5
:1039F0000094049811F08EF814F07AFE4644314693
:103A000001A80EF08AFE142015F0BFFE6D1C55456E
:103A1000DFDD484610F056FF01A80EF04EFD4FF4D2
:103A20007A7015F0B2FEBDE7533A2F6F732E6269BC
:103A30006E0000004C56474C204653206F70656E58
:103A4000206572726F722E20282564290D0A0000ED
:103A50000C000020064D4FF400544FF47A762146B6
:103A60002846FCF7E2FF304615F08FFEF7E700002E
:103A700000080048094808B5816C41F001018164E3
:103A8000806C002200F00100009011460F20FDF72D
:103A900055F8BDE808400F20FDF742B8001002407D
:103AA00010B504490448FCF75DFD0249491E087041
:103AB00010BD0000E2010020A81502082DE9F04128
:103AC00086B014216846FCF74DFC2E48C16C41F0CD
:103AD0000401C164C16C01F004010591C16C41F0A5
:103AE0008001C164C16C01F080010591C16C41F09D
:103AF0000201C164C16C01F002010591C16C41F089
:103B00000101C164C16C01F001010591C16C41F07A
:103B10000801C164C06C012200F00800DFF8688071
:103B20005403059021464046FCF787FF174FA60037
:103B3000002231463846FCF780FF0022C021404673
:103B4000FCF77BFF0125CDE900450024029469467E
:103B500040460394FCF77EFECDE900650326CDE9DF
:103B6000024669463846FCF775FEC020CDE90005DF
:103B7000CDE9024669464046FCF76CFE06B0BDE85A
:103B8000F0810000001002400008004800040048D6
:103B9000064805490160002141608160C160016102
:103BA000416181617047000000280140F40100205C
:103BB000124810B5104901604FF482714160002134
:103BC0004FF4E062C0E90212022202610122426166
:103BD0005202C0E90621016207224162C0E90A12CD
:103BE00001634163FEF710FC002803D0BDE81040DC
:103BF000FCF7B6BC10BD0000003800407802002081
:103C00000D4810B50B4901604FF4E13141600021CE
:103C100081600C22C160C0E904128161C16101624E
:103C20004162FEF7E5FF002803D0BDE81040FCF735
:103C300097BC10BD0038014024030020FEE7FEE7DA
:103C400010B503460020254C254AB3F5006F0BD173
:103C5000D2F8883003F44003B3F5400F08D0B3F531
:103C6000000F07D0002B04D113681B011FD419E0EB
:103C70001C4810BD13689B0114D5D368DB0311D514
:103C8000D068C0F30210401CB1FBF0F1D068C0F363
:103C90000623D068C00E01D1D06818E05943B1FBAB
:103CA000F0F010BD11684905FBD5204610BD136921
:103CB000DB03F7D5D068C0F30210401CB1FBF0F174
:103CC0001069C0F306231069C00EE7D110698003A4
:103CD00001D51120E2E70720E0E700000024F4000E
:103CE0000010024068FF1F002DE9F041444C0546DA
:103CF0008846E0680026810728680DD0E16801F059
:103D00000301814216D1A8B1E0686968C0F30210CE
:103D1000401C88420ED120E0012804D0022805D0A2
:103D2000032807D108E02168890701E021684905D7
:103D3000002907DB01265FE02168890302D421689E
:103D40004903F5E7E1686A686FF00F0321F073013A
:103D500003EB021211430143E160206820F0806010
:103D60002060FCF76FFE074605E000BFFCF76AFE27
:103D7000C01B022837D820680001F7D4B8F1000F23
:103D800018D0B8F1010F1DD0287D4FF07E414008BA
:103D900001EB4060A96840EA01202169194A1140FD
:103DA00008432061206840F080602060FCF74AFEF4
:103DB00007461AE0A868297B000240EAC160216931
:103DC000114AECE7288A1149400801EB4050A968E4
:103DD00040EA012021690E4AE1E700BFFCF732FE0C
:103DE000C01B022801D9032606E020680001F5D592
:103DF0002069A969084320613046BDE8F0810000D0
:103E000000100240FF80FFF9FF80FF070000E0FF85
:103E1000FF809FFFF8B51C4D06460024A86DC0002A
:103E200002D5FCF7F1FE0DE0A86D40F08050A865CA
:103E3000A86D00F080500090FCF7E6FEA96D21F01F
:103E40008051A965B0F5007F04D0802E07D94FF0CE
:103E500003040AE0802E08D9A02E01D804E001D185
:103E6000022402E0702E00D101240848016821F0EC
:103E7000070121430160006800F00700A04201D063
:103E80000120F8BD0020F8BD0010024000200240D3
:103E90000148FDF7A3BE0000F401002010B585B075
:103EA00004463720CDE90010402002900020039006
:103EB0004FF4806004906946204600F0F0FA41F229
:103EC00088323721204600F07DF905B010BD000092
:103ED00010B504460A4885B001432920CDE90010F9
:103EE00040200290002003904FF4806004906946C7
:103EF000204600F0D4FA204600F01CFA05B010BDB0
:103F00000000108010B585B004461020CDE90010E7
:103F100040200290002003904FF480600490694696
:103F2000204600F0BCFA41F288321021204600F011
:103F300049F905B010BD000030B585B00024054634
:103F4000009401944FF480600294CDE903406946E7
:103F5000284600F0A4FA0B484FF4FA510068B0FB71
:103F6000F1F041F288314843401E03D24FF0004047
:103F700005B030BD696B0906F6D5C520A86320469B
:103F8000F6E700002400002010B585B004464FF489
:103F9000D5700090082001904020029000200390EE
:103FA0004FF4806004906946204600F078FA20467D
:103FB00000F026FA05B010BD10B585B004461220F9
:103FC000CDE9001040200290002003904FF4806063
:103FD00004906946204600F062FA41F288321221CC
:103FE000204600F0EFF805B010BD10B585B00446CE
:103FF0001120CDE9001040200290002003904FF4E2
:10400000806004906946204600F049FA41F2883207
:104010001121204600F0D6F805B010BD10B585B0CE
:1040200004460720CDE900204020029000200390A4
:104030004FF4806004906946204600F030FA41F267
:1040400088320721204600F0BDF805B010BD10B53C
:1040500085B0044600210220CDE90010C020CDE942
:1040600002014FF4806004906946204600F017FA80
:10407000204600F037F905B010BD10B585B00446F4
:104080000920CDE90010C0200290002003904FF4D9
:10409000806004906946204600F001FA204600F056
:1040A00021F905B010BD10B585B004460D20CDE94D
:1040B000001040200290002003904FF48060049094
:1040C0006946204600F0EBF941F288320D21204686
:1040D00000F078F805B010BD30B585B00C46054647
:1040E00000210320CDE900104020CDE902010001AC
:1040F00004906946284600F0D2F92246032128465A
:1041000000F03AF905B030BD10B585B00446002185
:104110000C20CDE900104020CDE9020100010490FF
:104120006946204600F0BBF9034A0C21204600F006
:1041300049F805B010BD000000E1F50510B585B0E7
:1041400004461920CDE90010402002900020039081
:104150004FF4806004906946204600F0A0F941F2D7
:1041600088321921204600F02DF805B010BD10B599
:1041700085B004461820CDE90010402002900020B0
:1041800003904FF4806004906946204600F087F960
:1041900041F288321821204600F014F805B010BD15
:1041A0000A6842624A688262D1E902231A43D1E96D
:1041B00004310B43C16A1A4321F0F7011143C16274
:1041C00000207047454B10B51B684FF4FA54B3FB01
:1041D000F4F353435B1E02D24FF0004010BD426B1C
:1041E00012F0450FF6D01205F4D4426B520703D5F6
:1041F00004218163084610BD426BD20702D0012121
:10420000816305E0C52282630269D2B28A4201D08D
:10421000012010BD002100F023F93149084201D1ED
:10422000002010BD002802DA4FF0007010BD4100E0
:1042300001D5402010BD810001D5802010BDC100F6
:1042400002D54FF4807010BD010102D54FF400700B
:1042500010BD410102D54FF4806010BDC10102D5EF
:104260004FF4006010BD010202D54FF4805010BD24
:10427000410202D54FF4005010BD810202D54FF427
:10428000804010BDC10202D54FF4004010BD410373
:1042900002D54FF4003010BD810302D54FF48020C9
:1042A00010BDC10302D54FF4002010BD010402D59A
:1042B0004FF4801010BD410402D54FF4001010BD22
:1042C000810402D54FF4800010BD000702D54FF4E1
:1042D000000010BD4FF4803010BD0000240000200D
:1042E00008E0FFFD12494FF4FA520968B1FBF2F100
:1042F00041F288325143491E02D24FF000407047CC
:10430000426B12F0450FF6D01205F4D4416B490709
:1043100003D50421816308467047416BC90703D068
:104320000121816308467047C521816300207047E1
:10433000240000200F494FF4FA520968B1FBF2F152
:1043400041F288325143491E02D24FF0004070477B
:10435000426B12F0450FF6D01205F4D4416B4907B9
:1043600003D50421816308467047C521816300207D
:10437000704700002400002030B5204B4FF4FA5461
:104380001B68B3FBF4F341F2883463435B1E02D233
:104390004FF0004030BD446B14F0450FF6D02405BB
:1043A000F4D4436B5B0703D504218163084630BD19
:1043B000436BDB0702D00121816303E00369DBB2B9
:1043C0008B4201D0012030BDC5218163002100F066
:1043D00047F810F4604F04D0410406D54FF4005064
:1043E00030BD000C1080002030BD000402D54FF419
:1043F000805030BD4FF4803030BD000024000020DC
:1044000014494FF4FA520968B1FBF2F141F28832D3
:104410005143491E02D24FF000407047426B12F0E8
:10442000450FF6D01205F4D4416B490703D504219A
:10443000816308467047416BC90703D0012181633E
:1044400008467047416B490601D540218163002031
:104450007047000024000020006800F0030070474F
:1044600008444069704770B51943DDE90446344398
:10447000069D214329431143426847F6FF639A434F
:104480000A434260002070BD10B503210160022084
:10449000FCF7CEF9002010BDD0F8800070470A6804
:1044A0008260D1E901231A43D1E903310B43C1688A
:1044B0001A436FF30B011143C16000207047096874
:1044C000C0F880100020704710B5064C0120207005
:1044D000FBF7E2FF18B9207820F001002070207867
:1044E00010BD0000E001002010B5846A40F23A508F
:1044F000216888632046FDF75BFB012184F83410B6
:1045000000212163062801D0052805D12068FFF786
:10451000FBFDA16B0843A063A06B0028204602D0DE
:10452000FDF766FA10BDFDF75FFA10BD10B5846A9D
:1045300040F23A50216888632046FDF739FB01219B
:1045400084F8341000212163062801D0052805D104
:104550002068FFF7D9FDA16B0843A063A06B00287A
:10456000204602D0FDF744FA10BDFDF73DFA10BD1C
:1045700010B590B004460120ADF838002068FFF770
:104580006BFF002854D0606C032842D02068FFF7EE
:104590005EFD00284AD100212068FFF761FF6067B7
:1045A00004212068FFF75CFFA06708212068FFF75F
:1045B00057FFE0670C212068FFF752FFC4F8800026
:1045C000606C032825D00EA92068FFF785FD002820
:1045D0002CD1606C03281CD0BDF838002065010484
:1045E0002068FFF74AFD002820D100212068FFF74E
:1045F00037FF606604212068FFF732FFA0660821BC
:104600002068FFF72DFFE0660C212068FFF728FFE8
:10461000206704212068FFF723FF000DE06403A951
:104620002046FDF7E7F930B14FF0805010B010BDD3
:104630004FF08060FAE7B4F85000002302042068CD
:10464000FFF7ECFC0028F1D104F1100007C88DE859
:10465000070094E80F00FFF706FF0020E6E70000E0
:104660002DE9F84F0026044600963546B04600680E
:10467000FFF762FC002827D12068FFF785FC4FF088
:10468000805B4FF001094FF6FF7748B1A6642068C0
:10469000FFF752FC002817D1A06C012802D020E0BF
:1046A000C4F8489000212068FFF7F8FB58B918E0DB
:1046B00000212068FFF7F2FB002805D15146206851
:1046C000FFF706FC10B1584600F024B8002120681E
:1046D000FFF7C6FE05464FEAD0780098401C0090D0
:1046E00002E0DFF82CA00098B84202D2B8F1000F27
:1046F000DED00098B84202D34FF08070E4E7680043
:1047000002D5C4F8449000E066640020DCE70000B5
:10471000000010C118BCBDE8E08F000070B5064C69
:10472000054601202070FBF7C3FE18B92846FFF7A5
:10473000CBFE2070207870BDE001002010B512483B
:1047400088B014460078C00702D0032008B010BD1E
:10475000C1B1012905D0022908D003290CD00420B9
:10476000F4E76846FBF792FE06980AE06846FBF716
:104770008DFE0798208005E06846FBF787FE0798C6
:10478000400A20600020E1E7E001002070B51D46EE
:10479000164608460124A31E2A463146FBF79EFE14
:1047A00028B900BFFBF778FE0028FBD10024204683
:1047B00070BDFFF789BE000070B51D46164608465D
:1047C0000124A31E2A463146FBF79AFE28B900BFF2
:1047D000FBF762FE0028FBD10024204670BD0000DC
:1047E0000148FDF793BD00007802002010B5806AF3
:1047F0000021A0F84610C187FDF787FD10BD10B558
:10480000806A01684A6822F003024A60016E41F042
:1048100010010166012180F85D10FDF776FD10BDE5
:1048200010B5806AFDF764FF10BD38B50546846A8F
:10483000FCF708F9024628680068800623D420683F
:10484000416821F0200141602068416821F00201A7
:1048500041606421204600F01AF818B1206E40F043
:1048600020002066A068002118B92068C26880680E
:104870000090E187012084F85D00206E18B1204689
:10488000FDF743FD38BD2046FDF724FF38BDF8B5E0
:1048900015460E460B460092044600224FF4C051C6
:1048A00000F01AF888B9334600228021204600958E
:1048B00000F086F848B9334600224FF4C061204624
:1048C000009500F009F8002804D0206E40F0200088
:1048D00020660320F8BD00002DE9FE4F4FF0000ACE
:1048E000984617460E4604460C9D8DF804A0FCF72A
:1048F000A9F8411BA8EB0105FCF7A4F88146206844
:104900004FF4C06B0C3002902A480068C0EBC00026
:1049100000EB8000000D6843009043E05E4506D147
:104920002FB9029800788DF804009DF80400B8F1C2
:10493000FF3F37D0FCF786F8A0EB0900A84203D26E
:1049400015B1009858B32BE02068416821F0E001D0
:1049500041606068B0F5827F0BD1A068B0F5004F70
:1049600002D0B0F5806F04D12068016821F04001C9
:104970000160A06AB0F5005F09D12068016821F4E8
:10498000005101602068016841F40051016001207C
:1049900084F85D0084F85CA0032000F00DB80025C9
:1049A000401E0090206880683040B842B6D1002098
:1049B000F3E70000240000201EBCBDE8E08F0000EB
:1049C0002DE9F8431E46914688460446089DFCF7AB
:1049D00039F8401B351AFCF735F8074625480068BA
:1049E000C0F3CB30684338E0701C37D0FCF72AF8AE
:1049F000C01BA84203D215B1009860B32CE0206818
:104A0000416821F0E00141606068B0F5827F0BD120
:104A1000A068B0F5004F02D0B0F5806F04D12068D7
:104A2000016821F040010160A06AB0F5005F09D182
:104A30002068016821F4005101602068016841F498
:104A400000510160012084F85D00002084F85C00C2
:104A50000320BDE8F8830025401E0090206881688F
:104A600038EA010004D000214945BDD10020F0E71B
:104A70000121F9E72400002070B5054608480C46DE
:104A80004FF6FF71006815F0FBFA08B1012070BD08
:104A900022462946BDE870400248FDF78DBD000062
:104AA00000000020780200207047000006480068DF
:104AB00008B116F007B80548D0E90012491C42F1C8
:104AC0000002C0E90012704794000020A0000020FE
:104AD0002DE9F041AEB0442117A8FBF743FC1421A7
:104AE00028A8FBF73FFC5C216846FBF73BFC01254F
:104AF0002804CDE9175002240326CDE921460727D3
:104B0000CDE9257414202794CDE9235017A8FCF78C
:104B1000B5FC08B172B6FEE70F204FF00008CDE9F2
:104B20002806CDF8A880CDF8AC80042128A8CDF8BF
:104B3000B080FCF77DFB08B172B6FEE70F4800902D
:104B4000CDF82080800612900820CDE90250019611
:104B50004004CDE90640CDE904746846FCF70AFA42
:104B600008B172B6FEE74FF40070FCF719F80028A0
:104B700001D072B6FEE72EB0BDE8F081010008005A
:104B80000248016841F470010160704788ED00E05F
:104B900010B50448FDF70FFEBDE81040012013F0EA
:104BA0000DBF0000A803002070B50268164B4FF03F
:104BB0008046984201D0B04203D122F070044A6886
:104BC0002243124C124D984205D0B04203D0A0426D
:104BD00001D0A84203D122F44076CA6832434E691C
:104BE00022F08002324302608A68C2620A688262EE
:104BF000984203D0A04201D0A84201D109690163C3
:104C00000121416170BD0000002C014000400140C5
:104C10000044014090F82410C90706D001684A6892
:104C2000836A22F400321A434A6090F824108907FC
:104C300006D501684A68C36A22F480321A434A6082
:104C400090F82410490706D501684A68036B22F4DE
:104C500080221A434A6090F82410090706D501689B
:104C60004A68436B22F400421A434A6090F82410C9
:104C7000C90606D501688A68836B22F480521A43FC
:104C80008A6090F82410890606D501688A68C36B8B
:104C900022F400521A438A6090F82410490611D574
:104CA00001684A68036C22F480121A434A60016C5E
:104CB000B1F5801F06D101684A68436C22F4C00236
:104CC0001A434A6090F82410090606D501684A681C
:104CD000806C22F4002202434A607047F8B5002637
:104CE0000446C0F88060FBF7ADFE0546206800680A
:104CF0006FF07E47000708D52B4600224FF40011C5
:104D00002046009700F048F960B920680068400725
:104D10000AD52B4600224FF480012046009700F070
:104D20003BF908B10320F8BD2020A067E0672666A4
:104D300084F874600020F8BD10B5806A0021A0F8E6
:104D40005A10A0F85210FDF708FE10BD016851E896
:104D5000002F22F4907241E80023002BF6D1016865
:104D6000083151E8002F22F0010241E80023002B16
:104D7000F5D1016E012908D1026852E8001F21F027
:104D8000100142E80013002BF6D12021C167002159
:104D900001664166704700002DE9F0410446016854
:104DA00080682269E3691043626900251A43104351
:104DB000714F0A68714B1A4002430A6020684168CB
:104DC000E26821F44051114341602168A069B94271
:104DD00001D0226A10438A6822F4306202438A605A
:104DE0006749236867488B420DD1D0F8880010F0DE
:104DF000030006D0012847D0022843D0032830D131
:104E000044E001212EE060498B420BD1D0F88800AC
:104E100010F00C0034D0042836D0082832D00C28EA
:104E20001FD133E059498B420BD1D0F8880010F0E4
:104E3000300025D0102827D0202823D0302810D1AA
:104E400024E0BB420DD1D0F8880010F4406017D0A8
:104E5000B0F5806F18D0B0F5006F13D0B0F5406F8B
:104E600014D010214A4A00264FF40040BB422FD1F3
:104E700071B102290FD004290FD0082973D10FE096
:104E80000021EFE70221EDE70421EBE70821E9E744
:104E9000FCF77EFA03E0104602E0FCF79DFAE8B367
:104EA000626802EB420181425DD8B0EB023F5AD802
:104EB000010E03025008181871410023FBF705FA90
:104EC000344AA0F5407191424DD82168C8604BE04A
:104ED000E3694FF6EF77834228D1092943D2DFE80F
:104EE00001F005080B420D4242421000FCF750FA57
:104EF00006E0FCF75FFA03E0104602E0FCF76CFA0C
:104F000060B14100606801EB5001B1FBF0F0A0F12D
:104F10001001B94227D84FF6F07100E024E00140BB
:104F2000C0F3420001432068C1601DE009291AD284
:104F3000DFE801F005080B190D1919191000FCF72D
:104F400027FA06E0FCF736FA03E0104602E0FCF729
:104F500043FA48B1616800EB5100B0FBF1F0A0F1F9
:104F60001001B94205D9012566662846A666BDE846
:104F7000F08180B2A9E7000000800040F369FFEFF4
:104F8000003801400010024000440040004800404A
:104F90000024F400FFFC0F002DE9F0479A46174665
:104FA0000E4604464FF000094FF02008089D4AE0E5
:104FB000681C48D0FBF746FDA0EB0A00A8422AD89F
:104FC0004DB32068016849073DD5C069C04300055D
:104FD00039D421684FF400600862206850E8001F4F
:104FE00021F4D07140E80012002AF6D12068083080
:104FF00050E8001F21F0010140E80012002AF5D11D
:10500000C4F87880C4F87C80C4F8808084F87490F8
:105010000320BDE8F087216851E8000F20F4D0702C
:1050200041E80002002AF6D12068083050E8001F4D
:1050300021F0010140E80012002AF5D1C4F878807F
:10504000C4F87C80E2E72068C06936EA000004D03A
:105050000020B842ACD00020DBE70120F9E70000D7
:105060000148FDF77BBC000024030020FEE70000A0
:105070000FB4054B10B503A9044A029802F06AFB6D
:1050800010BC5DF814FB000059E40008F00100209A
:105090000907090E002804DB00F1E02080F8001465
:1050A000704700F00F0000F1E02080F8141D7047F9
:1050B00002E008C8121F08C1002AFAD170477047E1
:1050C000002001E001C1121F002AFBD1704770B51A
:1050D000044600256FF02F0608E02068411C21607F
:1050E000007805EB850106EB410145182068007842
:1050F00000F004F80028F0D1284670BD30380928A7
:1051000001D80120704700207047000010B54021F1
:10511000074800F03EFE002304220A21054813F050
:1051200017FA054CA06002F051FF0020207010BD5E
:10513000C806002081800008680100202DE9F041A8
:1051400000251C4688460646152A3BD2DFE802F0B9
:105150000B1B1D2E3744535C5E676A79878999A6BD
:10516000ABB0B5BACD0030460AF037FF0546404631
:105170000AF033FF014605EBD570401001EBD17109
:10518000A0EB6100A1E025800EE030460AF025FF8B
:10519000074640460AF021FF07EBD771491000EBA4
:1051A000D070A1EB60008BE065800BE030460AF028
:1051B00014FF074640460AF010FF381A80E02580A9
:1051C00097E060802088318808442080608871885A
:1051D00008446080BDE8F08130460AF0FEFE0546D6
:1051E00040460AF0FAFE05EBD571491000EBD0708D
:1051F000A1EB60007CE030460AF0EFFE0546404639
:105200000AF0EBFE281A73E025805FE030460AF0D2
:10521000E4FE054640460AF0E0FE281A55E02580E7
:10522000084618E030460AF0D8FE054640460AF027
:10523000D4FE05EBD571491000EBD070A1EB6000F6
:1052400007E030460AF0C9FE054640460AF0C5FEB2
:10525000281A208040460AF09AFE4042B1E7258095
:1052600018E030460AF0B9FE054640460AF0B5FEA1
:10527000014605EBD570401001EBD171A0EB610048
:1052800007E030460AF0A9FE054640460AF0A5FEB2
:10529000281A208030460AF07AFE92E708460AF083
:1052A0009CFE40420CE008460AF097FE40420CE0AB
:1052B00008460AF092FE40421AE030460AF08DFE9F
:1052C000208071E730460AF088FE208030460AF0E0
:1052D0005EFE054640460AF05AFE05EBD5714910C0
:1052E00000EBD070A1EB60006BE730460AF075FE72
:1052F000208030460AF04BFE054640460AF047FE45
:10530000281A5EE770B5B1F90030B2F90040A34247
:1053100000DC23460380B1F90250B2F90240A542F5
:1053200000DD2C464480B1F90460B2F90450AE426D
:1053300000DA35468580B1F90610B2F906209142AF
:1053400000DB1146C1800120AB4201DC8C4200DD54
:10535000002070BDF8B50D460446B0F90000B1F963
:1053600000101646884247DBB4F90210B5F9022056
:10537000914241DBB4F90410B5F9042091423BDCC1
:10538000B4F90610B5F90620914235DC96B3ADF8B4
:1053900000006088ADF8020032466946284600F0F9
:1053A00049F8002827D0A088ADF800006088ADF843
:1053B000020032466946284600F03CF800281AD020
:1053C0002088ADF80000E088ADF80200324669465A
:1053D000284600F02FF800280DD0A088ADF8000076
:1053E000E088ADF8020032466946284600F022F80F
:1053F000002800D00120F8BD0020F8BDB0F9002041
:10540000B1F904309A4213DCB0F90420B1F900304C
:105410009A420DDBB0F90220B1F906309A4207DC5E
:10542000B0F90600B1F90210884201DB0120704793
:10543000002070472DE9FC4114460E46B1F90020CA
:10544000B0F9001005468A423ADBB5F90400824201
:1054500036DCB6F90270B5F90220974230DBB5F9B7
:1054600006309F422CDC002C75DD401A9A1A401C35
:10547000521C00B212B200EBD07002EBD27240109C
:105480005210904200DB1046844200DD0446ADF825
:105490000010288800222044ADF804006888ADF888
:1054A0000200688831462044ADF806006846FFF7E0
:1054B000C1FF40B1BDF804002044ADF804003FE056
:1054C0000020BDE8FC81E8880022001BADF8020046
:1054D000E888ADF8060031466846FFF7ABFF28B113
:1054E000BDF804002044ADF8040011E0A8880022B3
:1054F000001BADF80000A888ADF8040031466846EE
:10550000FFF798FF50B1BDF80000001BADF8000098
:10551000BDF80200001BADF8020016E06888ADF887
:105520000200688800222044ADF806003146684633
:10553000FFF780FF70B1BDF80000001BADF8000060
:10554000BDF806002044ADF806003146684612F06A
:105550003FF8B6E7FFE70120B3E710B5B1F9004027
:10556000B2F900309C4200DA23460380B1F90240D0
:10557000B2F902309C4200DA23464380B1F904407C
:10558000B2F904309C4200DD23468380B1F9061055
:10559000B2F90620914200DC1146C18010BD2DE910
:1055A000FF4F87B01D46DDE91476DDF858908B4635
:1055B000022E50D3002F4ED001F090F980460BF010
:1055C00017F900F11004D0F808A0D8F824104046CC
:1055D00001B188475A4604A80799FFF793FE0028AF
:1055E00039D0BDF810002188401A01B2ADF8101072
:1055F000BDF812006288801AADF81200BDF81400E0
:105600002288801A00B2ADF81400BDF81620638815
:10561000D21AADF8162095B198F80820D2070ED10D
:10562000401A401C01B2002007E02A5C802A01D900
:10563000FF2200E000222A54401C8842F5DBD8F803
:10564000140058B1CDE90065029704AA51462046DE
:10565000099B08F0CBFC0BB000F018B8B9F1000FB3
:105660000AD001A8009680E8A00204AA514620466C
:10567000099B08F03DFAEEE7CDE90065029704AA20
:1056800051462046099B08F00FFBE4E730BCBDE81B
:10569000C08F2DE9FF4F87B01D46DDE91476DDF898
:1056A00058A09146022E52D3002F50D0014605A893
:1056B000089AFFF727FE002849D001F00FF980462D
:1056C0000BF096F800F11004D0F808B0D8F82410C8
:1056D000404601B18847BDF814002188401A01B244
:1056E000ADF81410BDF816006288801AADF81600E7
:1056F000BDF818002288801A00B2ADF81800BDF875
:105700001A206388D21AADF81A2095B198F80820AB
:10571000D2070ED1401A401C01B2002007E02A5CDB
:10572000802A01D9FF2200E000222A54401C88422E
:10573000F5DBD8F8140068B1CDF800900397CDE9F7
:10574000016505AA59462046089B13F043FD0BB09E
:1057500000F01BB8BAF1000F0BD002A805AA80E830
:10576000A004CDE9009659462046089B13F0A2FA02
:10577000EDE7CDF800900397CDE9016505AA5946FC
:105780002046089B13F087FBE1E730BCBDE8C08FE3
:105790002DE9FC5F054613F007F9584C0190E868C5
:1057A00060600021284613F037F86068C16BE1B1F2
:1057B00012F0F8F912F06EF96068514AD0F87811D9
:1057C00011427DD0A3460BF0B0F900286FD0DBF872
:1057D00004005D46416989B14A4800904A4BCF2296
:1057E0004AA1022000F0C0FB61E0454AD0F87811E0
:1057F000D2431140C0F8781100F0A2B80AF0F8FFC7
:10580000044612F0C9FAA0690028FCD16868B0F912
:105810000000400000F0FEFB8246A068216881463F
:10582000884200D16168686888460AF0F5FF06463C
:105830000024AB462EE00A1992F85A2142BB01EB34
:10584000C40131F95A2FB1F9025016FB052389889A
:105850005F00891A491C09B24900009110E000BF9D
:1058600008EB07015046009A00F002FD09EB070023
:105870005146009A00F0FCFC6D1C07EB46072DB268
:10588000DBF8040000EBC400B0F96000A842E7DADE
:10589000641CA4B2DBF80410D1F87821C2F30942E9
:1058A000A242C8D8BAF1000001D000F069FCDBF8D0
:1058B00004004FF480715C465A3000F0B7FD00E000
:1058C00016E06068202100F5AD7000F0AFFD606863
:1058D0000B4AD0F87811D2431140C0F878110198E2
:1058E00013F05CF80146606883690BB12268984741
:1058F00000F06EFB00F027B800F02AB80C01002081
:105900000000FF03201702088CDB01082E2E5C4DDF
:105910006964646C6577617265735C4C56474C5C76
:105920004C56474C5C6C76676C5C7372635C6C764F
:105930005F636F72655C6C765F726566722E630082
:105940003CBCBDE8C09F3CBCBDE8C05FFFF7D4BF16
:1059500010B5044C2068002803D00EF0B3FF0020DF
:10596000206010BD8C0100204421014800F011BAD4
:10597000B00600201821014800F00BBAD406002020
:1059800000230380491E43808180521EC2807047DD
:105990002DE9F843434E88468146318821B142487B
:1059A000424C0568002014E041A000904A4B4A2276
:1059B0004AA1022000F0D8FA67E000BF00EBC00265
:1059C00005EB8202136AA34201DD5B1E1362401CD9
:1059D00080B28842F2D300241FFA88F721E000BF8A
:1059E00004EBC40005EB800001898F4217D14168A8
:1059F00048460CF0A5FF90B104EBC40005EB800015
:105A00004269016A11444FF47A720162914200DDE9
:105A1000026200283AD12C460120328811E0641C31
:105A2000A4B230888442DBD3F5E700BF00EBC001AD
:105A300005EB8101266A0B6AB34200DA0C46401C72
:105A400080B29042F2D3606810B120460DF0D0FDD4
:105A500012F0AAFF05464246494620460DF044FE94
:105A600020B100202062606990B118E02AA0009067
:105A7000194B802219A1022000F076FA2421204639
:105A800000F0D4FC4FF0004020620020BDE8F88315
:105A9000284612F083FF606108B90120606120464A
:105AA000F4E700001C0100207401002001000080C8
:105AB0006C765F696D675F63616368655F6F706572
:105AC0006E3A207468652063616368652073697A43
:105AD000652069732030000033DE01082E2E5C4DF6
